:100000000C94B4000C94FF000C94FF000C94FF00BF
:100010000C94FF000C94FF000C94FF000C94FF0064
:100020000C94FF000C94FF000C945B1D0C94A41D19
:100030000C94FF000C94FF000C94FF000C94FF0044
:100040000C94FF000C94FF000C94FF000C94FF0034
:100050000C94FF000C94831B0C94FF000C94FF0085
:100060000C94FF000C94FF000C94FF000C94FF0014
:100070000C94FF000C94FF000C94FF000C94FF0004
:100080000C94FF000C94FF000C94FF000C94FF00F4
:100090000C948B010C94FF0012010002020000403E
:1000A000EB031820001001020301090243000201C2
:1000B0000080320904000001020201000524001042
:1000C000010524010301042402060524060001079A
:1000D0000583032000FF09040100020A0000000755
:1000E0000581022000000705020220000004030928
:1000F0000434034100760069006100740069006FF8
:10010000006E00200049006E0073007400720075DC
:10011000006D0065006E0074007300200049006EE1
:100120000074006C002A0341005600520020005564
:10013000005300420020004300440043002F0041D0
:100140000043004D002000440045004D0030000CED
:100150000331002E0030002E003000003006B70EB4
:100160007910F8122906B00E11241FBECFEFD0E28D
:10017000DEBFCDBFF8942FE088E190E00FB6F89491
:10018000A895809360000FBE2093600017980F9A87
:10019000179A80E090E020E80FB6F8942093610071
:1001A000809361000FBE83B7817F83BF83B7816077
:1001B00083BF12E0A0E0B1E0E4E1F0E400E00BBFB7
:1001C00002C007900D92A43CB107D9F717E0A4EC48
:1001D000B2E001C01D92A335B107E1F70E94D70E2E
:1001E00011E0C4E6D1E004C02297FE010E94F21F94
:1001F000CC35D107C9F70E94D50E0C94FD1F0C9485
:1002000000008FEF9FEF08951092BC008AB18C7FA1
:100210008AB980E090E0089581E00895FC0140E013
:1002200025853685838594852817390709F041E0AF
:10023000842F08959C01275F3F4FC901089580E0F6
:1002400090E0089520E0FC01838D948D892B09F0C6
:1002500021E0822F089520E030E0FC01838D948D11
:10026000892B11F421E030E0C90108959C01295E39
:100270003F4FC901089547960E94510D90E008959F
:100280001F93162F09960E942D0D812F90E01F912C
:100290000895CF93DF93EC018091B9008C7F803873
:1002A00051F0813818F4803671F51DC0883831F16D
:1002B000803A49F523C02B8D3C8D898D9A8D281766
:1002C0003907C1F06091BB00CE0147960E942D0D09
:1002D000E881F981048CF58DE02DCE01099560E06F
:1002E00070E00E9482102B8D3C8D898D9A8D28178D
:1002F000390721F48091BC008F7B03C08091BC0042
:1003000080648093BC008091BC0080688093BC00B6
:10031000DF91CF9108950F920FB6F8940F921F922C
:1003200011242F923F924F925F926F927F928F9201
:100330009F92AF92BF92CF92DF92EF92FF920F9374
:100340001F932F933F934F935F936F937F938F935D
:100350009F93AF93BF93CF93DF93EF93FF93179A3E
:10036000A0915506B09156060DB60D920EB60D929F
:100370008091C4029091C5020E9449010E94E80E3A
:10038000882311F00E94D50FA0915506B091560612
:10039000CD91CDBFDD91DEBFFF91EF91DF91CF9188
:1003A000BF91AF919F918F917F916F915F914F918D
:1003B0003F912F911F910F91FF90EF90DF90CF9081
:1003C000BF90AF909F908F907F906F905F904F9075
:1003D0003F902F901F900F900FBE0F901895FFCF5A
:1003E00022E02093B8001092B90020E52093BA00D3
:1003F0001092BD0025E42093BC0047960E94230D77
:1004000080E090E008950F931F938C0182E992E0C1
:10041000F80191838083C8010E944F0CC8010E949B
:10042000D40E1F910F910895FC0182E992E091830F
:100430008083CF010E944F0C0895FC0182E992E075
:1004400091838083CF010E944F0C08956F927F9219
:100450008F929F92AF92BF92CF92DF92EF92FF92D4
:100460000F931F935C014B017A01390168010E94CF
:10047000E91A84E091E0F501918380839701220FCE
:10048000331F2E0D3F1D3695279536952795C501AF
:100490000996B401A701F694E794F694E7948701CE
:1004A0000E94FB0C9601220F331F2C0D3D1D36952B
:1004B000279536952795C5014796B301A601D69491
:1004C000C794D694C79486010E94FB0CB092C502D3
:1004D000A092C4021F910F91FF90EF90DF90CF90F8
:1004E000BF90AF909F908F907F906F9008956F9284
:1004F0007F928F929F92AF92BF92CF92DF92EF92B4
:10050000FF920F931F935C014B017A01390168013F
:100510000E94E91A84E091E0F501918380839701BC
:10052000220F331F2E0D3F1D3695279536952795A3
:10053000C5010996B401A701F694E794F694E794EF
:1005400087010E94FB0C9601220F331F2C0D3D1DCD
:100550003695279536952795C5014796B301A6018F
:10056000D694C794D694C79486010E94FB0CB0928F
:10057000C502A092C4021F910F91FF90EF90DF90EF
:10058000CF90BF90AF909F908F907F906F90089585
:100590002F923F924F925F926F927F928F929F9293
:1005A000AF92BF92CF92DF92EF92FF920F931F9381
:1005B000DF93CF9300D0CDB7DEB73C012B011A01FA
:1005C0003A8329830E94E91A84E091E0F301918340
:1005D0008083C3010996B201A10129813A810E9459
:1005E000FB0CC3014796B701A601950184010E9447
:1005F000FB0C7092C5026092C4020F900F90CF91D5
:10060000DF911F910F91FF90EF90DF90CF90BF90FF
:10061000AF909F908F907F906F905F904F903F90A2
:100620002F9008952F923F924F925F926F927F92F8
:100630008F929F92AF92BF92CF92DF92EF92FF92F2
:100640000F931F93DF93CF9300D0CDB7DEB73C015C
:100650002B011A013A8329830E94E91A84E091E070
:10066000F30191838083C3010996B201A10129811D
:100670003A810E94FB0CC3014796B701A601950180
:1006800084010E94FB0C7092C5026092C4020F901C
:100690000F90CF91DF911F910F91FF90EF90DF901E
:1006A000CF90BF90AF909F908F907F906F905F9012
:1006B0004F903F902F900895FC018081918194602C
:1006C00091838083CF010895FC01808191818F7196
:1006D000806291838083CF010895FC0180819181A4
:1006E0008F71806891838083CF01089580E00895A1
:1006F000AF92BF92CF92DF92EF92FF920F931F9330
:10070000CF93DF936C018C0105511F4FC8010E94EC
:10071000840DC8010E948A0DFC01009709F449C0AC
:10072000E601C152DF4F80818F33E1F18062833770
:1007300041F58181882379F18062843761F5809168
:100740005E06A82EBB2400E010E017C0C8010E947E
:10075000020F7C01CE010E944909EC14FD0419F43A
:10076000CE016AE202C0CE0160E20E947409CE01AD
:10077000B7010E9431150F5F1F4F0A151B0534F397
:1007800018C0843741F48181882329F08062813345
:1007900081F0823371F0CE010E94490964E571E075
:1007A0000E94F108CE010E94490961E571E00E94B2
:1007B000F108DF91CF911F910F91FF90EF90DF90A3
:1007C000CF90BF90AF900895AF92BF92CF92DF923B
:1007D000EF92FF920F931F937C016A015901AC01C4
:1007E0004A5E5F4F29EB30E000E80E94BA128FE4C6
:1007F00091E0F70191838083870101531F4FF80136
:10080000D182C082C7018F529F4FB6010E948708D4
:10081000F80160817181C70181529F4F0E94290CAC
:10082000C70185519F4F23EF30E0E20EF31EB70161
:1008300040E550E00E947C0DF701B292A2921F9118
:100840000F91FF90EF90DF90CF90BF90AF90089501
:10085000AF92BF92CF92DF92EF92FF920F931F93CE
:100860007C016A015901AC014A5E5F4F29EB30E01F
:1008700000E80E94BA128FE491E0F701918380832F
:10088000870101531F4FF801D182C082C7018F52E7
:100890009F4FB6010E948708F80160817181C701EE
:1008A00081529F4F0E94290CC70185519F4F23EF12
:1008B00030E0E20EF31EB70140E550E00E947C0DEF
:1008C000F701B292A2921F910F91FF90EF90DF90EB
:1008D000CF90BF90AF9008953F924F925F926F92EA
:1008E0007F928F929F92AF92BF92CF92DF92EF92C0
:1008F000FF920F931F93CF93DF938C0101531F4FF0
:10090000F801C080D1800F5C104041ED642E712C45
:10091000600E711E3FEDE32EF12CE00EF11E2BEE6A
:10092000822E912C800E911E3324339496E7492E0B
:1009300093E0592E81EFA82EB12CA00EB11EC60156
:100940000E94811A30925C06C7010E9449090E94E8
:10095000490967E871E00E94F1080E944909109274
:100960005C063AC0C7010E94490969E571E00E942E
:10097000F108C401B301A7010E94180EEC01FFEFBA
:100980008F3F9F0751F44114510461F188E496E0D0
:1009900066E371E00E94F10819C097FF1AC0411484
:1009A000510401F188E496E063E471E00E94F108EB
:1009B000FC01828193818F71806293838283662799
:1009C00077276C1B7D0BCF010E94E20B0E94490927
:1009D00009C0C8010E947803C6010E9469198823D2
:1009E00009F0C0CFC6010E947819F501808191817C
:1009F0000E947819F501808191810E94811A9FCF10
:100A0000FC0180819181946091838083CF0108955E
:100A1000FC01808191818F71806291838083CF01FD
:100A20000895FC01808191818F718068918380831A
:100A3000CF01089580E00895AF92BF92CF92DF92E8
:100A4000EF92FF920F937C016A015901AC014A5E5B
:100A50005F4F29EB30E000E80E94BA1285E791E091
:100A6000F701918380838FEC90E0E80EF91EF70187
:100A7000C192D192B182A0820F91FF90EF90DF904E
:100A8000CF90BF90AF900895AF92BF92CF92DF9278
:100A9000EF92FF920F937C016A015901AC014A5E0B
:100AA0005F4F29EB30E000E80E94BA1285E791E041
:100AB000F701918380838FEC90E0E80EF91EF70137
:100AC000C192D192B182A0820F91FF90EF90DF90FE
:100AD000CF90BF90AF900895CF92DF92EF92FF92A8
:100AE0000F931F93CF93DF93FC01E153FF4FE190EE
:100AF000F1900081118110925C0686E7C82E83E098
:100B0000D82EC8010E94811A33C0C114D10409F43F
:100B100042C088E496E06CE571E00E94F10819C0DB
:100B2000D7FF1AC0C114D104B1F188E496E069E698
:100B300071E00E94F108FC01828193818F718062D3
:100B400093838283662777276C1B7D0BCF010E94DE
:100B5000E20B0E9449091FC0C7010E94691988233E
:100B600039F0C7016C2F0E942C1AC7010E949619F8
:100B7000C8010E949319882371F0C8010E94691965
:100B8000882349F0C8010E94DC19EC018FEFCF3FA8
:100B9000D80731F6BACFC8010E947819B2CF0F93A7
:100BA0001F938130910599F56F5F7F4F09F04EC01B
:100BB00086EC92E060E070E00E94101987E093E01C
:100BC00063EE72E040E250E023E033E004E010E046
:100BD0000E9426028CE293E067E771E046EC52E067
:100BE00027E033E00E941C058FEF93E06DE771E092
:100BF00046EC52E027E033E00E94E40382E495E013
:100C000061E871E041E050E00E94D5061FC0892BE9
:100C1000E9F46F5F7F4FD1F48FE491E0909300048B
:100C20008093FF038AEE94E00E94830D8EED94E0A2
:100C30000E94060C80ED94E00E94640887E093E037
:100C40000E94140286EC92E00E94FE181F910F9100
:100C5000089580E090E06FEF7FEF0E94CF05089548
:100C600081E090E06FEF7FEF0E94CF0508950F9332
:100C70001F938A0187E696E040E050E00E948A14C4
:100C80000FB6F8940F92169A0F900FBE87E696E073
:100C9000B80140E050E00E948A140FB6F8940F9219
:100CA00016980F900FBE1F910F9108956F927F922B
:100CB0008F929F92AF92BF92CF92DF92EF92FF926C
:100CC0000F931F93CF93DF937C010E9A81E091E005
:100CD000E80EF91EF701408151818FEF9EEFE80E7B
:100CE000F91E569547955695479521E030E002C08C
:100CF0002F5F3F4F229FC001239F900D329F900D89
:100D0000112484179507A0F34901089481089108DC
:100D10004EEFA42E4FEFB42EA20EB31E91E0692E1B
:100D2000792E6E0C7F1C8FE696E061E070E040E06B
:100D300050E00E948A1465018501C1E0D0E008C03E
:100D4000C701B801AE010E9437062196015010403C
:100D5000C815D905A8F30FB6F8940F92169A0F90FC
:100D60000FBEF301608171817695679576956795E1
:100D700087E696E040E050E00E948A140FB6F894AF
:100D80000F9216980F900FBEC1E0D0E009C0C701C6
:100D9000BE01A6010E94370621960894C108D10819
:100DA000C815D90508F0BFCFF2CFCF92DF92EF92EE
:100DB000FF920F937C016A01AC014A5E5F4F2BEEFC
:100DC00030E000E80E94BA1287EB91E0F7019183CE
:100DD000808321E031E0E20EF31E80ED97E0FC011C
:100DE000CE9EC001CF9E900DDE9E900D1124F70186
:100DF000918380830F91FF90EF90DF90CF900895C3
:100E0000CF92DF92EF92FF920F937C016A01AC01C7
:100E10004A5E5F4F2BEE30E000E80E94BA1287EB8B
:100E200091E0F7019183808321E031E0E20EF31E2F
:100E300080ED97E0FC01CE9EC001CF9E900DDE9E1E
:100E4000900D1124F701918380830F91FF90EF9013
:100E5000DF90CF900895FC0180E290E4918380833D
:100E6000128286E090E0948383831682158208952F
:100E7000FC0180E290E491838083128286E090E01E
:100E80009483838316821582089508950895FC0142
:100E900083819481748363830895FC0185819681A5
:100EA000768365830895FC0180E290E493838283D6
:100EB000148286E090E096838583108617828DEBFE
:100EC00091E0918380830895FC0180E290E4938314
:100ED0008283148286E090E0968385831086178251
:100EE0008DEB91E0918380830895FC01148286E06C
:100EF00090E096838583108617828DEB91E0918335
:100F000080837387628780E28187138212820895CB
:100F1000FC01148286E090E0968385831086178218
:100F20008DEB91E0918380837387628780E2818774
:100F3000138212820895FC018DEB91E091838083EE
:100F40000895FC018DEB91E0918380830895FC016D
:100F50007387628780E28187138212820895FC0181
:100F600082859385738762870895FC0181856187F7
:100F70000895FC018281682B82859385892B09F471
:100F80006160628313820895FC018DEB91E091838F
:100F90008083CF010E94D40E08950F931F93182FC2
:100FA000092FFB010995812F902F1F910F91089513
:100FB0000F931F93182F092FFB010995812F902F55
:100FC0001F910F9108950F931F93CF93DF93EC011F
:100FD0008B018A859B850E94680C9C018FEF2F3FB7
:100FE000380759F41D861C86CE0162E00E94B907BD
:100FF000CE0164E00E94B9070AC081E090E09D87BD
:101000008C87F80120838A859B850E94650CCE0120
:10101000DF91CF911F910F9108950F931F93182F78
:10102000092F0E94E307812F902F1F910F910895A0
:10103000EF92FF920F931F93DF93CF930F92CDB751
:10104000DEB7F82EE92E8B01BE016F5F7F4F0E9445
:10105000E3078981F80180838F2D9E2D0F90CF911A
:10106000DF911F910F91FF90EF9008950F931F93C1
:10107000182F092F0E94E307812F902F1F910F91A6
:1010800008950F931F93CF93DF93EC018A859B857F
:101090000E94680C8C018FEF0F3F180739F41D86F2
:1010A0001C86CE0162E00E94B90708C081E090E092
:1010B0009D878C878A859B850E94650CC801DF917E
:1010C000CF911F910F910895FC0185EC91E09183E0
:1010D0008083CF010E949B070895FC0185EC91E07D
:1010E00091838083CF010E949B0708950F931F93E4
:1010F0008C0185EC91E0F80191838083C8010E9406
:101100009B07C8010E94D40E1F910F910895EF9282
:10111000FF920F931F938C017B010E94530785EC74
:1011200091E0F8019183808315861486C801B70188
:101130000E94A7071F910F91FF90EF900895EF92E3
:10114000FF920F931F938C017B010E94530785EC44
:1011500091E0F8019183808315861486C801B70158
:101160000E94A7071F910F91FF90EF900895CF93D2
:10117000DF93EC018A859B85009749F00E947E0CE5
:101180008F5F9F4F21F4CE0162E00E94B907CE012C
:10119000DF91CF9108950F931F93182F092FDB0133
:1011A0000D900020E9F71197A61BB70BAD010E9427
:1011B000B708812F902F1F910F9108950F931F93C0
:1011C000182F092FDB010D900020E9F71197A61BBE
:1011D000B70BAD010E94B708812F902F1F910F917F
:1011E00008950F931F93182F092FDB010D900020F6
:1011F000E9F71197A61BB70BAD010E94B708812F25
:10120000902F1F910F910895CF93DF93EC01AA8542
:10121000BB85109779F0ED91FC9111970284F385CD
:10122000E02DCD0109958F5F9F4F21F4CE0161E044
:101230000E94B907CE01DF91CF9108950F931F93BC
:10124000182F092F0E940409812F902F1F910F91B1
:101250000895CF93DF93EC018A859B85009749F031
:101260000E94750C8F5F9F4F21F4CE0162E00E94B7
:10127000B907CE01DF91CF9108950F931F93182FD7
:10128000092F60E00E942909812F902F1F910F9153
:1012900008950F931F93182F092F6DE00E942909BD
:1012A000812F902F6AE00E942909812F902F0E94A0
:1012B0000409812F902F1F910F9108950F931F9371
:1012C000182F092F0E942909812F902F1F910F910C
:1012D00008950F931F93182F092F0E942909812F1A
:1012E000902F1F910F9108950F931F93182F092F7F
:1012F0000E942909812F902F1F910F910895CF935C
:10130000DF93EC018A8184FF10C0662331F0CE01A7
:1013100069EC71E044E050E005C0CE016EEC71E094
:1013200045E050E00E94B70809C0662319F0CE01DD
:1013300061E302C0CE0160E30E9429098A819B819A
:1013400096FF03C0CE010E940409CE01DF91CF9128
:1013500008958F929F92AF92BF92CF92DF92EF92B9
:10136000FF920F931F93DF93CF93CDB7DEB72A97EA
:101370000FB6F894DEBF0FBECDBF4C017A018B01D2
:10138000FC01A780B08482819381AC01407E5070C3
:101390004038510509F0A9C095FD03C040E2D42EA4
:1013A00001C0DD2492FF0AC0C40160E30E94290944
:1013B000F8E5DF0EC4016D2D0E942909812F9927C0
:1013C000AA27BB27D82EA114B10421F088E0A816C3
:1013D000B10474F06D2D62956F706A3010F4605D29
:1013E00001C0695CC4010E942909A114B10421F063
:1013F000E7E0AE16B10454F06D2D6F706A3010F452
:10140000605D01C0695CC4010E942909C801AA2766
:10141000BB27D82EA114B10421F0F6E0AF16B10419
:1014200074F06D2D62956F706A3010F4605D01C0CC
:10143000695CC4010E942909A114B10421F085E06E
:10144000A816B10454F06D2D6F706A3010F4605D11
:1014500001C0695CC4010E942909BB27A12F902FFC
:101460008F2DD82EA114B10421F0E4E0AE16B10402
:1014700074F06D2D62956F706A3010F4605D01C07C
:10148000695CC4010E942909A114B10421F0F3E0B0
:10149000AF16B10454F06D2D6F706A3010F4605DBA
:1014A00001C0695CC4010E9429091E2DA114B10468
:1014B00021F082E0A816B1045CF0612F62956F7094
:1014C0006A3010F4605D01C0695CC4010E942909A2
:1014D000412F4F704A3018F4642F605D02C0642FB2
:1014E000695CC4010E94290961C04034510509F4B6
:1014F0005DC0222371F017FF0CC0C4016DE20E9491
:10150000290910950095F094E094E11CF11C011D4F
:10151000111D8AE0C82ED12CCC0EDD1EC801B701EA
:101520002AE030E040E050E00E94CE1F605DF6010E
:101530006083C801B7012AE030E040E050E00E943B
:10154000CE1FC901DA017C018D010894C108D108C0
:10155000CC16DD0619F7C50101970A9758F40AE081
:1015600010E00A191B097E010894E11CF11CE00E31
:10157000F11E19C000E010E09E012F5F3F4FF901FE
:10158000E00FF11F8081803371F70F5F1F4F09302B
:101590001105A9F7E8CFC401F70161917F010E940D
:1015A00029090F5F1F4F0A301105ACF3C4010296E1
:1015B00060E070E00E944D072A960FB6F894DEBFF7
:1015C0000FBECDBFCF91DF911F910F91FF90EF9094
:1015D000DF90CF90BF90AF909F908F900895CF9362
:1015E000DF93EC01AB0160E070E020E00E94A9090C
:1015F0008A819B8196FF03C0CE010E940409CE011F
:10160000DF91CF910895AF92BF92CF92DF92EF9288
:10161000FF920F931F93DF93CF9300D000D00F92D0
:10162000CDB7DEB75C017B01FC01C780D08482812D
:1016300093819C01207E30702038310509F052C022
:1016400095FD02C010E201C010E092FF09C0C50183
:1016500060E30E942909185AC501612F0E942909D7
:101660001F2DC114D10421F0F4E0CF16D10474F081
:10167000612F62956F706A3010F4605D01C0695C23
:10168000C5010E942909C114D10421F083E0C816C4
:10169000D10454F0612F6F706A3010F4605D01C0A6
:1016A000695CC5010E9429091E2DC114D10421F0D5
:1016B000E2E0CE16D1045CF0612F62956F706A3063
:1016C00010F4605D01C0695CC5010E942909612FA9
:1016D0006F706A3010F4605D01C0695CC5010E94E2
:1016E00029094EC02034310509F44AC0442351F081
:1016F00077FF08C0C5016DE20E942909F094E194CA
:10170000F108F394FE013596C7016AE070E00E948B
:10171000BA1F805D8083C7016AE070E00E94BA1F33
:101720007B013197EC17FD0779F7C6010197059703
:1017300058F405E010E00C191D097E010894E11C25
:10174000F11CE00EF11E19C000E010E09E012F5FB9
:101750003F4FF901E00FF11F8081803371F70F5F78
:101760001F4F04301105A9F7E8CFC501F7016191BA
:101770007F010E9429090F5F1F4F05301105ACF34F
:10178000C501029660E070E00E944D070F900F9037
:101790000F900F900F90CF91DF911F910F91FF90BD
:1017A000EF90DF90CF90BF90AF9008950F931F936D
:1017B000182F092F40E00E94030B812F902F1F91BB
:1017C0000F9108950F931F93182F092F41E00E9446
:1017D000030B812F902F1F910F9108950F931F934B
:1017E000182F092F41E00E94030B812F902F1F918A
:1017F0000F9108950F931F93182F092F40E00E9417
:10180000030B812F902F1F910F910895FC0188EDFC
:1018100091E091838083CF010E949B070895FC0192
:1018200088ED91E091838083CF010E949B0708950A
:101830000F931F938C0188ED91E0F80191838083D1
:10184000C8010E949B07C8010E94D40E1F910F91EE
:1018500008950F931F938C010E94750788ED91E006
:10186000F801918380831F910F9108950F931F9327
:101870008C010E94750788ED91E0F80191838083C7
:101880001F910F910895FC0180EE91E09183808378
:101890000895FC0180EE91E0918380830895FC011E
:1018A00080EE91E0918380830895FC0180EE91E0C9
:1018B000918380830895FC01A081B1811C962D91B4
:1018C0003C911D97F901099508958FEF9FEF0895B9
:1018D000FC01A081B18150962D913C915197F90165
:1018E000099508950E94680C0895DC01ED91FC9122
:1018F000008CF18DE02D70E009950895DC01ED91EB
:10190000FC910688F789E02D09950895DC01ED9199
:10191000FC910684F785E02D0995089580E090E01C
:10192000089560E070E080E090E0089560E070E08D
:1019300080E090E0089580E090E0089580E090E0FD
:10194000089580E090E008958FEF9FEF0895FC01E7
:10195000A081B18150962D913C915197F901099543
:101960000895CB010895CF92DF92EF92FF920F93EB
:101970001F93CF93DF936C017B018A01C0E0D0E01D
:101980000BC0F701EC0FFD1FC60160810E94750CB2
:101990008F5F9F4F29F02196C017D10794F3E8017C
:1019A000CE01DF91CF911F910F91FF90EF90DF90CB
:1019B000CF900895CB010895FC0180EE91E09183D2
:1019C0008083CF010E94D40E0895089508950F9347
:1019D0001F93FC0171836083538342833783268383
:1019E00011870087758764877387628715821482E1
:1019F0001F910F9108950F931F93FC0171836083D2
:101A000053834283378326831187008775876487D2
:101A100073876287158214821F910F9108950F9327
:101A20001F93FC0171836083538342833783268332
:101A30001187008775876487738762871582148290
:101A40001F910F910895FC01808191819587848772
:101A500093878287158214820895DC011A96ED918E
:101A6000FC911B9761931B96FC93EE931A972D9113
:101A70003C911197E21BF30B12968D919C91139759
:101A8000E817F90720F01B963C932E931A971496AB
:101A90008D919C911597019615969C938E93149712
:101AA0000895DC011C96ED91FC911D9741911D96C6
:101AB000FC93EE931C972D913C911197E21BF30B35
:101AC00012968D919C911397E817F90720F01D96B7
:101AD0003C932E931C9714968D919C91159701978A
:101AE00015969C938E931497842F0895FC0171830F
:101AF0006083538342830895FC0171836083538321
:101B00004283089508950895FC0180819181958311
:101B100084830895CF93DF93EC01AC81BD818C91D8
:101B2000803211F0893021F41196BD83AC83F5CF5A
:101B3000882369F0EC81FD818081882351F0803217
:101B400061F0893051F03196FD83EC83F3CFA0E052
:101B5000B0E0CD01DF91CF9108951192FD83EC8328
:101B6000F8CFFB01DA0180E017C0282F2295207FF3
:101B7000892F80538A3070F0892F8156863010F477
:101B8000865F08C0892F8154863010F08FEF08954A
:101B9000892F8753822B31969081992331F78C932B
:101BA00080E00895EF92FF920F931F93FB01DA01FB
:101BB00020E030E040E050E02DC079018A0184E06F
:101BC000EE0CFF1C001F111F8A95D1F7892F80533F
:101BD0008A3020F4892F90E0C09712C0892F815657
:101BE000863028F4892F90E08755904009C0892FCE
:101BF0008154863010F08FEF16C0892F90E0C79780
:101C00009C01442737FD4095542F2E293F29402B16
:101C1000512B31969081992381F62D933D934D93CD
:101C20005C93139780E01F910F91FF90EF900895C0
:101C3000AF92BF92CF92DF92EF92FF920F931F93DA
:101C4000CF93DF936C015B017A01FC01008111816C
:101C5000C7010E940409C5010E944108EC0197FDDB
:101C600045C08D309105D1F18A309105B9F1F60169
:101C700080819181C830D10591F480179107E8F4F3
:101C8000C70168E00E942909C70160E20E94290992
:101C9000C70168E00E9429090150104014C0980152
:101CA000281B390BF6018281938102972817390787
:101CB00020F4F801C1938F0106C0C70167E00E94BC
:101CC0002909C7E0D0E0CE0180978F35910508F053
:101CD000BFCFC7016C2F0E942909BACFF80110822B
:101CE000F60180819181E801C81BD90BCE01DF91FB
:101CF000CF911F910F91FF90EF90DF90CF90BF9009
:101D0000AF900895FC018EEF91E091838083CF0125
:101D10000E944F0C089581309105A1F46F5F7F4FB1
:101D2000F1F486E496E00E94430C8EEF91E09093EC
:101D300047068093460688E496E066E476E00E94D3
:101D4000290C0895892B59F46F5F7F4F41F488E483
:101D500096E00E94060C86E496E00E94820E0895AA
:101D600080E090E06FEF7FEF0E948B0E089581E09E
:101D700090E06FEF7FEF0E948B0E08950F931F93FB
:101D80008C018EEF91E0F80191838083C8010E945D
:101D90004F0CC8010E94D40E1F910F91089584B773
:101DA00014BE80935406089508950E94261184B7A6
:101DB00014BE809354060E94DE0E089510925B06B6
:101DC00010925C0681E080935D0610925E06089595
:101DD000A89580915D06882369F420915906309179
:101DE0005A0680915706909158062817390711F026
:101DF00090E006C090E080917706823008F091E094
:101E0000892F0895FC0180915E0690E0E817F9079C
:101E10001CF020E030E006C0EE0FFF1FE15AF94F42
:101E200020813181C9010895089510927906109298
:101E3000780610927B0610927A0610927D06109218
:101E40007C0610927F0610927E0610927706089507
:101E5000109279061092780610927B0610927A06FC
:101E600010927D0610927C0610927F0610927E06DC
:101E70001092770608951F93CF93DF93BC011091C2
:101E80007706412F50E0C8E7D6E0FE0120E030E0C1
:101E900007C0819191918617970779F12F5F3F4F86
:101EA00024173507B4F324C0E991F9918285891785
:101EB00028F01196A417B507BCF310C0FA01EE0F75
:101EC000FF1FEA58F94F07C041505040808191816F
:101ED000938382833297A417B507B4F3AA0FBB1F6D
:101EE000A858B94F6D937C931F5F1093770605C078
:101EF000FB019285A0E0B0E0DDCFDF91CF911F9193
:101F000008951F939C010FB6F8940F9210915E06EE
:101F1000143010F01FEF13C0E12FF0E0EE0FFF1FA1
:101F2000E15AF94F918380831F5F10935E06115031
:101F300080915B06882319F0C9010E943B0F0F9026
:101F40000FBE812F1F910895DC018091570690915B
:101F50005806A817B90741F160917706462F50E05F
:101F6000E8E7F6E020E030E007C0819191918A1720
:101F70009B0731F02F5F3F4F24173507B4F30895C7
:101F8000F901EE0FFF1FE858F94F4150504006C0CD
:101F90002F5F3F4F8281938181939193241735075F
:101FA000BCF36150609377060895A89580915C0614
:101FB000E0915906F0915A06882319F50FB6F89466
:101FC0000F92CF010E94A40FE0915906F0915A069A
:101FD0008481882331F48581882319F4CF010E94FC
:101FE0003B0F809178069091790690935A068093E2
:101FF0005906029690935606809355060F900FBE91
:10200000089581E090E09187808708950F920FB640
:10201000F8940F921F9211242F923F924F925F9249
:102020006F927F928F929F92AF92BF92CF92DF92E8
:10203000EF92FF920F931F932F933F934F935F93D2
:102040006F937F938F939F93AF93BF93CF93DF93C0
:10205000EF93FF93A0915506B09156060DB60D92E1
:102060000EB60D920E94D50FA0915506B09156065E
:10207000CD91CDBFDD91DEBFFF91EF91DF91CF918B
:10208000BF91AF919F918F917F916F915F914F9190
:102090003F912F911F910F91FF90EF90DF90CF9084
:1020A000BF90AF909F908F907F906F905F904F9078
:1020B0003F902F901F900F900FBE0F90789408952F
:1020C000FFCFBC0180917706482F50E0E8E7F6E0AB
:1020D00020E030E007C0819191918617970739F091
:1020E0002F5F3F4F24173507B4F32FEF3FEFC901A0
:1020F000089587E696E00E9401158FE696E00E941B
:10210000B1140895AF92BF92CF92DF92EF92FF92F7
:102110000F931F93CF93DF935C016B01EFE5EE2EDE
:10212000E6E0FE2EC0E0D0E000E010E011C0F701D4
:1021300080819181009731F0B501A6010E94E711DD
:10214000C80FD91F0F5F1F4F82E090E0E80EF91E05
:1021500080915E0690E0081719074CF3CE01DF91DD
:10216000CF911F910F91FF90EF90DF90CF90BF9094
:10217000AF900895BC018091590690915A060E9433
:10218000D011882309F45BC00F920FB6F8940F9218
:102190001F9211242F923F924F925F926F927F92E3
:1021A0008F929F92AF92BF92CF92DF92EF92FF9267
:1021B0000F931F932F933F934F935F936F937F934F
:1021C0008F939F93AF93BF93CF93DF93EF93FF933F
:1021D000A0915506B09156060DB60D920EB60D9211
:1021E0000E94D50FA0915506B0915606CD91CDBF56
:1021F000DD91DEBFFF91EF91DF91CF91BF91AF9164
:102200009F918F917F916F915F914F913F912F910E
:102210001F910F91FF90EF90DF90CF90BF90AF9004
:102220009F908F907F906F905F904F903F902F90F6
:102230001F900F900FBE0F9078940895FFCFE091FC
:102240005906F0915A06808591850895FFE5EF2E95
:10225000F6E0FF2E00E010E01AC0F701C081D18146
:10226000CE010E94CA11882319F4CE010E943B0FAF
:10227000CE010E94C711882321F4D0935806C09341
:1022800057060F5F1F4F82E090E0E80EF91E809125
:102290005E0690E00817190704F3809157069091A5
:1022A0005806892BB1F08091780690917906909329
:1022B0005A068093590602969093560680935506C7
:1022C0000E94FE140E94821B81E080935B060E94A4
:1022D000481BFFCFDC01ED91FC910190F081E02DD6
:1022E000099528E088E190E00FB6F894A8958093CE
:1022F00060000FBE20936000F894FFCFFFCFFC0179
:10230000848595850895FC01828993890895FC014F
:10231000828193810895FC018489958908959C01A7
:102320002E5F3F4FC9010895FC0162870895FC01AB
:10233000778366830895FC01648975890288F3892F
:10234000E02D20E030E003C02F5F3F4F3196AB011E
:10235000421B530B2617370718F480818A35A1F3E7
:10236000CA010895FC01838590E00895DC0112966E
:10237000ED91FC91139723A130E092A180E0282BEE
:10238000392BC9010895FC01868197810895FC01CC
:1023900082850895FC0184810895FC01858108955A
:1023A000FC0180915C06882329F081E090E0918710
:1023B000808706C08FEF6F3F780721F471876087B1
:1023C00080E008957783668381E085830895FC012A
:1023D0008FEF6F3F780719F420E030E023C00FB68D
:1023E000F8940F9285818823C9F084818823B1F401
:1023F00086819781009729F08617970711F0672B40
:1024000069F415828FEF9FEF97838683518740870A
:10241000CF010E943B0F21E030E002C020E030E01D
:102420000F900FBEC9010895FC010FB6F8940F92EA
:1024300014820E943B0F0F900FBE0895FC010FB64F
:10244000F8940F9281E08483CF010E94A40F0F9033
:102450000FBE08958F929F92AF92BF92CF92EF924C
:10246000FF920F931F93CF93DF93EC015A01490121
:102470000115110599F1E114F10481F1411551059E
:1024800069F16115710551F17D876C875F874E8712
:102490001B8B0A8BFD8AEC8ACA86398B288B8FEFBF
:1024A0009FEF9F838E83998788871C821D82CE0130
:1024B0000E94810F8B87C8016AE570E0A7010E9426
:1024C000F61F0894E108F108C8018E0D9F1DB501A3
:1024D000A4012B850E94FF1A9B838A83DF91CF91F1
:1024E0001F910F91FF90EF90CF90BF90AF909F9072
:1024F0008F900895CF92EF92FF920F931F93FC015C
:102500008CE192E091838083CF010E942A121F9177
:102510000F91FF90EF90CF900895CF92EF92FF929E
:102520000F931F93FC018CE192E091838083CF0194
:102530000E942A121F910F91FF90EF90CF90089563
:10254000CF92EF92FF920F931F93FC01DA01790172
:10255000C02E8CE192E091838083CF014AE651E165
:102560009F018D010E942A121F910F91FF90EF9001
:10257000CF900895CF92EF92FF920F931F93FC019B
:10258000DA017901C02E8CE192E091838083CF0142
:102590004AE651E19F018D010E942A121F910F917D
:1025A000FF90EF90CF9008950FB6F8940F92179880
:1025B0000F900FBE83B7817F83BF88950E9406105E
:1025C000F3CFEF92FF920F937C01AC014A5E5F4F15
:1025D0006EE172E027E830E000E00E94BA1287E284
:1025E00092E0F701918380830F91FF90EF9008951F
:1025F00080E896E00E94E1120895EF92FF920F9317
:102600007C01AC014A5E5F4F6EE172E027E830E08A
:1026100000E00E94BA1287E292E0F7019183808382
:102620000F91FF90EF900895FC01718360835383B5
:102630004283158214820895FC0171836083538361
:1026400042831582148208956F927F928F929F9297
:10265000AF92BF92CF92DF92EF92FF920F931F93B0
:10266000CF93DF936C017B015A014901611571051C
:1026700009F45FC0DC011496ED91FC911597129658
:102680008D919C911397E817F90709F452C00D90AA
:10269000BC91A02D1E161F06CCF5AD0100E010E088
:1026A000EA0188819981E816F90628F48E199F09B4
:1026B0009983888309C0E81AF90A0F5F1F4F4A5FA0
:1026C0005F4F0E171F0764F3CF01880F991F8E0FFE
:1026D0009F1F880F991F8A0F9B1F9F0113C0BC016A
:1026E000AAEF6A2EAFEF7A2E680E791EA6E0E301FC
:1026F00009903E01EB010992BE01A150C1F72150A2
:10270000304006970217130754F3DA011196FC9232
:10271000EE921396BC92AE92129715969C928E9260
:1027200014973196D6011596FC93EE93149781E099
:1027300001C080E0DF91CF911F910F91FF90EF904A
:10274000DF90CF90BF90AF909F908F907F906F90D1
:1027500008956115710539F00FB6F8940F920E9433
:1027600024130F900FBE08950F931F93CF93DF9301
:10277000EC014C815D81141615062CF54130510594
:10278000F1F0CB01880F991F860F971F880F991FB3
:1027900028813981280F391F8A01015010400AC051
:1027A000D9011697F90186E001900D928150E1F769
:1027B0006F5F7F4F2A5F3F4F601771078CF3415067
:1027C00050405D834C83DF91CF911F910F9108950D
:1027D0008F929F92AF92BF92CF92DF92EF92FF9231
:1027E0000F931F93CF93DF936C014B010FB6F894B7
:1027F0000F92FC0124813581C081D181EE24FF2418
:1028000000E010E01EC08A819B8188169906B1F411
:10281000A880B980C601B8010E94B4130894E11CD5
:10282000F11CF601248135811216130654F48881B7
:1028300099818A0D9B1D9983888303C00F5F1F4F69
:10284000269602171307FCF20F900FBEC701DF9107
:10285000CF911F910F91FF90EF90DF90CF90BF909D
:10286000AF909F908F900895EF92FF920F931F93D8
:10287000CF93DF937C01FC018481958118161906A2
:102880000CF041C000811181F80180819181019794
:1028900091838083892BB9F5F801828193818230FD
:1028A0009105D1F4C481D581E881F9810480F58155
:1028B000E02DCE010995C70160E070E00E94B413DD
:1028C00088858823A9F06E817F81C70142E050E0AE
:1028D0009E010E9424130CC0F801648175810E943E
:1028E0008210892B29F0C70160E070E00E94B413C8
:1028F000F80180819181892B31F4F70184819581E0
:10290000181619064CF2DF91CF911F910F91FF908D
:10291000EF900895CF93DF93EA016115710519F4E3
:1029200025E030E01AC04115510521F4C091590647
:10293000D0915A060FB6F8940F92AE0120E030E025
:102940000E942413882319F426E030E004C0CE014D
:102950000E94BA109C010F900FBEC901DF91CF9168
:1029600008956DE177E043E050E00E941413109267
:10297000300710922F0708956DE177E043E050E0B3
:102980000E9414131092300710922F0708950F938E
:102990001F938C010E94801B0FB6F8940F92C80100
:1029A0000E943414F801868197810196978386836B
:1029B0000F900FBE0E94140F80912F079091300747
:1029C00001969093300780932F07885E934099F487
:1029D0001092300710922F070E94811B8FE696E01D
:1029E0000E9434148091750690917606019690931A
:1029F0007606809375061F910F9108950E94741BAF
:102A0000089561E377E043E050E00E9414130895D5
:102A100061E377E043E050E00E9414130895FC0165
:102A200080819181946091838083CF010895FC011E
:102A3000808191819B7F91838083CF010895FC01E8
:102A4000808191818F71806291838083CF0108950D
:102A5000FC01808191818F71806891838083CF0197
:102A60000895EF92FF920F931F93CF93DF93EC01A2
:102A70007B018A819B818F7180629B838A83CB01DA
:102A80000E94B211BC01CE010E94E20BCE0160E2B5
:102A90000E947409FC01828193818F719B7F806801
:102AA000946093838283CF01B7010E94D60BCE013D
:102AB00060E20E9474098C01C7010E947F11BC0171
:102AC000C8010E94F108CE0169E272E00E94F1089B
:102AD0008C01FC01828193818F7180629383828358
:102AE000C7010E94C711682FC80170E00E94FA0B4D
:102AF000CE0160E372E00E94F1088C01C7010E94E0
:102B0000B61160E0892B09F061E0C8010E947F09DD
:102B1000CE0166E372E00E94F1088C01FC01828123
:102B200093818F71806893838283C7010E94831190
:102B3000BC01C8010E94D60BCE016DE372E00E9479
:102B4000F1088C01FC01828193818F7180629383F3
:102B50008283C7010E948B11BC01C8010E94FA0B3D
:102B60006FE372E00E94F1088A819B818F71806817
:102B70009B838A83C7010E948711BC01CE010E94FA
:102B8000D60BCE016DE372E00E94F1088C01FC01CE
:102B9000828193818F71806293838283C7010E94B7
:102BA0009B11BC01C8010E94FA0B62E472E00E9412
:102BB000F108C7010E94CA11882329F0CE0164E4FC
:102BC00072E00E94F108C7010E94CD118823A1F094
:102BD000CE0160E572E00E94F1088C01FC01828167
:102BE00093818F71806893838283C7010E94C31190
:102BF000BC01C8010E94FA0B8A819B819B7F9B8349
:102C00008A83CE01DF91CF911F910F91FF90EF90BA
:102C100008950A9A129808950A9A12980895E1EF71
:102C2000F0E0208130E04081942F80E0282B392B88
:102C3000C9010895AF92BF92CF92DF92EF92FF92B7
:102C40000F931F93E1EFF0E0A080BB24CC24DD24A0
:102C500020818081E08030E040E050E0542F432F1D
:102C6000322F222790E0A0E0B0E0DC0199278827EE
:102C7000282B392B4A2B5B2B2A293B294C295D29F0
:102C8000FF2400E010E01E2D0027FF24EE242E2953
:102C90003F29402B512BB901CA011F910F91FF9081
:102CA000EF90DF90CF90BF90AF900895E1EFF0E00C
:102CB000808390830895E1EFF0E06083272F382F21
:102CC000492F552720839C01442755272083692FAE
:102CD000772788279927608308958091E800877F68
:102CE0008093E80080914F078093F1008091E80085
:102CF0008E7F8093E8008091E8008F778093E800D2
:102D00008091E80082FFFCCF8091E8008B7F809368
:102D1000E8008091E8008F778093E8000895909113
:102D2000F1008091E3009F778078982B9093E300E7
:102D30008091E800877F8093E8008091E8008E7F93
:102D40008093E8008091E80080FFFCCF8091E30051
:102D500080688093E3000895809149078823D9F122
:102D60008130C9F1823009F04BC08091F10090911F
:102D7000F1008823D9F5E091F100EF77E093E900C5
:102D80008091EB0080FF27C0EE23B1F08091EB0033
:102D900080618093EB0081E090E00E2E02C0880FEE
:102DA000991F0A94E2F78093EA001092EA0080915A
:102DB000EB0088608093EB001092E900F0E0E65BA6
:102DC000F84F10828091E800877F8093E80080911F
:102DD000E8008E7F08C08091EB0080628093EB005A
:102DE0008091E800877F8093E80008958091EB0050
:102DF00080628093EB008091E800877F8093E800F9
:102E0000089580914907813039F18230D1F5809160
:102E1000F1009091F100882351F5E091F100EF77F6
:102E2000D9F0E093E9008091EB0080FF15C080911C
:102E3000EB0080628093EB001092E900F0E0E65B2B
:102E4000F84F81E080838091E800877F8093E800DD
:102E50008091E8008E7F08C08091EB0080628093B3
:102E6000EB008091E800877F8093E80008958091CF
:102E7000EB0080628093EB008091E800877F809375
:102E8000E80008958091F1008091F100E091F10057
:102E900080914907813821F0823851F08038B1F4AF
:102EA0008091E800877F8093E8001092F10017C0BE
:102EB0008091E800877F8093E800F0E0EF77F07082
:102EC000E65BF84F80818093F10009C08091EB00B0
:102ED00080628093EB008091E800877F13C010929E
:102EE000F1008091E8008E7F8093E8008091E800F7
:102EF00082FFFCCF8091E8008B7F8093E800809177
:102F0000E8008F778093E8000895EBEEF0E0808191
:102F100080628083E8EEF0E08081877F808308957F
:102F20008091E800877F8093E8008091E8008E7FA1
:102F30008093E8008091E80080FFFCCF0895109214
:102F40004A0710924B0710924C0710924D071092AF
:102F50004E0710924F0708958093450770934707D7
:102F60006093460708950E949A1F0895109248079B
:102F70006091F1008091F100813019F0823089F484
:102F800006C082E18093450788E990E005C083E4AC
:102F9000809345078AEA90E090934707809346071D
:102FA0000DC00E94B317882349F48091EB00806222
:102FB0008093EB008091E800877F5BC08091F100F7
:102FC0008091F1003091F1002091F100922F80E08A
:102FD000232F30E0282B392B8091E800877F8093C6
:102FE000E8008091450790E08217930788F48F737B
:102FF0009070892B51F481E0809348072091460717
:1030000030914707409145071FC010924807F6CFFF
:1030100020934507F3CF8091E80080FFFCCFF901B2
:1030200090E00AC0542F5150903449F09F5F849132
:103030008093F1003196452F9F01442399F78091A9
:10304000E8008E7F8093E800442341F18091E800FE
:1030500082FFE1CF2093460730934707409345070F
:1030600023C08091E8008B7F8093E8008091E80086
:103070008F778093E800089580914807882349F06E
:103080008091E80080FFFCCF8091E8008E7F8093E4
:10309000E8008091E80082FFFCCFE3CF2093460751
:1030A00030934707109245078091E8008E7F809308
:1030B000E8008091E80082FFDFCFD3CF0E948E1E10
:1030C00008959091F100923080F48091E800877F1C
:1030D0008093E80090934F078091E8008E7F809363
:1030E000E800892F0E948E1E08958091EB00806277
:1030F0008093EB008091E800877F8093E80008953B
:103100000E94831F08959091F10090934907609168
:10311000F1006630C1F0673050F4613041F1613048
:1031200080F1633049F1653009F044C016C0693060
:10313000C9F06A3018F46830E9F50AC06A3041F124
:103140006B30C1F532C09038A9F50E94B6170895CA
:10315000903881F50E946D160895992359F50E94C3
:103160008F160895992331F50E94611808959330C0
:1031700008F50E94AC1608959330E0F40E94011700
:103180000895892F80588330A8F40E94421708952B
:10319000913881F48091EB0080628093EB00809104
:1031A000E800877F8093E8000895913019F40E9429
:1031B00090170895892F0E948018882351F48091D8
:1031C000EB0080628093EB008091E800877F809322
:1031D000E8000895FC01628B08950F931F938C0102
:1031E00082E992E0F80191838083C8010E944F0C2C
:1031F000C8010E94D40E1F910F910895FC0182E92D
:1032000092E091838083CF010E944F0C0895FC01CE
:1032100082E992E091838083CF010E944F0C089550
:103220000F931F93CF93DF93EC018B010E94E91A58
:103230008CE592E099838883198B088B012B81F4AC
:1032400081E090E0988F8F8B82E090E09A8F898F59
:1032500083E090E09C8F8B8FD0935107C0935007F1
:10326000DF91CF911F910F9108950F931F93CF93EB
:10327000DF93EC018B010E94E91A8CE592E09983BF
:103280008883198B088B012B81F481E090E0988F63
:103290008F8B82E090E09A8F898F83E090E09C8F03
:1032A0008B8FD0935107C0935007DF91CF911F911F
:1032B0000F9108959C012D5F3F4FC90108959C0116
:1032C000295F3F4FC90108959C012D5F3F4FC90100
:1032D0000895DC010FB6F8940F92ED91FC9104A0D3
:1032E000F5A1E02D09950F900FBE089581E0089596
:1032F000CF93DF93EC018A81882319F429EF3FEF04
:103300000EC00FB6F8940F92E881F98102A0F3A1E4
:10331000E02DCE0109959C010F900FBE1A82C901C4
:10332000DF91CF910895FC0182810895DC0112960E
:103330008C911297882319F429EF3FEF0EC00FB636
:10334000F8940F92ED91FC91119700A8F1A9E02D4E
:10335000CD0109959C010F900FBEC9010895DC01B4
:103360000FB6F8940F92ED91FC9100A4F1A5E02D19
:1033700009950F900FBE08950E94AF1908950E94FD
:1033800096190895FC0182E992E091838083CF0130
:103390000E944F0C08950F931F938C0182E992E0D5
:1033A000F80191838083C8010E944F0CC8010E94DC
:1033B000D40E1F910F910895CF93DF93EC018A8172
:1033C000882319F429EF3FEF3AC00FB6F8940F9213
:1033D000E881F98106A0F7A1E02DCE0109958823A7
:1033E00059F4E881F98104A0F5A1E02DCE010995F9
:1033F000882311F080E001C081E00F900FBE882388
:1034000049F48D819E810E94BA100297F1F62FEF48
:103410003FEF15C0CE010E946919882319F42EEFE1
:103420003FEF0DC00FB6F8940F92E881F98102A426
:10343000F3A5E02DCE0109959C010F900FBEC901A7
:10344000DF91CF9108950E94DC199C0197FF02C083
:103450002FEF3FEFC90108951F93CF93DF93EC0146
:10346000162F8A81882319F469EF7FEF3CC00FB6CD
:10347000F8940F92E881F98104A4F5A5E02DCE011E
:103480000995882359F4E881F98104A0F5A1E02D7C
:10349000CE010995882311F080E001C081E00F90F2
:1034A0000FBE882349F48F8198850E94BA10029735
:1034B000F1F66FEF7FEF17C0CE010E9469198823E4
:1034C00019F46EEF7FEF0FC00FB6F8940F92E881FA
:1034D000F98106A4F7A5E02DCE01612F09950F9083
:1034E0000FBE612F70E0CB01DF91CF911F91089546
:1034F0000E942C1A9C0197FF02C02FEF3FEFC901D9
:103500000895CF93DF93EC018A81882319F02AEF85
:103510003FEF45C0E881F981028CF38DE02DCE01AB
:1035200009959C838B83E881F981048CF58DE02DCE
:10353000CE0109959E838D83E881F981068CF78DF4
:10354000E02DCE01099598878F830FB6F8940F92DE
:10355000E881F98100A0F1A1E02DCE0109959C013F
:103560000F900FBE97FD1BC081E08A830FB6F894C1
:103570000F92E881F98104A0F5A1E02DCE01099513
:103580000F900FBE882319F020E030E008C08B8137
:103590009C810E94BA10029749F72FEF3FEFC901B3
:1035A000DF91CF9108950F931F938C010E94430CDC
:1035B00082E992E0F801918380838FEF9FEF9683F9
:1035C0008583908787839483838312821F910F91D1
:1035D00008950F931F938C010E94430C82E992E09F
:1035E000F801918380838FEF9FEF96838583908787
:1035F00087839483838312821F910F910895FC0126
:10360000208391E1929322E2229383E38293629357
:103610007293129280E88293129282E0829383E006
:10362000829384E0829385E0829386E0829387E0B0
:10363000829388E0829389E0829380E182939293DF
:1036400082E1829383E1829384E1829385E1829394
:1036500086E1829387E1829388E1829389E1829374
:1036600080E2829381E28293229383E28293429367
:10367000529386E2829387E2829388E2829389E280
:10368000829380E3829381E382933197CF010895FF
:10369000A0915506B0915606CD91CDBFDD91DEBF0C
:1036A000FF91EF91DF91CF91BF91AF919F918F915A
:1036B0007F916F915F914F913F912F911F910F914A
:1036C000FF90EF90DF90CF90BF90AF909F908F9042
:1036D0007F906F905F904F903F902F901F900F9032
:1036E0000FBE0F900895FFCF8CE787BD82E084BDA9
:1036F00083E885BDEEE6F0E08081826080830895F6
:103700000895089508950F920FB6F8940F921F929E
:1037100011242F923F924F925F926F927F928F92DD
:103720009F92AF92BF92CF92DF92EF92FF920F9350
:103730001F932F933F934F935F936F937F938F9339
:103740009F93AF93BF93CF93DF93EF93FF93179A1A
:10375000A0915506B09156060DB60D920EB60D927B
:1037600087E696E00E94C7140E94E80E882311F0B5
:103770000E94D50FA0915506B0915606CD91CDBFB0
:10378000DD91DEBFFF91EF91DF91CF91BF91AF91BE
:103790009F918F917F916F915F914F913F912F9169
:1037A0001F910F91FF90EF90DF90CF90BF90AF905F
:1037B0009F908F907F906F905F904F903F902F9051
:1037C0001F900F900FBE0F901895FFCF0895FC012A
:1037D000808191818F71806891838083CF0108956A
:1037E000EF92FF920F931F93CF93DF93EC017B0136
:1037F0008A819B8192FF0FC0CE0160E30E9429095C
:103800008A819B8195FF03C0CE0168E502C0CE018D
:1038100068E70E9429096F2D661F6627661F605D95
:10382000CE010E9429090A811B81C8018F719B7FEB
:1038300080689B838A83EE0CFF1CCE01B7010E9437
:10384000FA0B1B830A83CE01DF91CF911F910F9159
:10385000FF90EF9008959091EB0091609093EB00B2
:103860008093EC008091ED008270862B8093ED00B8
:103870008091ED0082608093ED008091EE00881FC2
:103880008827881F0895EF920F93982F8E2D90937D
:10389000E9006295660F660F607C642B880F000F4D
:1038A000000F2295207F202B862B622F0E942B1C3D
:1038B0000F91EF900895EF920F938091D8008F7B36
:1038C0008093D8008091D90081FF1BC01092E9003D
:1038D0008091EB0080FD15C080E060E040E023E0D7
:1038E00000E0EE24E3940E94431C282F30E02115D1
:1038F000310529F08091F00088608093F000822FDC
:1039000001C080E00F91EF9008958EE089BD09B469
:1039100000FEFDCF8091D8008F7D8093D8008091EC
:10392000E20081608093E2008091E20088608093F1
:10393000E2000E945B1C8091E0008E7F8093E0009B
:1039400010924E07089582B194E0892782B9809140
:10395000DA0080FF2FC08091D80080FF2BC08EEF4F
:103960008093DA008091D90080FF19C081E08093B4
:103970004E078091430790914407826090934407DB
:10398000809343078091E20088608093E2000E9468
:10399000851C8091E0008E7F8093E0000BC0109228
:1039A0004E078091430790914407846090934407A9
:1039B000809343078091E10082FF07C08091E2007D
:1039C00082FF03C08BEF8093E1008091E10080FFD4
:1039D0001DC08091E20080FF19C08EEF8093E1004E
:1039E0008091E20080618093E2008FEE8093E1009D
:1039F0008091D80080628093D80080914307909195
:103A00004407806290934407809343078091E100CC
:103A100084FF18C08091E2008091D8008F7D809350
:103A2000D8008FEE8093E1008091E2008F7E80933A
:103A3000E20080914307909144078064909344078B
:103A4000809343078091E10085FF1AC08091E200D6
:103A500085FF16C08091E2008F7E8093E2008FED9B
:103A60008093E1008091E2008F7D8093E20080915D
:103A700043079091440780689093440780934307DD
:103A80008091E10083FF12C08091E20083FF0EC0AD
:103A900087EF8093E1000E945B1C80914307909127
:103AA00044079160909344078093430782B194E068
:103AB000892782B908951F920F920FB60F920BB605
:103AC0000F9211242F933F934F935F936F937F93A4
:103AD0008F939F93AF93BF93EF93FF930FB6F89499
:103AE0000F92179A0F900FBE0E94A31CFF91EF91A7
:103AF000BF91AF919F918F917F916F915F914F9106
:103B00003F912F910F900BBE0F900FBE0F901F9003
:103B1000189582B194E0892782B98091F40080FFE2
:103B20000CC01092E9008091E80083FF06C08091EC
:103B3000F00083FF02C00E9483180E94FC1E82B125
:103B400094E0892782B908951F920F920FB60F92C1
:103B50000BB60F9211242F933F934F935F936F9364
:103B60007F938F939F93AF93BF93EF93FF930FB682
:103B7000F8940F92179A0F900FBE0E94891DFF9123
:103B8000EF91BF91AF919F918F917F916F915F91D5
:103B90004F913F912F910F900BBE0F900FBE0F9042
:103BA0001F901895FC0180915207882341F5809160
:103BB000D70081608093D7008091D7008F7B80935E
:103BC000D7008091D70080688093D7008091D8007B
:103BD0008F768093D8008091D80080698093D80038
:103BE0008091D8008F7B8093D8008091D80081602D
:103BF0008093D80081E0809352070A9A1298148A21
:103C0000138A168A158A128A80E090E008959C0132
:103C10002E5E3F4FC9010895FC018289089580E01E
:103C200090E0089581E008959C012D5E3F4FC90109
:103C30000895FC018289882329F46EEF7FEF1CC070
:103C40009093E9008091E800978985FFF9CF9093E0
:103C5000E9006093F100838994890196948B838BAA
:103C60008091E80085FD07C08091E8008F77809300
:103C7000E800148A138A70E0CB010895FC01828960
:103C8000882319F42EEF3FEF10C083899489892B84
:103C900051F087898093E9008091E8008F778093C5
:103CA000E800148A138A20E030E0C9010895FC017D
:103CB000818D8093E9008091F2009091F300968BC2
:103CC000858B20E0892B09F021E0822F0895FC01EB
:103CD000818D8093E9002091F2003091F300258BD3
:103CE000368BC90108959C012B5E3F4FC901089591
:103CF000FC01818D8093E9002091F1008091F20018
:103D00009091F300968B858B892B29F48091E800A4
:103D10008F778093E800822F90E00895EF920F93C1
:103D200083E063E041E022E000E0EE240E94431CD7
:103D300081E062E041E022E00E94431C82E062E018
:103D400040E022E001E00E94431C92E09093E900F1
:103D5000E0EFF0E0808184608083EAEEF0E088E0CC
:103D6000808310829083108284E0808310820F9180
:103D7000EF9008950F931F93CF93DF930E940F1638
:103D80008C010E940F16EC01B80161707070062F53
:103D9000009731F480915007909151070E94EA18E2
:103DA000002351F01298CD2BA1F4E0915007F0912F
:103DB00051078381948109C0129ACD2B51F4E0916F
:103DC0005007F09151078581968160E070E00E9474
:103DD00082108091E800877F8093E8008091E8005E
:103DE0008E7F8093E8008091E80080FFFCCFDF9118
:103DF000CF911F910F9108958091F40082FF1AC016
:103E000082E08093E9008091E80082FF13C08091F6
:103E1000F00082FF0FC08091E8008B7F8093E80064
:103E2000E0915007F09151078581968160E070E044
:103E30000E9482100895CF93DF93EC010E940F1629
:103E40000E940F168091E800877F8093E8008091A0
:103E5000E80082FFFCCF0E941A1669877A878B8759
:103E60009C878091F1008D878091F1008E878091F1
:103E7000F1008F878091E8008B7F8093E80080912C
:103E8000E8008F778093E8008091E8008E7F809330
:103E9000E8008091E80080FFFCCFDF91CF9108958A
:103EA0000F931F938C018091E800877F8093E80037
:103EB000F80161857285838594850E945B16F801FF
:103EC00085858093F10086858093F10087858093B6
:103ED000F1008091E8008E7F8093E8008091E800F7
:103EE00080FFFCCF8091E80082FFFCCF8091E8004A
:103EF0008B7F8093E8008091E8008F778093E800C3
:103F00001F910F9108958091500790915107613250
:103F100031F0623259F0603229F080E008950E9459
:103F2000501F02C00E941B1F81E008950E94BA1E0C
:103F300081E008958330E1F4613059F0613028F078
:103F4000623059F06330A1F40CC084E06DEE70E093
:103F50000BC084E361EF70E007C08AE265E271E0C4
:103F600003C08CE06FE471E00E94AC1781E008951B
:103F700080E00895AA1BBB1B51E107C0AA1FBB1F0D
:103F8000A617B70710F0A61BB70B881F991F5A95E5
:103F9000A9F780959095BC01CD010895A1E21A2E54
:103FA000AA1BBB1BFD010DC0AA1FBB1FEE1FFF1FDD
:103FB000A217B307E407F50720F0A21BB30BE40B2D
:103FC000F50B661F771F881F991F1A9469F7609574
:103FD0007095809590959B01AC01BD01CF0108952E
:103FE000EE0FFF1F0590F491E02D0994DC0101C054
:103FF0006D9341505040E0F7089511E0C4E6D1E0E0
:1040000004C0FE010E94F21F2296C836D107C9F7EC
:04401000F894FFCF52
:1040140000000000140203028E0C910C960CBF19D0
:10402400BC19A10C231AA70CB10CB30C781A01010A
:1040340036011A01F00104010C0122012B013B019C
:104044000E0140011F01646973636F6E6E656374D2
:104054006564006572726F72202D00000000006CB0
:1040640004737400436D643F003E2000646973630D
:104074006F6E6E6563746564006572726F72202D75
:1040840000000000006C05696E7075740075736241
:1040940000626C696E6B00415649205553422D49AC
:1040A40032432076322E332E313734302C2046657D
:1040B4006220323420323031312031373A31323AD1
:1040C40035370000000000560600000000A107C4B8
:1040D4000700000000640876087472756500666164
:1040E4006C73650000000000060C180C0000000052
:1040F400550CDC0C8E0C910C960C9B0C9E0CA10C9C
:10410400A40CA70CB10CB30CDA0C00000000820E56
:10411400BE0E8E0C910C960C9B0C9E0CA10CA40C48
:10412400A70CB10CB30CDA0C000000007E1149445A
:104134004C450000000000D4122C207072693D0030
:104144002C2050433D002C2073746B3D005B005DBC
:1041540020005D002C2073757370656E64656400C7
:104164002C20776169743D0000000000FE18ED18F2
:104174008E0C910C960CBF19BC19A10C231AA70C18
:10418400B10CB30C781A071E731E141ED21D0F1E19
:104194000C1E571E671E781E121E191E3E1E00009E
:1041A4000000C219CB198E0C910C960CBF19BC19C6
:1041B400A10C231AA70CB10CB30C781A5A19641960
:1041C4005F19E61BE61B7619E61BE61BE61BE61BDE
:0441D400E61BE61BE5
:00000001FF
