:100000000C94B9000C9404010C9404010C940401A8
:100010000C9404010C9404010C9404010C9404014C
:100020000C9404010C9404010C94FF1E0C94BD214B
:100030000C9404010C9404010C9404010C9404012C
:100040000C9404010C9404010C9404010C9404011C
:100050000C9404010C94251D0C9404010C940401CF
:100060000C9404010C9404010C9404010C940401FC
:100070000C9404010C9404010C9404010C940401EC
:100080000C9404010C9404010C9404010C940401DC
:100090000C94B9010C94040112010002020000400A
:1000A000EB031820001001020301090243000201C2
:1000B0000080320904000001020201000524001042
:1000C000010524010301042402060524060001079A
:1000D0000583032000FF09040100020A0000000755
:1000E0000581022000000705020220000004030928
:1000F0000434034100760069006100740069006FF8
:10010000006E00200049006E0073007400720075DC
:10011000006D0065006E0074007300200049006EE1
:100120000074006C00280341005600520038002083
:1001300000410054003900300055005300420031A6
:10014000003200380020004300440043001C03310B
:10015000002E0030002E0030002E0030002E003027
:10016000002E0030002E0041000054065C112414C3
:100170004D0611241FBECFEFD0E2DEBFCDBFF894F5
:100180002FE088E190E00FB6F894A8958093600086
:100190000FBE2093600017980F9A179A80E090E0A6
:1001A00020E80FB6F89420936100809361000FBEA1
:1001B00083B7817F83BF83B7816083BF12E0A0E0F4
:1001C000B1E0E6ECF8E400E00BBF02C007900D924E
:1001D000A43BB107D9F71BE0A4EBB2E001C01D922C
:1001E000AD3CB107E1F70E94AE0E11E0C0E7D1E0EF
:1001F00004C02297FE010E944224CA36D107C9F7E3
:100200000E94B70E0C9456240C9400008FEF9FEFC1
:100210000895FC0115A614A61092BC008AB18C7F2B
:100220008AB980E090E0089581E00895FC01248976
:10023000358940E0828993892817390709F041E020
:10024000842F08959C01205F3F4FC9010895FC0150
:100250008489958980E090E00895FC0182A193A1B2
:1002600020E0892B09F021E0822F0895FC0122A1D2
:1002700033A1C90108959C01225E3F4FC901089531
:10028000DC019C968D919C919D970097A1F0019621
:100290009D969C938E939C97815D974060F0ED9125
:1002A000FC911197068CF78DE02DCD01099562E048
:1002B00070E00E94681108954E960E94800C90E0B4
:1002C0000895CF93DF93EC018091B9008C7F803843
:1002D000B9F0813820F4803609F043C005C0883871
:1002E00059F1803AF1F52BC081E090E09DA78CA7F1
:1002F0002AA13BA188A199A12817390769F518C03F
:1003000081E090E09DA78CA72AA13BA188A199A19B
:100310002817390769F06091BB00CE014E960E9404
:10032000580C2AA13BA188A199A12817390749F4A3
:100330008091BC008F7B13C08091BB000DC01DA6B7
:100340001CA6E881F981068CF78DE02DCE01099578
:1003500060E070E00E9468118091BC00806480932E
:10036000BC008091BC0080688093BC00DF91CF917D
:1003700008950F920FB6F8940F921F9211242F92A6
:100380003F924F925F926F927F928F929F92AF9225
:10039000BF92CF92DF92EF92FF920F931F932F9312
:1003A0003F934F935F936F937F938F939F93AF93FD
:1003B000BF93CF93DF93EF93FF93179AA091AB0A6C
:1003C000B091AC0A0DB60D920EB60D928091B402AA
:1003D0009091B5020E9461010E948E0F882311F056
:1003E0000E94AE10A091AB0AB091AC0ACD91CDBFE6
:1003F000DD91DEBFFF91EF91DF91CF91BF91AF9182
:100400009F918F917F916F915F914F913F912F912C
:100410001F910F91FF90EF90DF90CF90BF90AF9022
:100420009F908F907F906F905F904F903F902F9014
:100430001F900F900FBE0F901895FFCFFF920F9354
:100440001F938C01F62E40960E94580CF801848967
:1004500095898F2D90E01F910F91FF900895FC01D9
:1004600015A614A682E08093B8001092B90080E52A
:100470008093BA001092BD0085E48093BC00CF0148
:100480004E960E944C0C80E090E008950F931F93CD
:100490008C018AE792E0F80191838083C8010E9471
:1004A0004B0BC8010E94AC0E1F910F910895FC01E7
:1004B0008AE792E091838083CF010E944B0B0895DD
:1004C000FC018AE792E091838083CF010E944B0B6D
:1004D00008956F927F928F929F92AF92BF92CF9228
:1004E000DF92EF92FF920F931F935C014B017A0111
:1004F000390168010E94891C84E091E0F501918333
:1005000080839701220F331F2E0D3F1D36952795AF
:1005100036952795C5014096B401A701F694E79456
:10052000F694E79487010E94FC0B9601220F331F7B
:100530002C0D3D1D3695279536952795C5014E9670
:10054000B301A601D694C794D694C79486010E949D
:10055000FC0BF50115A614A6B092B502A092B40248
:100560001F910F91FF90EF90DF90CF90BF90AF90D1
:100570009F908F907F906F9008956F927F928F924F
:100580009F92AF92BF92CF92DF92EF92FF920F9322
:100590001F935C014B017A01390168010E94891C9B
:1005A00084E091E0F501918380839701220F331F4E
:1005B0002E0D3F1D3695279536952795C5014096FA
:1005C000B401A701F694E794F694E79487010E949A
:1005D000FC0B9601220F331F2C0D3D1D36952795E0
:1005E00036952795C5014E96B301A601D694C794BA
:1005F000D694C79486010E94FC0BF50115A614A69B
:10060000B092B502A092B4021F910F91FF90EF90AB
:10061000DF90CF90BF90AF909F908F907F906F9022
:1006200008952F923F924F925F926F927F928F9296
:100630009F92AF92BF92CF92DF92EF92FF920F9371
:100640001F93DF93CF9300D0CDB7DEB73C012B01D2
:100650001A013A8329830E94891C84E091E0F30106
:1006600091838083C3014096B201A10129813A811F
:100670000E94FC0BC3014E96B701A60195018401AF
:100680000E94FC0BF30115A614A67092B5026092AD
:10069000B4020F900F90CF91DF911F910F91FF90B7
:1006A000EF90DF90CF90BF90AF909F908F907F9012
:1006B0006F905F904F903F902F9008952F923F92B0
:1006C0004F925F926F927F928F929F92AF92BF9262
:1006D000CF92DF92EF92FF920F931F93DF93CF930E
:1006E00000D0CDB7DEB73C012B011A013A83298334
:1006F0000E94891C84E091E0F30191838083C3010F
:100700004096B201A10129813A810E94FC0BC301EC
:100710004E96B701A601950184010E94FC0BF301DE
:1007200015A614A67092B5026092B4020F900F90B5
:10073000CF91DF911F910F91FF90EF90DF90CF90BD
:10074000BF90AF909F908F907F906F905F904F90F1
:100750003F902F900895FC01808191819460918356
:100760008083CF010895FC01808191818F71806227
:1007700091838083CF010895FC01808191818F71E5
:10078000806891838083CF010895AF92BF92CF920A
:10079000DF92EF92FF920F931F93CF93DF936C0141
:1007A0008C0105511F4FC8010E94A90DC8010E946C
:1007B000AF0DFC01009709F449C0E601C152DF4FBB
:1007C00080818F33E1F18062833741F58181882315
:1007D00079F18062843761F58091B30AA82EBB2439
:1007E00000E010E017C0C8010E94A80F7C01CE01F4
:1007F0000E948E09EC14FD0419F4CE016AE202C0D5
:10080000CE0160E20E94B909CE01B7010E9426170D
:100810000F5F1F4F0A151B0534F318C0843741F4CE
:100820008181882329F08062813381F0823371F0E5
:10083000CE010E948E0969E471E00E943609CE0162
:100840000E948E0966E471E00E943609DF91CF9123
:100850001F910F91FF90EF90DF90CF90BF90AF90DE
:1008600008958F929F92AF92BF92CF92DF92EF92B4
:10087000FF920F931F93CF93DF93EC01C153DF4F90
:10088000E880F980CF5CD04021ED822E912C8C0E37
:100890009D1E8E0101521F4F9BEEA92EB12CAC0E56
:1008A000BD1E81EFC82ED12CCC0EDD1EC7010E94CB
:1008B000EC1B8091AA0A8F5F8093AA0AC8010E944C
:1008C0008E090E948E0967E671E00E9436090E9437
:1008D0008E098091AA0A81508093AA0A19C0C80182
:1008E0000E948E096EE471E00E943609C501B401D0
:1008F000A8010E943D0E2FEF8F3F920771F0EFEF9E
:100900008E3F9E0751F097FD08C0CE010E94C5039F
:10091000C7010E94DF18882311F7C7010E94EB1856
:10092000F601808191810E94EB18F601808191810E
:100930000E94EC1BBBCFAF92BF92CF92DF92EF929F
:10094000FF920F931F937C016A015901AC014A5E2B
:100950005F4F29EB30E000E80E94E61384E491E069
:10096000F70191838083870101531F4FF801D182E2
:10097000C082C7018F529F4FB6010E94CC08F80178
:1009800060817181C70181529F4F0E94250BC70171
:1009900085519F4F23EF30E0E20EF31EB70140E593
:1009A00050E00E94A10DF701B292A2921F910F9107
:1009B000FF90EF90DF90CF90BF90AF900895AF92EF
:1009C000BF92CF92DF92EF92FF920F931F937C0121
:1009D0006A015901AC014A5E5F4F29EB30E000E843
:1009E0000E94E61384E491E0F701918380838701FC
:1009F00001531F4FF801D182C082C7018F529F4F10
:100A0000B6010E94CC08F80160817181C701815252
:100A10009F4F0E94250BC70185519F4F23EF30E068
:100A2000E20EF31EB70140E550E00E94A10DF70170
:100A3000B292A2921F910F91FF90EF90DF90CF9012
:100A4000BF90AF900895FC01808191819460918363
:100A50008083CF010895FC01808191818F71806234
:100A600091838083CF010895FC01808191818F71F2
:100A7000806891838083CF010895AF92BF92CF9217
:100A8000DF92EF92FF920F931F93DF93CF9300D0EB
:100A9000CDB7DEB7FC01E153FF4FE190F1908091BB
:100AA000AA0A8F5F8093AA0AD70114962D913D91CF
:100AB0004D915C91179714962D933D934D935C93B4
:100AC0001797019111918091AA0A81508093AA0AE7
:100AD0006F015E010894A11CB11CC8010E94EC1BAF
:100AE00019C0BFEF8E3F9B0751F197FD28C0898148
:100AF0009A811816190674F4C7010E94DF1888231A
:100B000049F049815A81C701B6010E94071BC701FC
:100B10000E944E19C8010E940219882381F0C80161
:100B20000E94DF18882359F0C801B60144E650E05E
:100B300095010E94BB192FEF8F3F920791F6C801D4
:100B40000E94EB18CACFAF92BF92CF92DF92EF9282
:100B5000FF920F937C016A015901AC014A5E5F4F1D
:100B600029EB30E000E80E94E61385E591E0F7010B
:100B7000918380838FEC90E0E80EF91EF701C1921B
:100B8000D192B182A0820F91FF90EF90DF90CF9031
:100B9000BF90AF900895AF92BF92CF92DF92EF9245
:100BA000FF920F937C016A015901AC014A5E5F4FCD
:100BB00029EB30E000E80E94E61385E591E0F701BB
:100BC000918380838FEC90E0E80EF91EF701C192CB
:100BD000D192B182A0820F91FF90EF90DF90CF90E1
:100BE000BF90AF9008950F931F938130910599F5B1
:100BF0006F5F7F4F09F04EC086EB92E060E070E0DF
:100C00000E9482188BEF96E06BED72E040E250E0BC
:100C10002BEF32E000E014E00E94690289E297E0E5
:100C200067E571E046EB52E02BEF36E00E94A3054A
:100C300080E698E06DE571E046EB52E02BEF36E0A0
:100C40000E949B0483EA99E061E671E041E050E094
:100C50000E9400071FC0892BE9F46F5F7F4FD1F41A
:100C600084E491E090936108809360088BE499E0BC
:100C70000E94A80D8FE399E00E94020B81E399E0A6
:100C80000E94A9088BEF96E00E94570286EB92E043
:100C90000E9470181F910F91089580E090E06FEF0F
:100CA0007FEF0E94F305089581E090E06FEF7FEF02
:100CB0000E94F30508958091B4029091B5020E94BC
:100CC000400108950F931F938A018EEB9AE040E054
:100CD00050E00E94EA158FB7F8948F93169A8F917F
:100CE0008FBF8EEB9AE0B80140E050E00E94EA1519
:100CF0008FB7F8948F9316988F918FBF1F910F9194
:100D000008956F927F928F929F92AF92BF92CF92EF
:100D1000DF92EF92FF920F931F93CF93DF937C01AB
:100D20000E9A81E091E0E80EF91EF70140815181B1
:100D30008FEF9EEFE80EF91E56954795569547950D
:100D400021E030E002C02F5F3F4F229FC001239F70
:100D5000900D329F900D112484179507A0F349013F
:100D60000894810891084EEFA42E4FEFB42EA20EE6
:100D7000B31E91E0692E792E6E0C7F1C86EC9AE0F2
:100D800061E070E040E050E00E94EA1565018501F5
:100D9000C1E0D0E008C0C701B801AE010E94620600
:100DA000219601501040C815D905A8F38FB7F894C3
:100DB0008F93169A8F918FBFF30160817181769521
:100DC0006795769567958EEB9AE040E050E00E943B
:100DD000EA158FB7F8948F9316988F918FBFC1E063
:100DE000D0E009C0C701BE01A6010E94620621969B
:100DF0000894C108D108C815D90508F0BFCFF2CFB3
:100E0000CF92DF92EF92FF920F937C016A01AC01C7
:100E10004A5E5F4F2BEE30E000E80E94E61389E95E
:100E200091E0F7019183808321E031E0E20EF31E2F
:100E300080ED97E0FC01CE9EC001CF9E900DDE9E1E
:100E4000900D1124F701918380830F91FF90EF9013
:100E5000DF90CF900895CF92DF92EF92FF920F93A1
:100E60007C016A01AC014A5E5F4F2BEE30E000E886
:100E70000E94E61389E991E0F7019183808321E0E4
:100E800031E0E20EF31E80ED97E0FC01CE9EC00142
:100E9000CF9E900DDE9E900D1124F70191838083EB
:100EA0000F91FF90EF90DF90CF900895FC0180E2CA
:100EB00090E491838083128286E090E09483838320
:100EC000168215820895FC0180E290E4918380836C
:100ED000128286E090E094838383168215820895BF
:100EE00008950895FC018381948174836383089538
:100EF000FC0185819681768365830895FC0180E2FB
:100F000090E493838283148286E090E096838583C5
:100F1000108617828FE991E0918380830895FC0108
:100F200080E290E493838283148286E090E096834B
:100F30008583108617828FE991E0918380830895DD
:100F4000FC01148286E090E09683858310861782E8
:100F50008FE991E0918380837387628780E2818744
:100F6000138212820895FC01148286E090E0968339
:100F70008583108617828FE991E091838083738740
:100F8000628780E28187138212820895FC018FE9D3
:100F900091E0918380830895FC018FE991E0918332
:100FA00080830895FC017387628780E281871382C2
:100FB00012820895FC018285938573876287089564
:100FC000FC01818561870895FC018281682B8285FF
:100FD0009385892B09F46160628313820895FC0173
:100FE0008FE991E091838083CF010E94AC0E089538
:100FF0000F931F93182F092FFB010995812F902F15
:101000001F910F9108950F931F93182F092FFB0124
:101010000995812F902F1F910F9108950F931F9382
:10102000CF93DF93EC018B018A859B850E94640B33
:101030009C018FEF2F3F380759F41D861C86CE0187
:1010400062E00E94E407CE0164E00E94E4070AC067
:1010500081E090E09D878C87F80120838A859B85BD
:101060000E94610BCE01DF91CF911F910F910895E6
:101070000F931F93182F092F0E940E08812F902F76
:101080001F910F910895EF92FF920F931F93DF939B
:10109000CF930F92CDB7DEB7F82EE92E8B01BE01AC
:1010A0006F5F7F4F0E940E088981F80180838F2D2A
:1010B0009E2D0F90CF91DF911F910F91FF90EF9098
:1010C00008950F931F93182F092F0E940E08812F48
:1010D000902F1F910F9108950F931F93CF93DF933C
:1010E000EC018A859B850E94640B8C018FEF0F3F7A
:1010F000180739F41D861C86CE0162E00E94E407C1
:1011000008C081E090E09D878C878A859B850E943E
:10111000610BC801DF91CF911F910F910895CF937B
:10112000DF93EC018A81882319F0CE0164E00BC0C3
:101130008A859B85009729F00E94710B8F5F9F4FD6
:1011400021F4CE0161E00E94E407CE01DF91CF914E
:101150000895FC0187EA91E091838083CF010E948A
:10116000C6070895FC0187EA91E091838083CF014F
:101170000E94C60708950F931F938C0187EA91E0A0
:10118000F80191838083C8010E94C607C8010E94AC
:10119000AC0E1F910F910895EF92FF920F931F9342
:1011A0008C017B010E947E0787EA91E0F801918320
:1011B000808315861486C801B7010E94D2071F914B
:1011C0000F91FF90EF900895EF92FF920F931F936E
:1011D0008C017B010E947E0787EA91E0F8019183F0
:1011E000808315861486C801B7010E94D2071F911B
:1011F0000F91FF90EF900895CF93DF93EC018A85D4
:101200009B85009749F00E947D0B8F5F9F4F21F4D3
:10121000CE0162E00E94E407CE01DF91CF910895F4
:101220000F931F93182F092FDB010D900020E9F772
:101230001197A61BB70BAD010E94FC08812F902FC0
:101240001F910F9108950F931F93182F092FDB0102
:101250000D900020E9F71197A61BB70BAD010E9476
:10126000FC08812F902F1F910F9108950F931F93CA
:10127000182F092FDB010D900020E9F71197A61B0D
:10128000B70BAD010E94FC08812F902F1F910F9189
:101290000895CF93DF93EC01AA85BB85109779F071
:1012A000ED91FC9111970284F385E02DCD01099514
:1012B0008F5F9F4F21F4CE0161E00E94E407CE01D1
:1012C000DF91CF9108950F931F93182F092F0E943C
:1012D0004909812F902F1F910F910895CF93DF938C
:1012E000EC018A859B85009749F00E94740B8F5F03
:1012F0009F4F21F4CE0162E00E94E407CE01DF910E
:10130000CF9108950F931F93182F092F60E00E942B
:101310006E09812F902F1F910F9108950F931F93A6
:10132000182F092F6DE00E946E09812F902F6AE01F
:101330000E946E09812F902F0E944909812F902FC2
:101340001F910F9108950F931F93182F092F0E943B
:101350006E09812F902F1F910F9108950F931F9366
:10136000182F092F0E946E09812F902F1F910F9126
:1013700008950F931F93182F092F0E946E09812F34
:10138000902F1F910F910895CF93DF93EC018A81E5
:1013900084FF10C0662331F0CE016BEA71E044E0B7
:1013A00050E005C0CE0160EB71E045E050E00E94E6
:1013B000FC0809C0662319F0CE0161E302C0CE012A
:1013C00060E30E946E098A819B8196FF03C0CE0173
:1013D0000E944909CE01DF91CF910895AF92BF924B
:1013E000CF92DF92EF92FF920F931F93DF93CF93F1
:1013F00000D000D00F92CDB7DEB75C017B01FC01BD
:10140000C780D084828193819C01207E30702038F7
:10141000310509F052C095FD02C010E201C010E094
:1014200092FF09C0C50160E30E946E09185AC50108
:10143000612F0E946E091F2DC114D10421F0F4E028
:10144000CF16D10474F0612F62956F706A3010F47A
:10145000605D01C0695CC5010E946E09C114D104C0
:1014600021F083E0C816D10454F0612F6F706A3008
:1014700010F4605D01C0695CC5010E946E091E2DFB
:10148000C114D10421F0E2E0CE16D1045CF0612F4A
:1014900062956F706A3010F4605D01C0695CC501CF
:1014A0000E946E09612F6F706A3010F4605D01C098
:1014B000695CC5010E946E094EC02034310509F4F3
:1014C0004AC0442351F077FF08C0C5016DE20E9475
:1014D0006E09F094E194F108F394FE013596C7018A
:1014E0006AE070E00E942C24805D8083C7016AE07E
:1014F00070E00E942C247B013197EC17FD0779F7EF
:10150000C6010197059758F405E010E00C191D0974
:101510007E010894E11CF11CE00EF11E19C000E0F0
:1015200010E09E012F5F3F4FF901E00FF11F808116
:10153000803371F70F5F1F4F04301105A9F7E8CF13
:10154000C501F70161917F010E946E090F5F1F4F76
:1015500005301105ACF3C501029660E070E00E9411
:1015600078070F900F900F900F900F90CF91DF9111
:101570001F910F91FF90EF90DF90CF90BF90AF90B1
:101580000895CF93DF93EC0140E00E94EE098A8139
:101590009B8196FF03C0CE010E944909CE01DF91D5
:1015A000CF9108950F931F93182F092F40E00E94A9
:1015B000EE09812F902F1F910F9108950F931F9384
:1015C000182F092F41E00E94EE09812F902F1F91C3
:1015D0000F9108950F931F93182F092F41E00E9438
:1015E000EE09812F902F1F910F9108950F931F9354
:1015F000182F092F40E00E94EE09812F902F1F9194
:101600000F910895FC018AEB91E091838083CF01D3
:101610000E94C6070895FC018AEB91E091838083C4
:10162000CF010E94C60708950F931F938C018AEB88
:1016300091E0F80191838083C8010E94C607C80128
:101640000E94AC0E1F910F9108950F931F938C0170
:101650000E94A0078AEB91E0F801918380831F919B
:101660000F9108950F931F938C010E94A0078AEB9E
:1016700091E0F801918380831F910F910895FC01FF
:1016800082EC91E0918380830895FC0182EC91E0EB
:10169000918380830895FC0182EC91E091838083A3
:1016A0000895FC0182EC91E0918380830895FC0110
:1016B000A081B1811C962D913C911D97F90109954E
:1016C00008958FEF9FEF0895FC01A081B18150969E
:1016D0002D913C915197F901099508950E94640B51
:1016E00008958FEF9FEF0895DC01ED91FC91008C40
:1016F000F18DE02D70E009950895DC01ED91FC91EC
:101700000688F789E02D09950895DC01ED91FC919B
:101710000684F785E02D0995089580E090E008950E
:1017200060E070E080E090E0089560E070E080E0CC
:1017300090E0089580E090E0089580E090E00895C2
:1017400080E090E008958FEF9FEF0895FC01A08165
:10175000B18150962D913C915197F90109950895C9
:10176000CB010895CF92DF92EF92FF920F931F93D8
:10177000CF93DF936C017B018A01C0E0D0E00BC006
:10178000F701EC0FFD1FC60160810E94740B8F5F93
:101790009F4F29F02196C017D10794F3E801CE019D
:1017A000DF91CF911F910F91FF90EF90DF90CF903D
:1017B0000895CB010895FC0182EC91E09183808330
:1017C000CF010E94AC0E0895089508950F931F93C2
:1017D000FC0171836083538342833783268311879F
:1017E00000877587648784859585938782871582AE
:1017F00014821F910F9108950F931F93FC01718321
:1018000060835383428337832683118700877587DC
:1018100064878485958593878287158214821F91BA
:101820000F9108950F931F93FC017183608353837D
:101830004283378326831187008775876487848571
:10184000958593878287158214821F910F91089541
:101850000F931F93FC018B019A0171836083538363
:101860004283CA01880F991F63E070E00E942C2414
:1018700077836683C90163E070E00E942C2471873E
:10188000608715870487848595859387828715826D
:1018900014821F910F910895FC0180819181958799
:1018A000848784859585938782871582148208951D
:1018B000DC011A96ED91FC911B9761931B96FC93AA
:1018C000EE931A971A968D919C911B974D915C916E
:1018D0001197841B950B12962D913C9113978217AB
:1018E000930720F01B965C934E931A9714968D9154
:1018F0009C911597019615969C938E931497089535
:10190000DC0114968D919C911597892B11F46FE34E
:1019100026C01C96ED91FC911D9761911D96FC933C
:10192000EE931C971C968D919C911D974D915C9107
:101930001197841B950B12962D913C91139782174A
:10194000930720F01D965C934E931C9714968D91EF
:101950009C911597019715969C938E931497862FBB
:101960000895AF92BF92CF92DF92EF92FF920F93C2
:101970001F93CF93DF93EC015B018C859D85E880FD
:10198000F980E81AF90A8A819B81E80EF91E6C81B8
:101990007D816A016417750708F46B01EC14FD047E
:1019A000D8F02C853D85C501B901A6010E944624C9
:1019B0008C859D858C0D9D1D9D878C878C859D8537
:1019C00048815981841B950B2A813B81821793079B
:1019D00008F15D874C871EC02C853D85C501B90186
:1019E000A7010E944624888199819D878C874C8518
:1019F0005D8586010E191F0995012E0D3F1DC90138
:101A0000BA01A8010E9446248C859D85800F911FF4
:101A10009D878C878C819D818C199D099D838C83EA
:101A2000C601DF91CF911F910F91FF90EF90DF9052
:101A3000CF90BF90AF900895AF92BF92CF92DF92B8
:101A4000EF92FF920F931F93CF93DF937C015B0183
:101A5000FC012281338184819581B901681B790B56
:101A60006417750710F06A0106C0F701848195813B
:101A70006901C81AD90AC114D10409F450C0F70188
:101A800082859385C081D181C81BD90BC20FD31F1A
:101A9000CC15DD05E8F022853385C901B501A60125
:101AA0000E944624F701828593858C0D9D1D9387A6
:101AB00082878285938540815181841B950B228189
:101AC00033818217930710F053874287F70121C0B3
:101AD000F70122853385C901B501AE010E94462474
:101AE000F7018081918193878287228533858601E2
:101AF0000C1B1D0BA5014C0F5D1FC901BA01A801EC
:101B00000E944624F70182859385800F911F938759
:101B10008287848195818C0D9D1D95838483C60168
:101B2000DF91CF911F910F91FF90EF90DF90CF90B9
:101B3000BF90AF900895FC0171836083538342830B
:101B40000895FC017183608353834283089508954F
:101B50000895FC0180819181958384830895CF93BA
:101B6000DF93EC01AC81BD818C91803211F0893022
:101B700021F41196BD83AC83F5CF882369F0EC8105
:101B8000FD818081882351F0803261F0893051F0ED
:101B90003196FD83EC83F3CFA0E0B0E0CD01DF917F
:101BA000CF9108951192FD83EC83F8CFFB01DA0108
:101BB00080E017C0282F2295207F892F80538A30FC
:101BC00070F0892F8156863010F4865F08C0892F07
:101BD0008154863010F08FEF0895892F8753822B20
:101BE00031969081992331F78C9380E00895EF929C
:101BF000FF920F931F93FB01DA0120E030E040E0F9
:101C000050E02DC079018A0184E0EE0CFF1C001F1A
:101C1000111F8A95D1F7892F80538A3020F4892F9C
:101C200090E0C09712C0892F8156863028F4892F02
:101C300090E08755904009C0892F8154863010F07C
:101C40008FEF16C0892F90E0C7979C01442737FD7E
:101C50004095542F2E293F29402B512B31969081AE
:101C6000992381F62D933D934D935C93139780E0D8
:101C70001F910F91FF90EF900895AF92BF92CF9276
:101C8000DF92EF92FF920F931F93CF93DF936C013C
:101C90005B017A01FC0100811181C7010E944909A1
:101CA000C5010E946C08EC0197FD45C08D3091057F
:101CB000D1F18A309105B9F1F60180819181C83066
:101CC000D10591F480179107E8F4C70168E00E94FC
:101CD0006E09C70160E20E946E09C70168E00E94B8
:101CE0006E090150104014C09801281B390BF601F1
:101CF0008281938102972817390720F4F801C19354
:101D00008F0106C0C70167E00E946E09C7E0D0E0FE
:101D1000CE0180978F35910508F0BFCFC7016C2F9A
:101D20000E946E09BACFF8011082F601808191817C
:101D3000E801C81BD90BCE01DF91CF911F910F9104
:101D4000FF90EF90DF90CF90BF90AF90089584B751
:101D500014BE8093A90A08950895089584B714BE07
:101D60008093A90A0E94881D0E94860F08950E94F0
:101D70000C12FC0180EE91E0918380830895FC01B8
:101D800080EE91E0918380830895FC0180EE91E0E4
:101D9000918380830895FC0180EE91E0918380839C
:101DA00008958DED9FEF089580E008958091AA0A2F
:101DB0008F5F8093AA0A08958091AA0A8150809328
:101DC000AA0A08959F92AF92BF92CF92DF92EF92AC
:101DD000FF920F931F93CF93DF938C015B01942E9F
:101DE000E090AF0AF090B00A85E090E0D701199634
:101DF0009C938E931897D801ED91FC910480F58106
:101E0000E02DC8010995EC01BFEF8D3D9B0709F05E
:101E10005FC0D801ED91FC910284F385E02DC801EB
:101E20000995D801ED91FC910680F781E02DC8015C
:101E30000995EC01CC24BFEF8D3D9B0751F4CC24D8
:101E4000C394992031F4C701B5010E94A412D82E81
:101E500001C0DD24D801ED91FC910484F585E02DCD
:101E6000C8010995BFEFCC3DDB0719F40E94E710CC
:101E7000C2CFCC2069F1992019F0CCEFDFEF28C058
:101E8000DD2019F4CBEDDFEF23C0D801ED91FC91FB
:101E90000084F185E02DC8010995882339F0F70108
:101EA00015828FEF9FEF978386830AC00E94F212FC
:101EB000D70118968D919C9119978330910519F44B
:101EC000C5EEDFEF05C0029709F095CFCEEFDFEF4B
:101ED000F70180859185D80113969C938E93129774
:101EE000CE01DF91CF911F910F91FF90EF90DF9086
:101EF000CF90BF90AF909F900895FC0180EE91E04D
:101F000091838083CF010E94AC0E08951092B10A94
:101F100081E08093B20A1092B30A0895A895809147
:101F2000B20A882369F42091AF0A3091B00A8091F7
:101F3000AD0A9091AE0A2817390711F090E006C05B
:101F40008091CE0A90E0823008F091E0892F0895C8
:101F5000FC018091B30A90E0E817F9071CF020E03B
:101F600030E006C0EE0FFF1FEC54F54F20813181A9
:101F7000C90108951092D00A1092CF0A1092D20A85
:101F80001092D10A1092D40A1092D30A1092D60A53
:101F90001092D50A1092CE0A08951092D00A10928B
:101FA000CF0A1092D20A1092D10A1092D40A10923B
:101FB000D30A1092D60A1092D50A1092CE0A08952A
:101FC0000F931F93CF93DF93BC0120E030E00DC04F
:101FD000F901EE0FFF1FE153F54F808191818617C4
:101FE000970709F453C02F5F3F4F8091CE0A90E0CE
:101FF000281739076CF345C0FE01EE0FFF1FE153B0
:10200000F54F0190F081E02D8285821738F02196FE
:102010008091CE0A90E0C817D90774F38091CE0A58
:1020200090E0C817D9070CF58091CE0AA82FB0E030
:1020300040E050E08D0113C0CD010197FC01EE0F8F
:10204000FF1FE153F54F20813181AA0FBB1FA15320
:10205000B54F11963C932E934F5F5F4FDC01C80143
:10206000841B950BC817D9073CF3CC0FDD1FC15358
:10207000D54F798368838091CE0A8F5F8093CE0A93
:1020800005C0FB012285C0E0D0E0C2CFDF91CF9137
:102090001F910F9108951F939C018FB7F8948F9310
:1020A0008091B30A843010F01FEF18C01091B30A6A
:1020B0008091B30AE82FF0E0EE0FFF1FEC54F54FCC
:1020C000318320838F5F8093B30A1F3F39F0809163
:1020D000B10A882319F0C9010E94E00F8F918FBFC8
:1020E000812F1F9108959C018091AD0A9091AE0AB5
:1020F0002817390791F1A0E0B0E00BC0FD01EE0F09
:10210000FF1FE153F54F8081918182179307C9F03A
:1021100011968091CE0A90E0A817B9077CF3089534
:10212000CD010196FC01EE0FFF1FE153F54F208119
:102130003181AA0FBB1FA153B54F11963C932E932B
:10214000DC018091CE0A90E00197A817B90744F30B
:102150008091CE0A81508093CE0A08951F93CF9329
:10216000DF93A8958091AA0A882329F51FB7F894D0
:10217000C091AF0AD091B00ACE010E9473108C8139
:10218000882331F48D81882319F4CE010E94E00F59
:102190008091CF0A9091D00A9093B00A8093AF0AB1
:1021A0008091AF0A9091B00A02969093AC0A809306
:1021B000AB0A1FBF08C0E091AF0AF091B00A81E0FE
:1021C00090E091878087DF91CF911F9108950F92C2
:1021D0000FB6F8940F921F9211242F923F924F92B4
:1021E0005F926F927F928F929F92AF92BF92CF92A7
:1021F000DF92EF92FF920F931F932F933F934F9392
:102200005F936F937F938F939F93AF93BF93CF937E
:10221000DF93EF93FF93A091AB0AB091AC0A0DB698
:102220000D920EB60D920E94AE10A091AB0AB09125
:10223000AC0ACD91CDBFDD91DEBFFF91EF91DF9173
:10224000CF91BF91AF919F918F917F916F915F914E
:102250004F913F912F911F910F91FF90EF90DF9041
:10226000CF90BF90AF909F908F907F906F905F9036
:102270004F903F902F901F900F900FBE0F9078942B
:102280000895FFCFAC0120E030E00CC0F901EE0F63
:10229000FF1FE153F54F808191818417950751F01D
:1022A0002F5F3F4F8091CE0A90E02817390774F3D3
:1022B0002FEF3FEFC90108958EEB9AE00E94871639
:1022C00086EC9AE00E94471608950E945B060895E6
:1022D000AF92BF92CF92DF92EF92FF920F931F9334
:1022E000CF93DF935C016B0124EBE22E2AE0F22E08
:1022F000C0E0D0E000E010E011C0F70180819181E2
:10230000009731F0B501A6010E94B212C80FD91F83
:102310000F5F1F4F82E090E0E80EF91E8091B30A34
:1023200090E0081719074CF3CE01DF91CF911F9170
:102330000F91FF90EF90DF90CF90BF90AF900895F6
:10234000BC018091AF0A9091B00A0E948D1288233F
:1023500009F45BC00F920FB6F8940F921F921124EC
:102360002F923F924F925F926F927F928F929F92A5
:10237000AF92BF92CF92DF92EF92FF920F931F9393
:102380002F933F934F935F936F937F938F939F937D
:10239000AF93BF93CF93DF93EF93FF93A091AB0ADB
:1023A000B091AC0A0DB60D920EB60D920E94AE1011
:1023B000A091AB0AB091AC0ACD91CDBFDD91DEBF4B
:1023C000FF91EF91DF91CF91BF91AF919F918F914D
:1023D0007F916F915F914F913F912F911F910F913D
:1023E000FF90EF90DF90CF90BF90AF909F908F9035
:1023F0007F906F905F904F903F902F901F900F9025
:102400000FBE0F9078940895FFCFE091AF0AF0913E
:10241000B00A80859185089534EBE32E3AE0F32EDF
:1024200000E010E016C0F701C081D1818C818823C3
:1024300019F4CE010E94E00F8A85882321F4D093FD
:10244000AE0AC093AD0A0F5F1F4F82E090E0E80E26
:10245000F91E8091B30A90E00817190724F38091C0
:10246000AD0A9091AE0A892BF1F08091CF0A90913C
:10247000D00A9093B00A8093AF0A8091AF0A9091EE
:10248000B00A02969093AC0A8093AB0A0E9484161D
:102490000E94241D81E08093B10A8091AA0A1092C3
:1024A000AA0A0E94EA1CFFCFDC01ED91FC91019089
:1024B000F081E02D099528E088E190E00FB6F894CE
:1024C000A895809360000FBE20936000F894FFCF22
:1024D000FFCFFC01648975890288F389E02D20E033
:1024E00030E003C02F5F3F4F3196AB01421B530BCF
:1024F0002617370718F480818A35A1F3CA01089599
:10250000DC011296ED91FC91139723A130E092A18A
:1025100080E0282B392BC9010895FC018091AA0A7B
:10252000882329F081E090E09187808706C08FEFB3
:102530006F3F780721F47187608780E00895778383
:10254000668381E085830895FC018FEF6F3F7807F4
:1025500021F47187608780E008957783668381E046
:1025600085830895FC018FEF6F3F780719F420E011
:1025700030E01FC08FB7F8948F9385818823A9F02E
:102580008481882391F4868197818617970769F45F
:1025900015828FEF9FEF9783868351874087CF0106
:1025A0000E94E00F21E030E002C020E030E08F9197
:1025B0008FBFC9010895FC018FB7F8948F931482DF
:1025C000CF010E94E00F8F918FBF0895FC018FB75C
:1025D000F8948F9381E08483CF010E9473108F91D0
:1025E0008FBF08958FB788230CF05DC001C0FFCF67
:1025F0000F920FB6F8940F921F9211242F923F92D0
:102600004F925F926F927F928F929F92AF92BF9202
:10261000CF92DF92EF92FF920F931F932F933F93EE
:102620004F935F936F937F938F939F93AF93BF93DA
:10263000CF93DF93EF93FF93A091AB0AB091AC0AD5
:102640000DB60D920EB60D920E94AE10A091AB0A7F
:10265000B091AC0ACD91CDBFDD91DEBFFF91EF917E
:10266000DF91CF91BF91AF919F918F917F916F91AA
:102670005F914F913F912F911F910F91FF90EF909C
:10268000DF90CF90BF90AF909F908F907F906F9092
:102690005F904F903F902F901F900F900FBE0F9024
:1026A00078940895A4CF08958F929F92AF92BF928D
:1026B000CF92EF92FF920F931F93CF93DF93EC0192
:1026C0005A01490101151105A9F1E114F10491F133
:1026D0004115510579F16115710561F17D876C87AF
:1026E0005F874E871B8B0A8BFD8AEC8ACA86398BE3
:1026F000288B8FEF9FEF9F838E83998788871C821B
:102700001D82CE010E944B108B87C8016AE570E0E4
:10271000A7010E944F240894E108F108C8018E0D1A
:102720009F1DB501A4012B8500E010E00E94A11CB3
:102730009B838A83DF91CF911F910F91FF90EF9040
:10274000CF90BF90AF909F908F900895CF92EF92CF
:10275000FF920F931F93FC0182EF91E0918380839E
:10276000CF010E9454131F910F91FF90EF90CF90D3
:102770000895CF92EF92FF920F931F93FC0182EF87
:1027800091E091838083CF010E9454131F910F9198
:10279000FF90EF90CF900895CF92EF92FF920F931A
:1027A0001F93FC01DA017901C02E82EF91E0918341
:1027B0008083CF0144E552E19F018D010E945413B3
:1027C0001F910F91FF90EF90CF900895CF92EF92CD
:1027D000FF920F931F93FC01DA017901C02E82EF63
:1027E00091E091838083CF0144E552E19F018D0107
:1027F0000E9454131F910F91FF90EF90CF90089576
:102800008FB7F8948F9317988F918FBF83B7817F7D
:1028100083BF88950E94E710F3CFEF92FF920F934A
:102820007C01AC014A5E5F4F64EF71E02AEA30E060
:1028300000E00E94E6138DEF91E0F7019183808321
:102840000F91FF90EF90089587ED9AE00E940D148C
:102850000895EF92FF920F937C01AC014A5E5F4FA7
:1028600064EF71E02AEA30E000E00E94E6138DEFA9
:1028700091E0F701918380830F91FF90EF9008958D
:10288000FC01718360835383428315821482178213
:1028900016820895FC0171836083538342831582FD
:1028A0001482178216820895FC014481558101909B
:1028B000F081E02D20E030E008C08281938168172C
:1028C000790741F02F5F3F4F369624173507ACF359
:1028D0002FEF3FEFC90108958F929F92AF92BF9261
:1028E000CF92DF92EF92FF920F931F93CF93DF93DC
:1028F0007C018B016A0159016115710509F457C00A
:10290000EC01AC81BD818A819B81A817B90709F4CC
:102910004EC00990D881C02DFE011A161B06CCF5B9
:1029200060E070E0808191810817190738F4808198
:102930009181801B910B918380830AC0808191815A
:10294000081B190B6F5F7F4F36966A177B0754F38E
:10295000CD01880F991F8A0F9B1F880F991F8C0F1D
:102960009D1F9D0113C0AC01AAEF8A2EAFEF9A2ED6
:10297000880E991EA6E0E40109904E01EA01099231
:10298000AE01A150C1F7215030400697621773077E
:1029900054F311830083D382C282B582A482F701EB
:1029A0008481958101969583848381E001C080E0D4
:1029B000DF91CF911F910F91FF90EF90DF90CF901B
:1029C000BF90AF909F908F900895CF93DF93DC01DD
:1029D00014964D915C9115971416150654F54130D7
:1029E0005105F1F0CB01880F991F860F971F880FB3
:1029F000991F2D913C911197280F391F415050403C
:102A00000AC0E9012697F90186E0019009928150F8
:102A1000E1F76F5F7F4F2A5F3F4F641775078CF3B5
:102A200014968D919C911597019715969C938E9372
:102A30001497DF91CF9108958F929F92AF92BF929A
:102A4000CF92DF92EF92FF920F931F93CF93DF937A
:102A50006C014B018FB7F8948F93F6012481358177
:102A6000C081D181EE24FF2400E010E01EC08A81E5
:102A70009B8188169906B1F4A880B980C601B80177
:102A80000E94E5140894E11CF11CF60124813581B3
:102A90001216130654F4888199818A0D9B1D99831F
:102AA000888303C00F5F1F4F269602171307FCF29F
:102AB0008F918FBFC701DF91CF911F910F91FF9031
:102AC000EF90DF90CF90BF90AF909F908F90089540
:102AD000CF92DF92EF92FF920F931F93CF93DF93EA
:102AE000EC018B017A0169016115710571F0BA0180
:102AF0000E941C158FB7F8948F93CE01B801A701DF
:102B000096010E946C148F918FBFDF91CF911F911E
:102B10000F91FF90EF90DF90CF900895EF92FF928A
:102B20000F931F93CF93DF937C01FC0186819781E4
:102B300001969783868384819581181619060CF077
:102B400042C000811181F8018081918101979183B8
:102B5000808380819181892BB1F5F80182819381F5
:102B60000297D1F4C481D581E881F9810480F5818F
:102B7000E02DCE010995C70160E070E00E94E514E8
:102B800088858823A9F06E817F81C70142E050E0EB
:102B90009E010E946C140CC0F801828193816481B3
:102BA00075810E946811C70160E070E00E94E51421
:102BB000F80180819181892B31F4F701848195811D
:102BC0001816190654F2DF91CF911F910F91FF90C3
:102BD000EF900895EF92FF920F931F93CF93DF939F
:102BE0008C017B01EA016115710519F425E030E0E3
:102BF00046C08091AA0A882381F0F8012681378196
:102C000001C0A895F80186819781821B930B8E15D0
:102C10009F05B8F320E030E032C04115510521F4A2
:102C2000C091AF0AD091B00AC801BE010E941C1524
:102C30008FB7F8948F93C801B701AE019E010E942F
:102C40006C14882359F08091AF0A9091B00ABE01AC
:102C50000E948D12882311F091E001C090E08F91C5
:102C60008FBF992331F08091AF0A9091B00A0E94F2
:102C7000F212E091AF0AF091B00A20853185C901C6
:102C8000DF91CF911F910F91FF90EF90089567E929
:102C90007BE043E050E00E9440141092AA0B109297
:102CA000A90B089567E97BE043E050E00E944014DF
:102CB0001092AA0B1092A90B08950F931F938C01E9
:102CC0000E94221DC8010E948E150E9465118091EC
:102CD000A90B9091AA0B01969093AA0B8093A90B34
:102CE0008091A90B9091AA0B885E934051F41092A9
:102CF000AA0B1092A90B0E94231D86EC9AE00E9459
:102D00008E151F910F9108950E94161D08956BEA6C
:102D10007BE043E050E00E94401408956BEA7BE0C2
:102D200043E050E00E9440140895FC0183E092E0EB
:102D3000918380838FEF9FEF938382831582148228
:102D4000178216821086728761870895FC0183E0DE
:102D500092E0918380838FEF9FEF9383828315822C
:102D60001482178216821086728761870895FC018B
:102D700083E092E0918380830895FC0183E092E0F8
:102D8000918380830895FC0117821682108608952E
:102D9000FC0173836283558344830895FC0182811F
:102DA0009381FFEF8F3F9F0719F42FEF3FEF03C091
:102DB0000E94A0119C01C9010895FC0182819381A8
:102DC000FFEF8F3F9F0711F00E9468110895FC01EB
:102DD00064817581828193810E9468110895FC014C
:102DE0007783668340878185928542E050E09F012A
:102DF0000E9468150895FC0183E092E0918380832E
:102E0000CF010E94AC0E0895FC01808191819460F5
:102E100091838083CF010895FC01808191819B7F04
:102E200091838083CF010895FC01808191818F710E
:102E3000806291838083CF010895FC01808191811C
:102E40008F71806891838083CF010895EF92FF9204
:102E50000F931F93CF93DF93EC017B018A819B81BA
:102E60008F7180629B838A83DB011B966C91CE01FC
:102E700070E00E94DE0ACE0160E20E94B909FC0106
:102E8000828193818F719B7F80689460938382831A
:102E9000CF01B7010E94D20ACE0160E20E94B909B7
:102EA000F701648575850E943609CE0169E072E0FC
:102EB0000E943609FC01828193818F718062938325
:102EC0008283D7011A966C91CF0170E00E94F60AB6
:102ED000CE0160E172E00E9436098C01C7010E94B8
:102EE000801260E0892B09F061E0C8010E94C409EA
:102EF000CE0166E172E00E943609FC018281938175
:102F00008F71806893838283D70152966D917C91F3
:102F10005397CF010E94D20ACE016DE172E00E9468
:102F20003609FC01828193818F7180629383828351
:102F3000D70154966D917C915597CF010E94D20A8A
:102F40006FE172E00E9436098A819B818F718068EF
:102F50009B838A83F70162817381CE010E94D20A2A
:102F6000CE016DE172E00E9436098C01DC011296FF
:102F70008D919C9113978F71806213969C938E9381
:102F80001297C7010E946912BC01C8010E94D20AAF
:102F900062E272E00E943609F7018481882329F0F9
:102FA000CE0164E272E00E943609D70115968C9139
:102FB0008823A1F0CE0160E372E00E943609FC0193
:102FC000828193818F71806893838283D701169663
:102FD0006D917C911797CF010E94F60A8A819B819F
:102FE0009B7F9B838A83CE01DF91CF911F910F91AD
:102FF000FF90EF900895E1EFF0E0208130E0408114
:10300000942F80E0282B392BC9010895AF92BF92ED
:10301000CF92DF92EF92FF920F931F93E1EFF0E0D8
:10302000A080BB24CC24DD2420818081E08030E09E
:1030300040E050E0542F432F322F222790E0A0E0B1
:10304000B0E0DC0199278827282B392B4A2B5B2BF2
:103050002A293B294C295D29FF2400E010E01E2D80
:103060000027FF24EE242E293F29402B512BB901A4
:10307000CA011F910F91FF90EF90DF90CF90BF900A
:10308000AF900895E1EFF0E0808390830895E1EF41
:10309000F0E06083272F382F492F552720839C018C
:1030A000442755272083692F77278827992760830E
:1030B00008950E94CD1D08950E94CD1D08950F937F
:1030C0001F938C018AE792E0F80191838083C80105
:1030D0000E944B0BC8010E94AC0E1F910F910895E6
:1030E000FC018AE792E091838083CF010E944B0B21
:1030F0000895FC018AE792E091838083CF010E94CA
:103100004B0B08950F931F93CF93DF93EC018B012B
:103110000E94891C8CE392E099838883198E1A8E11
:10312000188F0F8B012B81F481E090E098A38F8F93
:1031300082E090E09AA389A383E090E09CA38BA314
:10314000D093BE0BC093BD0BDF91CF911F910F9118
:1031500008950F931F93CF93DF93EC018B010E948F
:10316000891C8CE392E099838883198E1A8E188FBC
:103170000F8B012B81F481E090E098A38F8F82E088
:1031800090E09AA389A383E090E09CA38BA3D093C3
:10319000BE0BC093BD0BDF91CF911F910F9108958E
:1031A0009C01265F3F4FC90108959C01225F3F4F5C
:1031B000C90108959C01265F3F4FC9010895FC0194
:1031C000A081B18196962D913C919797F90109952F
:1031D000089581E00895CF93DF93EC011B828A81EB
:1031E000882319F428EF3FEF09C0E881F98104A092
:1031F000F5A1E02DCE0109959C011A82C901DF914C
:10320000CF910895FC018281882311F490E003C0DE
:10321000938181E09827892F089560E070E080E035
:1032200090E00895FC01A081B181D6962D913C914A
:10323000D797F90109950895CF92DF92EF92FF9207
:103240000F931F93CF93DF938C016B017A01C0E042
:10325000D0E0D801ED91FC9100A8F1A9E02DC801C2
:103260000995882389F0CE15DF0574F4D801ED9116
:10327000FC91D601AC0FBD1F02A8F3A9E02DC80137
:103280006C9109952196E5CFCE01DF91CF911F91E9
:103290000F91FF90EF90DF90CF900895DC01129690
:1032A0008C911297882319F428EF3FEF09C0ED9114
:1032B000FC91119700ACF1ADE02DCD0109959C0179
:1032C000C9010895FC01A081B1819A962D913C918C
:1032D0009B97F90109950895CF92DF92EF92FF92A3
:1032E0000F931F93CF93DF938C017B016A01C0E0A2
:1032F000D0E0C8010E9462191816190684F4CC1592
:10330000DD056CF4D801ED91FC9104A4F5A5E02D48
:10331000C8010995F70181937F012196EACFCE017B
:10332000DF91CF911F910F91FF90EF90DF90CF90A1
:1033300008950E94621908950E944E19089580E030
:103340000895FC018AE792E091838083CF010E9477
:103350004B0B08950F931F938C018AE792E0F801BD
:1033600091838083C8010E944B0BC8010E94AC0E60
:103370001F910F910895CF92DF92EF92FF920F93DA
:103380001F93CF93DF93EC016B018A0179018A814E
:10339000882319F428EF3FEFBBC0E881F98102A42C
:1033A000F3A5E02DCE010995801791076CF0E88117
:1033B000F98106A4F7A5E02DCE01B601A801099573
:1033C000F70191838083A2C019870887F7011182D2
:1033D00010828FB7F8948F93E881F98100A4F1A54A
:1033E000E02DCE010995882351F4E881F98106A0EA
:1033F000F7A1E02DCE010995882309F093C020E0C4
:1034000091E08F918FBF992309F04AC0222331F0B8
:103410008091AF0A9091B00A0E94F212E091AF0A37
:10342000F091B00A8085918582309105D9F4E881C8
:10343000F98102A4F3A5E02DCE010995181619060D
:1034400064F4E881F98106A4F7A5E02DCE01B60168
:10345000A8010995F70191838083198618862EEFBC
:103460003FEF56C0039709F0B4CFE881F98102A479
:10347000F3A5E02DCE0109951816190664F4E8812C
:10348000F98106A4F7A5E02DCE01B601A8010995A2
:10349000F701918380831986188625EE3FEF38C0A7
:1034A000CE010E94DF18E881F9818823C9F402A4C3
:1034B000F3A5E02DCE0109951816190664F4E881EC
:1034C000F98106A4F7A5E02DCE01B601A801099562
:1034D000F70191838083198618862DEF3FEF18C07E
:1034E00002A4F3A5E02DCE0109951816190664F47F
:1034F000E881F98106A4F7A5E02DCE01B601A80167
:103500000995F701918380831986188620E030E0C1
:10351000C901DF91CF911F910F91FF90EF90DF9044
:10352000CF9008958091AF0A9091B00A6C857D8507
:103530000E948D12282F90E064CFCF93DF93EC018F
:103540008A81882319F428EF3FEF49C08B818823B3
:1035500009F043C08FB7F8948F93E881F98100A4F4
:10356000F1A5E02DCE010995882349F4E881F98180
:1035700006A0F7A1E02DCE0109958823A1F520E052
:1035800091E08F918FBF9923B9F4222331F080917C
:10359000AF0A9091B00A0E94F212E091AF0AF09146
:1035A000B00A808591858230910519F42EEF3FEFA6
:1035B00016C0039779F611C0CE010E94DF18882348
:1035C00019F42DEF3FEF0BC0E881F98104A4F5A5B4
:1035D000E02DCE0109959C0102C025EE3FEFC90107
:1035E000DF91CF9108958091AF0A9091B00A6C85D8
:1035F0007D850E948D12282F90E0C3CF0E949D1AD6
:103600009C0197FF02C02FEF3FEFC9010895AF92D1
:10361000BF92CF92DF92FF920F931F93CF93DF93CE
:10362000EC015B016A018A81882319F428EF3FEFDE
:1036300053C000E010E08FB7F8948F93E881F981D0
:1036400000A8F1A9E02DCE010995882351F4E88165
:10365000F98106A0F7A1E02DCE010995882309F094
:1036600046C0FF2491E08F918FBF992391F0E881AC
:10367000F981B501600F711FA601401B510B04A811
:10368000F5A9E02DCE010995080F191F0C151D0590
:10369000D1F0FF2031F08091AF0A9091B00A0E94E2
:1036A000F212E091AF0AF091B00A808591858230E4
:1036B000910519F42EEF3FEF0FC0039709F0BBCF30
:1036C00025EE3FEF09C0CE010E94DF18882311F0DC
:1036D000980102C02DEF3FEFC901DF91CF911F91FB
:1036E0000F91FF90DF90CF90BF90AF9008958091A1
:1036F000AF0A9091B00A6E857F850E948D12F82ED8
:1037000090E0B1CF1F93CF93DF93EC01162F8A8106
:10371000882319F468EF7FEF46C08FB7F8948F9332
:10372000E881F98100A8F1A9E02DCE01099588234F
:1037300049F4E881F98106A0F7A1E02DCE010995B1
:103740008823B1F520E091E08F918FBF9923C9F4D0
:10375000222331F08091AF0A9091B00A0E94F212B8
:10376000E091AF0AF091B00A808591858230910591
:1037700019F46EEF7FEF17C0039779F665EE7FEFD0
:1037800012C0CE010E94DF18882319F46DEF7FEF7D
:103790000AC0E881F98102A8F3A9E02DCE01612FCA
:1037A0000995612F70E0CB01DF91CF911F910895B2
:1037B0008091AF0A9091B00A6E857F850E948D122C
:1037C000282F90E0C1CF0E94821B9C0197FF02C06E
:1037D0002FEF3FEFC90108951F93CF93DF93EC01C3
:1037E0001B828A81882319F029EF3FEF5FC0E881AF
:1037F000F981048CF58DE02DCE0109959B878A8790
:10380000E881F981068CF78DE02DCE0109959D8721
:103810008C87E881F98100A0F1A1E02DCE01099506
:103820009F878E87E881F98102A0F3A1E02DCE0168
:1038300009959C0197FD3AC08FB7F8948F93E88162
:10384000F98106A0F7A1E02DCE010995182F882354
:1038500011F090E009C08091AF0A9091B00A6A859A
:103860007B850E948D12982F8F918FBF1123D1F4E9
:10387000992331F08091AF0A9091B00A0E94F21220
:10388000E091AF0AF091B00A808591858230910570
:1038900019F42EEF3FEF0AC0039709F0CDCF25EEC4
:1038A0003FEF04C081E08A8320E030E0C901DF916E
:1038B000CF911F9108950F931F938C0181E0F80120
:1038C00083838285938563E070E00E946811F8012C
:1038D0008485958563E070E00E9468111F910F91C7
:1038E00008950F931F938C010E943F0B8AE792E08B
:1038F000F80191838083118610868FEF9FEF958763
:103900008487978786879387828712821F910F917A
:1039100008950F931F938C010E943F0B8AE792E05A
:10392000F80191838083118610868FEF9FEF958732
:103930008487978786879387828712821F910F914A
:103940000895FC01208391E1929322E2229383E384
:10395000829362937293129280E88293129282E031
:10396000829383E0829384E0829385E0829386E071
:10397000829387E0829388E0829389E0829380E15A
:103980008293929382E1829383E1829384E1829392
:1039900085E1829386E1829387E1829388E1829335
:1039A00089E1829380E2829381E28293229383E28F
:1039B00082934293529386E2829387E2829388E2D3
:1039C000829389E2829380E3829381E382933197A9
:1039D000CF010895A091AB0AB091AC0ACD91CDBFB3
:1039E000DD91DEBFFF91EF91DF91CF91BF91AF915C
:1039F0009F918F917F916F915F914F913F912F9107
:103A00001F910F91FF90EF90DF90CF90BF90AF90FC
:103A10009F908F907F906F905F904F903F902F90EE
:103A20001F900F900FBE0F900895FFCF8CE787BDBA
:103A300082E084BD83E885BDEEE6F0E080818260AF
:103A4000808308950895089508950F920FB6F8940D
:103A50000F921F9211242F923F924F925F926F927A
:103A60007F928F929F92AF92BF92CF92DF92EF920E
:103A7000FF920F931F932F933F934F935F936F93F7
:103A80007F938F939F93AF93BF93CF93DF93EF93E6
:103A9000FF93179AA091AB0AB091AC0A0DB60D92A4
:103AA0000EB60D928EEB9AE00E945D160E948E0F6C
:103AB000882311F00E94AE10A091AB0AB091AC0A1D
:103AC000CD91CDBFDD91DEBFFF91EF91DF91CF9121
:103AD000BF91AF919F918F917F916F915F914F9126
:103AE0003F912F911F910F91FF90EF90DF90CF901A
:103AF000BF90AF909F908F907F906F905F904F900E
:103B00003F902F901F900F900FBE0F901895FFCFF2
:103B10000895FC01808191818F71806891838083F9
:103B2000CF010895EF92FF920F931F93CF93DF93EE
:103B3000EC017B018A819B8192FF0FC0CE0160E383
:103B40000E946E098A819B8195FF03C0CE0168E5C2
:103B500002C0CE0168E70E946E096F2D661F6627BE
:103B6000661F605DCE010E946E090A811B81C8013B
:103B70008F719B7F80689B838A83EE0CFF1CCE0134
:103B8000B7010E94F60A1B830A83CE01DF91CF9111
:103B90001F910F91FF90EF900895089508959091CF
:103BA000EB0091609093EB008093EC008091ED002E
:103BB0008270862B8093ED008091ED00826080936F
:103BC000ED008091EE00881F8827881F0895EF92EE
:103BD0000F93982F8E2D9093E9006295660F660FD4
:103BE000607C642B880F000F000F2295207F202B14
:103BF000862B622F0E94CF1D0F91EF900895EF92B8
:103C00000F938091D8008F7B8093D8008091D9004A
:103C100081FF1BC01092E9008091EB0080FD15C070
:103C200080E060E040E023E000E0EE24E3940E94C6
:103C3000E71D282F30E02115310529F08091F00093
:103C400088608093F000822F01C080E00F91EF9098
:103C500008958EE089BD09B400FEFDCF8091D800A3
:103C60008F7D8093D8008091E20081608093E20094
:103C70008091E20088608093E2000E94FF1D8091A5
:103C8000E0008E7F8093E0001092CA0B089582B10D
:103C900094E0892782B98091DA0080FF2FC080915B
:103CA000D80080FF2BC08EEF8093DA008091D9007E
:103CB00080FF19C081E08093CA0B8091BF0B909167
:103CC000C00B82609093C00B8093BF0B8091E20089
:103CD00088608093E2000E94291E8091E0008E7F20
:103CE0008093E0000BC01092CA0B8091BF0B9091A3
:103CF000C00B84609093C00B8093BF0B8091E10058
:103D000082FF07C08091E20082FF03C08BEF8093A7
:103D1000E1008091E10080FF1DC08091E20080FF02
:103D200019C08EEF8093E1008091E2008061809362
:103D3000E2008FEE8093E1008091D8008062809352
:103D4000D8008091BF0B9091C00B80629093C00B04
:103D50008093BF0B8091E10084FF18C08091E20046
:103D60008091D8008F7D8093D8008FEE8093E10002
:103D70008091E2008F7E8093E2008091BF0B909152
:103D8000C00B80649093C00B8093BF0B8091E100C7
:103D900085FF1AC08091E20085FF16C08091E20085
:103DA0008F7E8093E2008FED8093E1008091E200AE
:103DB0008F7D8093E2008091BF0B9091C00B806853
:103DC0009093C00B8093BF0B8091E10083FF12C0E2
:103DD0008091E20083FF0EC087EF8093E1000E9494
:103DE000FF1D8091BF0B9091C00B91609093C00B11
:103DF0008093BF0B82B194E0892782B908951F9206
:103E00000F920FB60F920BB60F9211242F933F9380
:103E10004F935F936F937F938F939F93AF93BF93D2
:103E2000EF93FF938FB7F8948F93179A8F918FBF6B
:103E30000E94471EFF91EF91BF91AF919F918F918B
:103E40007F916F915F914F913F912F910F900BBE9A
:103E50000F900FBE0F901F9018958091E800877FFC
:103E60008093E8008091CB0B8093F1008091E80073
:103E70008E7F8093E8008091E8008F778093E80040
:103E80008091E80082FFFCCF8091E8008B7F8093D7
:103E9000E8008091E8008F778093E8000895909182
:103EA000F1008091E3009F778078982B9093E30056
:103EB0008091E800877F8093E8008091E8008E7F02
:103EC0008093E8008091E80080FFFCCF8091E300C0
:103ED00080688093E30008958091C50B8823D9F111
:103EE0008130C9F1823009F04BC08091F10090918E
:103EF000F1008823D9F5E091F100EF77E093E90034
:103F00008091EB0080FF27C0EE23B1F08091EB00A1
:103F100080618093EB0081E090E00E2E02C0880F5C
:103F2000991F0A94E2F78093EA001092EA008091C8
:103F3000EB0088608093EB001092E900F0E0EA5318
:103F4000F44F10828091E800877F8093E800809191
:103F5000E8008E7F08C08091EB0080628093EB00C8
:103F60008091E800877F8093E80008958091EB00BE
:103F700080628093EB008091E800877F8093E80067
:103F800008958091C50B813039F18230D1F580914F
:103F9000F1009091F100882351F5E091F100EF7765
:103FA000D9F0E093E9008091EB0080FF15C080918B
:103FB000EB0080628093EB001092E900F0E0EA539E
:103FC000F44F81E080838091E800877F8093E80050
:103FD0008091E8008E7F08C08091EB008062809322
:103FE000EB008091E800877F8093E800089580913E
:103FF000EB0080628093EB008091E800877F8093E4
:10400000E80008958091F1008091F100E091F100C5
:104010008091C50B813821F0823851F08038B1F49D
:104020008091E800877F8093E8001092F10017C02C
:104030008091E800877F8093E800F0E0EF77F070F0
:10404000EA53F44F80818093F10009C08091EB0026
:1040500080628093EB008091E800877F13C010920C
:10406000F1008091E8008E7F8093E8008091E80065
:1040700082FFFCCF8091E8008B7F8093E8008091E5
:10408000E8008F778093E8000895EBEEF0E0808100
:1040900080628083E8EEF0E08081877F80830895EE
:1040A0008091E800877F8093E8008091E8008E7F10
:1040B0008093E8008091E80080FFFCCF0895109283
:1040C000C60B1092C70B1092C80B1092C90B10921E
:1040D000CA0B1092CB0B08958093C10B7093C30B46
:1040E0006093C20B08950E94092408951092C40B96
:1040F0006091F1008091F100813019F0823089F4F3
:1041000006C082E18093C10B88E990E005C083E49A
:104110008093C10B8AEA90E09093C30B8093C20B0B
:104120000DC00E947320882349F48091EB008062C7
:104130008093EB008091E800877F53C00E94FB17BB
:104140000E94FB17AC018091E800877F8093E80014
:104150008091C10B282F30E02417350788F42F7386
:104160003070232B51F481E08093C40B2091C20B5B
:104170003091C30B4091C10B1FC01092C40BF6CFFE
:104180004093C10BF3CF8091E80080FFFCCFF90191
:1041900090E00AC0542F5150903449F09F5F8491B1
:1041A0008093F1003196452F9F01442399F7809128
:1041B000E8008E7F8093E800442341F18091E8007D
:1041C00082FFE1CF2093C20B3093C30B4093C10B0E
:1041D00023C08091E8008B7F8093E8008091E80005
:1041E0008F778093E80008958091C40B882349F06D
:1041F0008091E80080FFFCCF8091E8008E7F809363
:10420000E8008091E80082FFFCCFE3CF2093C20B4F
:104210003093C30B1092C10B8091E8008E7F809386
:10422000E8008091E80082FFDFCFD3CF0E94032314
:1042300008959091F100923080F48091E800877F9A
:104240008093E8009093CB0B8091E8008E7F809361
:10425000E800892F0E94032308958091EB0080627B
:104260008093EB008091E800877F8093E8000895B9
:104270000E94F22308959091F1009093C50B6091F4
:10428000F1006630C1F0673050F4613041F16130C7
:1042900080F1633049F1653009F044C016C06930DF
:1042A000C9F06A3018F46830E9F50AC06A3041F1A3
:1042B0006B30C1F532C09038A9F50E947620089580
:1042C000903881F50E942D1F0895992359F50E9479
:1042D0004F1F0895992331F50E94192108959330B5
:1042E00008F50E946C1F08959330E0F40E94C11FEE
:1042F0000895892F80588330A8F40E9402200895E1
:10430000913881F48091EB0080628093EB00809182
:10431000E800877F8093E8000895913019F40E94A7
:1043200050200895892F0E943821882351F48091CC
:10433000EB0080628093EB008091E800877F8093A0
:10434000E800089582B194E0892782B98091F40051
:1043500080FF0CC01092E9008091E80083FF06C046
:104360008091F00083FF02C00E943B210E946B23DA
:1043700082B194E0892782B908951F920F920FB6F7
:104380000F920BB60F9211242F933F934F935F938D
:104390006F937F938F939F93AF93BF93EF93FF930D
:1043A0008FB7F8948F93179A8F918FBF0E94A22195
:1043B000FF91EF91BF91AF919F918F917F916F91FD
:1043C0005F914F913F912F910F900BBE0F900FBEB9
:1043D0000F901F901895FC018FB7F8948F938F91D1
:1043E0008FBF8091CC0B882341F58091D7008160ED
:1043F0008093D7008091D7008F7B8093D7008091E6
:10440000D70080688093D7008091D8008F76809302
:10441000D8008091D80080698093D8008091D8001E
:104420008F7B8093D8008091D80081608093D800E2
:1044300081E08093CC0B0A9A1298148E138E168EFC
:10444000158E128E80E090E008959C01265E3F4F0D
:10445000C9010895FC01828D089580E090E00895DF
:1044600081E008959C01255E3F4FC9010895FC013C
:10447000828D882319F46DEF7FEF22C08FB7F894F7
:104480008F9302C09093E9008091E800978D85FF9B
:10449000F9CF9093E9006093F100838D948D01969C
:1044A000948F838F8091E80085FD07C08091E8009C
:1044B0008F778093E800148E138E8F918FBF70E0FA
:1044C000CB010895DC015A968C915A97882319F4F0
:1044D0002DEF3FEF3FC04115510519F420E030E0CA
:1044E00039C08FB7F8948F9305C05F968C915F9712
:1044F0008093E9008091E80085FFF7CF20E030E06D
:1045000024C05F968C915F978093E900FB01E20FD6
:10451000F31F80818093F1005B968D919C915C9755
:1045200001965C969C938E935B978091E80085FD45
:104530000AC08091E8008F778093E8005C961C9217
:104540001E925B9705C02F5F3F4F24173507CCF2B3
:104550008F918FBFC9010895FC01828D882319F4C2
:104560002DEF3FEF15C08FB7F8948F93838D948D07
:10457000892B51F0878D8093E9008091E8008F7737
:104580008093E800148E138E8F918FBF20E030E06F
:10459000C9010895FC018FB7F8948F9381A180938E
:1045A000E9002091F2003091F300C901258F368F88
:1045B0002F912FBF08950E94CA2220E0892B09F075
:1045C00021E0822F08959C01235E3F4FC901089589
:1045D000FC018FB7F8948F9381A18093E90020911B
:1045E000F1008091F2009091F300968F858F892BD6
:1045F00029F48091E8008F778093E8008F918FBF36
:10460000822F90E00895EF920F9383E063E041E002
:1046100022E000E0EE240E94E71D81E062E041E03C
:1046200022E00E94E71D82E062E040E022E001E03B
:104630000E94E71D92E09093E900E0EFF0E08081B6
:1046400084608083EAEEF0E088E0808310829083CB
:10465000108284E0808310820F91EF9008950F9371
:104660001F930E94FB178C010E94FB179801217079
:104670003070422F009729F4E091BD0BF091BE0BF2
:10468000228F442351F0129A892BA1F4E091BD0BA3
:10469000F091BE0B8285938509C01298892B51F445
:1046A000E091BD0BF091BE0B8485958560E070E0D4
:1046B0000E9468118091E800877F8093E8008091D4
:1046C000E8008E7F8093E8008091E80080FFFCCFB7
:1046D0001F910F9108958091F40082FF1AC082E02B
:1046E0008093E9008091E80082FF13C08091F00080
:1046F00082FF0FC08091E8008B7F8093E800E091FB
:10470000BD0BF091BE0B8485958560E070E00E9442
:1047100068110895CF93DF93EC010E94FB170E946C
:10472000FB178091E800877F8093E8008091E80084
:1047300082FFFCCF0E940618688B798B8A8B9B8B3B
:104740008091F1008C8B8091F1008D8B8091F10034
:104750008E8B8091E8008B7F8093E8008091E80049
:104760008F778093E8008091E8008E7F8093E80047
:104770008091E80080FFFCCFDF91CF9108950F93E7
:104780001F938C018091E800877F8093E800F801F7
:1047900060897189828993890E944718F801848908
:1047A0008093F10085898093F10086898093F100E0
:1047B0008091E8008E7F8093E8008091E80080FF80
:1047C000FCCF8091E80082FFFCCF8091E8008B7FD6
:1047D0008093E8008091E8008F778093E8001F9134
:1047E0000F9108958091BD0B9091BE0B613231F015
:1047F000623259F0603229F080E008950E94BF23B0
:1048000002C00E948A2381E008950E942F2381E044
:1048100008958330E1F4613059F0613028F062305E
:1048200059F06330A1F40CC084E06DEE70E00BC071
:1048300084E361EF70E007C088E265E271E003C0E5
:104840008CE16DE471E00E946C2081E0089580E0CD
:1048500008950E946C190895AA1BBB1B51E107C063
:10486000AA1FBB1FA617B70710F0A61BB70B881F00
:10487000991F5A95A9F780959095BC01CD0108958F
:10488000EE0FFF1F0590F491E02D0994FB01DC0170
:1048900002C001900D9241505040D8F70895DC01BC
:1048A00001C06D9341505040E0F7089511E0C0E71A
:1048B000D1E004C0FE010E9442242296C237D107F3
:0648C000C9F7F894FFCFD8
:1048C60000000000570246028D0B900B950B9C19B9
:1048D6009919A00BFE1AA60BB00BB20BE31B0D1910
:1048E60006013B0122012F020901E9182D013601BB
:1048F6005C016C1916011E021C199F19270114016F
:10490600000000003104737400436D643F003E20D4
:1049160000000000003D05696E70757400757362D5
:1049260000626C696E6B00415649202F2055534238
:104936002D4932432076322E342E313734332C2013
:1049460041707220203720323031322031303A33F4
:10495600323A34350000000000810600000000CC29
:1049660007EF0700000000A908BB08747275650010
:1049760066616C73650000000000020B140B0000FA
:104986000000510BDB0B8D0B900B950B9A0B9D0BBF
:10499600A00BA30BA60BB00BB20BD90B00000000AB
:1049A600CB0E7D0FD10EAD0ED40ED60EDC0E000052
:1049B6000000681249444C45000000000000140045
:1049C600000000BD16FB16E7162C207072693D002C
:1049D6002C2050433D002C2073746B3D005B005D22
:1049E60020005D002C2073757370656E646564002D
:1049F6002C20776169743D000000000070185F1874
:104A06008D0B900B950B9C199919A00BFE1AA60BF2
:104A1600B00BB20BE31B0D192522E3223222EB2148
:104A26002D222A22DB22CA22E822292430223722FA
:104A360062229F19AC2200000000A119AA198D0B51
:104A4600900B950B9C199919A00BFE1AA60BB00B8F
:104A5600B20BE31B0D19D018DA18D518AD0EAD0E32
:104A6600E918AD0EAD0EAD0E6C19AD0EAD0E1C19DE
:044A76009F19AD0EC9
:00000001FF
