:100000000C94AC000C94F7000C94F7000C94F700DF
:100010000C94F7000C94F7000C94F7000C94F70084
:100020000C94F7000C94F7000C9479240C94372767
:100030000C94F7000C94F7000C94F7000C94F70064
:100040000C94F7000C94F7000C94F7000C94F70054
:100050000C94F7000C949F220C94F7000C94F7007A
:100060000C94F7000C94F7000C94F7000C94F70034
:100070000C94F7000C94F7000C94F7000C94F70024
:100080000C94F7000C94F7000C94F7000C94F70014
:100090000C94A1010C94F700120100020200004030
:1000A000EB031820001001020001090243000201C5
:1000B0000080320904000001020201000524001042
:1000C000010524010301042402060524060001079A
:1000D0000583032000FF09040100020A0000000755
:1000E0000581022000000705020220000004030928
:1000F0000434034100760069006100740069006FF8
:10010000006E00200049006E0073007400720075DC
:10011000006D0065006E0074007300200049006EE1
:100120000074006C00280341005600520038002083
:1001300000410054003900300055005300420031A6
:100140000032003800200043004400430000C20693
:100150008D13A016BB06991611241FBECFEFD0E257
:10016000DEBFCDBFF8942FE088E190E00FB6F894A1
:10017000A895809360000FBE2093600017980F9A97
:10018000179A80E090E020E80FB6F8942093610081
:10019000809361000FBE83B7817F83BF83B7816087
:1001A00083BF13E0A0E0B1E0E6EFF3E500E00BBFB2
:1001B00002C007900D92A832B107D9F71CE0A8E25F
:1001C000B3E001C01D92AD3AB107E1F70E94DF1024
:1001D00011E0C4E5D1E004C02297FE010E94DA29B3
:1001E000CE34D107C9F70E94E8100C94EE290C9484
:1001F0000000FC0115A614A682E08093B8001092BE
:10020000B90080E58093BA001092BD0085E4809328
:10021000BC0080E090E00895FC0115A614A61092A1
:10022000BC008AB18C7F8AB980E090E0089580910B
:10023000BB0008956093BB00089508950895ECEB0A
:10024000F0E08081806480830895FC0184A595A5F9
:10025000009761F0019695A784A7815D974030F0E3
:100260008285938562E070E00E94991308950F9350
:100270001F93CF93DF93EC010A851B858091B90012
:100280008C7F8038C1F0813820F4803609F04FC06F
:1002900006C0883849F1803A09F049C03AC081E087
:1002A00090E09DA78CA72A893B898889998928177E
:1002B0003907B1F522C081E090E09DA78CA760913D
:1002C000BB002A893B898889998928173907A9F0B1
:1002D000CE010E960E94890E2A893B898C899D89C0
:1002E00082179307E8F409C08091BB002A893B89F3
:1002F0008E899F892817390798F08091BC008F7BE1
:100300008093BC001BA6C80160E070E00E949913B6
:100310000EC01DA61CA6C80160E070E00E949913E3
:100320008091BC0080648093BC0081E08BA78091A9
:10033000BC0080688093BC00DF91CF911F910F912A
:1003400008950F920FB6F8940F921F9211242F92D6
:100350003F924F925F926F927F928F929F92AF9255
:10036000BF92CF92DF92EF92FF920F931F932F9342
:100370003F934F935F936F937F938F939F93AF932D
:10038000BF93CF93DF93EF93FF93179AA091870BBF
:10039000B091880B0DB60D920EB60D928091280388
:1003A000909129030E9437010E94BF11882311F008
:1003B0000E94DF12A091870BB091880BCD91CDBF29
:1003C000DD91DEBFFF91EF91DF91CF91BF91AF91B2
:1003D0009F918F917F916F915F914F913F912F915D
:1003E0001F910F91FF90EF90DF90CF90BF90AF9053
:1003F0009F908F907F906F905F904F903F902F9045
:100400001F900F900FBE0F901895FFCF0F931F9363
:100410008C018FE992E0F80191838083C8010E94EA
:100420007C0DC8010E94DD101F910F910895FC0101
:100430008FE992E091838083CF010E947C0D089523
:10044000FC018FE992E091838083CF010E947C0DB3
:100450000895EF92FF920F931F937C010E94362123
:1004600084E091E0F7019183808315A614A6F092B1
:100470002903E09228031F910F91FF90EF900895B8
:10048000EF92FF920F931F937C010E94362184E02C
:1004900091E0F7019183808315A614A6F0922903B9
:1004A000E09228031F910F91FF90EF9008956F92B3
:1004B0007F928F929F92AF92BF92CF92DF92EF92F4
:1004C000FF920F931F93DF93CF93CDB7DEB73C011D
:1004D0000E94D12184E091E0F3019183808315A6ED
:1004E00014A67092290360922803CF91DF911F9187
:1004F0000F91FF90EF90DF90CF90BF90AF909F90C3
:100500008F907F906F9008956F927F928F929F92BD
:10051000AF92BF92CF92DF92EF92FF920F931F9311
:10052000DF93CF93CDB7DEB73C010E94D12184E0A9
:1005300091E0F3019183808315A614A6709229039C
:1005400060922803CF91DF911F910F91FF90EF9060
:10055000DF90CF90BF90AF909F908F907F906F90E3
:100560000895FC0180819181946091838083CF0103
:100570000895FC01808191818F71806291838083D5
:10058000CF010895FC01808191818F7180689183F2
:100590008083CF0108950F931F938C0182E591E032
:1005A000F80191838083C801895F9E4F0E94D90F13
:1005B000C8010E9485141F910F9108950F931F93F6
:1005C0008C0182E591E0F80191838083C801895F05
:1005D0009E4F0E94D90FC8010E948514C8010E9435
:1005E000DD101F910F910895AF92BF92CF92DF92CD
:1005F000EF92FF920F931F93CF93DF93EC018C0147
:10060000095F1E4FCB5FDE4FE880F980C550D140B7
:10061000C8010E94DA0FC8010E94E00FFC01009798
:1006200009F446C080818F33E1F18062833741F560
:100630008181882379F18062843761F580918F0B05
:10064000A82EBB2400E010E017C0C8010E94D911F9
:100650006C01C7010E94160ACC16DD0619F4C70109
:100660006AE202C0C70160E20E94410AC701B60106
:100670000E94E1190F5F1F4F0A151B0534F318C0C4
:10068000843741F48181882329F08062813381F0AD
:10069000823371F0C7010E94160A6BE571E00E9477
:1006A000BE09C7010E94160A68E571E00E94BE09F2
:1006B000DF91CF911F910F91FF90EF90DF90CF903E
:1006C000BF90AF9008958F929F92AF92BF92CF92BA
:1006D000DF92EF92FF920F931F93CF93DF93EC0182
:1006E000CF5FDE4FE990F990899099900881198148
:1006F000C550D14097E0A92E91E0B92EAC0EBD1E99
:100700008DE0C82E81E0D82ECC0EDD1EC7010E94E0
:10071000911E8091860B8F5F8093860BC8010E948B
:10072000160A0E94160A60E871E00E94BE090E9443
:10073000160A8091860B81508093860B19C0C801E0
:100740000E94160A60E671E00E94BE09C501B4016C
:10075000A8010E946E102FEF8F3F920771F0EFEF0C
:100760008E3F9E0751F097FD08C0CE010E94F40213
:10077000C7010E949A1B882311F7C7010E94A61B7C
:10078000F601808191810E94A61BF60180819181F2
:100790000E94911EBBCF6F927F928F929F92AF92D9
:1007A000BF92CF92DF92EF92FF920F931F936C0153
:1007B0004A0139015801AC014A5E5F4F2BEE30E02F
:1007C00000E80E94231682E591E0F6019183808380
:1007D00021E031E0C20ED31EF60181929192A192E6
:1007E000B1926F01F182E0822BEF3EEFC20ED31E79
:1007F000C601895F9E4FEFE0F1E0CE0EDF1EB6012D
:1008000040E550E00E94D20FF601729262921F9171
:100810000F91FF90EF90DF90CF90BF90AF909F909F
:100820008F907F906F9008956F927F928F929F929A
:10083000AF92BF92CF92DF92EF92FF920F931F93EE
:100840006C014A0139015801AC014A5E5F4F2BEE41
:1008500030E000E80E94231682E591E0F6019183E2
:10086000808321E031E0C20ED31EF6018192919285
:10087000A192B1926F01F182E0822BEF3EEFC20EA6
:10088000D31EC601895F9E4FEFE0F1E0CE0EDF1E62
:10089000B60140E550E00E94D20FF60172926292DA
:1008A0001F910F91FF90EF90DF90CF90BF90AF908E
:1008B0009F908F907F906F900895FC01808191812F
:1008C000946091838083CF010895FC0180819181A0
:1008D0008F71806291838083CF010895FC018081B4
:1008E00091818F71806891838083CF010895FC018D
:1008F0008AE691E091838083CF010E948514089558
:100900000F931F938C018AE691E0F8019183808315
:10091000C8010E948514C8010E94DD101F910F912B
:1009200008958F929F92AF92BF92CF92DF92EF92F3
:10093000FF920F931F937C016A0159014801AC019A
:100940004A5E5F4F2BEE30E000E80E9423168AE6F5
:1009500091E0F7019183808381E091E0E80EF91E38
:10096000F701C192D192A192B192918280821F919E
:100970000F91FF90EF90DF90CF90BF90AF909F903E
:100980008F9008958F929F92AF92BF92CF92DF92F5
:10099000EF92FF920F931F937C016A015901480166
:1009A000AC014A5E5F4F2BEE30E000E80E94231658
:1009B0008AE691E0F7019183808381E091E0E80E7F
:1009C000F91EF701C192D192A192B19291828082D7
:1009D0001F910F91FF90EF90DF90CF90BF90AF905D
:1009E0009F908F9008952F923F924F925F926F92B7
:1009F0007F928F929F92AF92BF92CF92DF92EF92AF
:100A0000FF920F931F93DF93CF93CDB7DEB72A9753
:100A10000FB6F894DEBF0FBECDBF4C0181E091E070
:100A2000880E991ED4014D905D904D018091860BEA
:100A30008F5F8093860BF20184819581A681B781B7
:100A400084839583A683B783D4012D903C90EDEFEA
:100A5000FEEF8E0E9F1E8091860B81508093860B39
:100A60008AE99BE068EE73E040E050E00E9468187D
:100A7000C401895F9E4F9A87898785E0682E81E04F
:100A8000782E680C791CC1010E94911ECC24CCC028
:100A9000AFEF8E3F9A0709F4E0C097FDDEC0898171
:100AA0009A81181619060CF0BFC0AA24BB24B6C040
:100AB000CC2009F478C0CE010596BE016D5F7F4F52
:100AC0000E94C518CD80DE80EF80F884C701B60192
:100AD0002CE330E040E050E00E94B6296D837E8335
:100AE0008F8398878091860B8F5F8093860BF301AD
:100AF00080819181029662E070E00E940008D3013B
:100B00000D911C91F801828193818F718062938392
:100B10008283C701B6012CE330E040E050E00E9440
:100B2000B629C801BA01A9010E941B0D6AE30E94FF
:100B3000410AD3018D919C91029662E070E00E947F
:100B40000008D301ED91FC91828193818F718062C5
:100B5000938382834D815E816F817885CF010E946E
:100B60001B0D6EE20E94410AF30180819181029681
:100B700063E070E00E940008D301ED91FC91828156
:100B800093818F718062938382836B817C81CF019B
:100B90000E94A50B63E671E00E94BE098091860B5E
:100BA00081508093860B49815A81E7E0F1E0AE0ED7
:100BB000BF1E7401EA0CFB1C89EF9EEFA80EB91E44
:100BC000F701950109C081918A3021F48901CC2473
:100BD000C39409C02F5F3F4F24173507A4F38A0140
:100BE00001501040CC24C2010E949A1B882391F02E
:100BF000C2010E94BD1B882369F041E050E04A1900
:100C00005B09400F511FC201B7010E94AC1DC20118
:100C10000E94091C58010894A11CB11C89819A8169
:100C2000A816B9060CF444CFC1010E94BD1B88234D
:100C3000A1F0C1010E949A1B882379F0C101698546
:100C40007A8544E650E09E012F5F3F4F0E94761C5C
:100C5000AFEF8F3F9A0709F01BCFC1010E94A61B7F
:100C600012CFEF92FF920F931F938130910509F0FD
:100C700046C06F5F7F4F09F079C08AE293E060E081
:100C800070E00E943D1B8DE493E06AE273E00E94F5
:100C900054098BE593E06AE273E00E94560D87E801
:100CA00097E067E673E040E250E027E833E000E0D9
:100CB00014E00E94290285EB97E060E771E04AE2C8
:100CC00053E027E837E00DE413E0EBE5EE2EE3E038
:100CD000FE2E0E94CB0384E199E064E771E04AE2D2
:100CE00053E027E837E087010E9491048FE79AE0FC
:100CF0006AE771E041E050E00E94880737C0892B25
:100D0000A9F56F5F7F4F91F582EB91E09093800A98
:100D100080937F0A8FE79AE00E9485148AE691E02B
:100D2000909315098093140984E199E00E94851439
:100D300082E591E09093B6078093B5078CEB98E03D
:100D40000E94D90F85EB97E00E94851487E897E011
:100D50000E9417028BE593E00E94330D8DE493E02F
:100D60000E9431098AE293E00E942B1B1F910F9190
:100D7000FF90EF90089580E090E06FEF7FEF0E948A
:100D80003106089581E090E06FEF7FEF0E94310619
:100D9000089580912803909129030E9425010895C8
:100DA000FC0182EB91E091838083CF010E94851446
:100DB00008950F931F938C0182EB91E0F8019183CA
:100DC0008083C8010E948514C8010E94DD101F9114
:100DD0000F9108950F931F938A018AE99BE040E0E9
:100DE00050E00E9468188FB7F8948F93169A8F91ED
:100DF0008FBF8AE99BE0B80140E050E00E9468188C
:100E00008FB7F8948F9316988F918FBF1F910F9182
:100E100008956F927F928F929F92AF92BF92CF92DE
:100E2000DF92EF92FF920F931F93CF93DF937C019A
:100E30000E9A81E091E0E80EF91EF70140815181A0
:100E40008FEF9EEFE80EF91E5695479556954795FC
:100E500021E030E002C02F5F3F4F229FC001239F5F
:100E6000900D329F900D112484179507A0F349012E
:100E70000894810891084EEFA42E4FEFB42EA20ED5
:100E8000B31E91E0692E792E6E0C7F1C82EA9BE0E6
:100E900061E070E040E050E00E9468186501850163
:100EA000C1E0D0E008C0C701B801AE010E94EA0667
:100EB000219601501040C815D905A8F38FB7F894B2
:100EC0008F93169A8F918FBFF30160817181769510
:100ED0006795769567958AE99BE040E050E00E942F
:100EE00068188FB7F8948F9316988F918FBFC1E0D1
:100EF000D0E009C0C701BE01A6010E94EA06219602
:100F00000894C108D108C815D90508F0BFCFF2CFA1
:100F1000CF92DF92EF92FF920F937C016A01AC01B6
:100F20004A5E5F4F2BEE30E000E80E94231682EB12
:100F300091E0F7019183808321E031E0E20EF31E1E
:100F400080ED97E0FC01CE9EC001CF9E900DDE9E0D
:100F5000900D1124F701918380830F91FF90EF9002
:100F6000DF90CF900895CF92DF92EF92FF920F9390
:100F70007C016A01AC014A5E5F4F2BEE30E000E875
:100F80000E94231682EB91E0F7019183808321E098
:100F900031E0E20EF31E80ED97E0FC01CE9EC00131
:100FA000CF9E900DDE9E900D1124F70191838083DA
:100FB0000F91FF90EF90DF90CF900895FC0180E2B9
:100FC00090E491838083128286E090E0948383830F
:100FD000168215820895FC0180E290E4918380835B
:100FE000128286E090E094838383168215820895AE
:100FF00008950895FC018381948174836383089527
:10100000FC0185819681768365830895FC0180E2E9
:1010100090E493838283148286E090E096838583B4
:10102000108617828CEB91E0918380830895FC01F8
:1010300080E290E493838283148286E090E096833A
:101040008583108617828CEB91E0918380830895CD
:10105000FC01148286E090E09683858310861782D7
:101060008CEB91E0918380837387628780E2818734
:10107000138212820895FC01148286E090E0968328
:101080008583108617828CEB91E091838083738730
:10109000628780E28187138212820895FC018CEBC3
:1010A00091E0918380830895FC018CEB91E0918322
:1010B00080830895FC017387628780E281871382B1
:1010C00012820895FC018285938573876287089553
:1010D000FC01818561870895FC018281682B8285EE
:1010E0009385892B09F46160628313820895FC0162
:1010F0008CEB91E091838083CF010E94DD100895F5
:101100000F931F93182F092FFB010995812F902F03
:101110001F910F9108950F931F93182F092FFB0113
:101120000995812F902F1F910F9108950F931F9371
:10113000CF93DF93EC018B018A859B850E94950DEF
:101140009C018FEF2F3F380759F41D861C86CE0176
:1011500062E00E946C08CE0164E00E946C080AC044
:1011600081E090E09D878C87F80120838A859B85AC
:101170000E94920DCE01DF91CF911F910F910895A2
:101180000F931F93182F092F0E949608812F902FDD
:101190001F910F910895EF92FF920F931F93DF938A
:1011A000CF930F92CDB7DEB7F82EE92E8B01BE019B
:1011B0006F5F7F4F0E9496088981F80180838F2D91
:1011C0009E2D0F90CF91DF911F910F91FF90EF9087
:1011D00008950F931F93182F092F0E949608812FAF
:1011E000902F1F910F9108950F931F93CF93DF932B
:1011F000EC018A859B850E94950D8C018FEF0F3F36
:10120000180739F41D861C86CE0162E00E946C0826
:1012100008C081E090E09D878C878A859B850E942D
:10122000920DC801DF91CF911F910F910895CF9337
:10123000DF93EC018A81882319F0CE0164E00BC0B2
:101240008A859B85009729F00E94A20D8F5F9F4F92
:1012500021F4CE0161E00E946C08CE01DF91CF91B4
:101260000895FC0184EC91E091838083CF010E947A
:101270004E080895FC0184EC91E091838083CF01B6
:101280000E944E0808950F931F938C0184EC91E007
:10129000F80191838083C8010E944E08C8010E9412
:1012A000DD101F910F910895EF92FF920F931F93FE
:1012B0008C017B010E94060884EC91E0F801918387
:1012C000808315861486C801B7010E945A081F91B1
:1012D0000F91FF90EF900895EF92FF920F931F935D
:1012E0008C017B010E94060884EC91E0F801918357
:1012F000808315861486C801B7010E945A081F9181
:101300000F91FF90EF900895CF93DF93EC018A85C2
:101310009B85009749F00E94AE0D8F5F9F4F21F48F
:10132000CE0162E00E946C08CE01DF91CF9108955A
:101330000F931F93182F092FDB010D900020E9F761
:101340001197A61BB70BAD010E948409812F902F26
:101350001F910F9108950F931F93182F092FDB01F1
:101360000D900020E9F71197A61BB70BAD010E9465
:101370008409812F902F1F910F9108950F931F9330
:10138000182F092FDB010D900020E9F71197A61BFC
:10139000B70BAD010E948409812F902F1F910F91EF
:1013A0000895CF93DF93EC01AA85BB85109779F060
:1013B000ED91FC9111970284F385E02DCD01099503
:1013C0008F5F9F4F21F4CE0161E00E946C08CE0137
:1013D000DF91CF9108950F931F93182F092F0E942B
:1013E000D109812F902F1F910F910895CF93DF93F3
:1013F000EC018A859B85009749F00E94A50D8F5FBF
:101400009F4F21F4CE0162E00E946C08CE01DF9173
:10141000CF9108950F931F93182F092F60E00E941A
:10142000F609812F902F1F910F9108950F931F930D
:10143000182F092F6DE00E94F609812F902F6AE086
:101440000E94F609812F902F0E94D109812F902FA1
:101450001F910F9108950F931F93182F092F0E942A
:10146000F609812F902F1F910F9108950F931F93CD
:10147000182F092F0E94F609812F902F1F910F918D
:1014800008950F931F93182F092F0E94F609812F9B
:10149000902F1F910F910895CF93DF93EC018A81D4
:1014A00084FF10C0662331F0CE0168EC71E044E0A7
:1014B00050E005C0CE016DEC71E045E050E00E94C7
:1014C000840909C0662319F0CE0161E302C0CE0190
:1014D00060E30E94F6098A819B8196FF03C0CE01DA
:1014E0000E94D109CE01DF91CF9108954F925F9272
:1014F0006F927F928F929F92AF92BF92CF92DF9224
:10150000EF92FF920F931F93DF93CF9300D000D001
:101510000F92CDB7DEB74C017B01FC01C780D084B0
:10152000828193819C01207E30702038310509F042
:1015300052C095FD02C010E201C010E092FF09C048
:10154000C40160E30E94F609185AC401612F0E9489
:10155000F6091F2DC114D10421F0F4E0CF16D104F7
:1015600074F0612F62956F706A3010F4605D01C095
:10157000695CC4010E94F609C114D10421F083E022
:10158000C816D10454F0612F6F706A3010F4605D9A
:1015900001C0695CC4010E94F6091E2DC114D1046A
:1015A00021F0E2E0CE16D1045CF0612F62956F70FD
:1015B0006A3010F4605D01C0695CC4010E94F609E4
:1015C000612F6F706A3010F4605D01C0695CC40106
:1015D0000E94F60969C02034310509F465C044232E
:1015E00051F077FF08C0C4016DE20E94F609F09443
:1015F000E194F108F39404E010E0AA24BB242E0146
:101600000894411C511C85E0682E712CF201E00FFA
:10161000F11FC7016AE070E00E94A229805D80830B
:10162000C7016AE070E00E94A2297B016115710583
:1016300031F4A114B10419F45301A01AB10A0150F4
:101640001040FFEF0F3F1F0709F7CA14DB040CF42B
:101650006501C6010197059758F405E010E00C19E3
:101660001D097E010894E11CF11CE00EF11E19C059
:1016700000E010E09E012F5F3F4FF901E00FF11FE6
:101680008081803371F70F5F1F4F04301105A9F778
:10169000E8CFC401F70161917F010E94F6090F5F55
:1016A0001F4F05301105ACF3C401029660E070E0F5
:1016B0000E9400080F900F900F900F900F90CF9105
:1016C000DF911F910F91FF90EF90DF90CF90BF902F
:1016D000AF909F908F907F906F905F904F90089504
:1016E000CF93DF93EC0140E00E94760A8A819B81D0
:1016F00096FF03C0CE010E94D109CE01DF91CF91A8
:1017000008950F931F93182F092F40E00E94760A27
:10171000812F902F1F910F9108950F931F93182FD2
:10172000092F41E00E94760A812F902F1F910F917F
:1017300008950F931F93182F092F41E00E94760AF6
:10174000812F902F1F910F9108950F931F93182FA2
:10175000092F40E00E94760A812F902F1F910F9150
:1017600008952F923F924F925F926F927F928F9245
:101770009F92AF92BF92CF92DF92EF92FF920F9320
:101780001F93DF93CF93CDB7DEB72A970FB6F894A8
:10179000DEBF0FBECDBF4C016A017B01FC01A780FB
:1017A000B08482819381AC01407E507040385105F5
:1017B00009F0A7C095FD02C010E201C010E092FF41
:1017C00009C0C40160E30E94F609185AC401612FE0
:1017D0000E94F6098F2D9927AA27BB27182FA1143D
:1017E000B10421F0F8E0AF16B10474F0612F6295F6
:1017F0006F706A3010F4605D01C0695CC4010E94C2
:10180000F609A114B10421F087E0A816B10454F040
:10181000612F6F706A3010F4605D01C0695CC401B3
:101820000E94F609C701AA27BB27182FA114B104EB
:1018300021F0E6E0AE16B10474F0612F62956F708E
:101840006A3010F4605D01C0695CC4010E94F60951
:10185000A114B10421F0F5E0AF16B10454F0612FEA
:101860006F706A3010F4605D01C0695CC4010E9451
:10187000F609BB27AF2D9E2D8D2D182FA114B10475
:1018800021F084E0A816B10474F0612F62956F70A6
:101890006A3010F4605D01C0695CC4010E94F60901
:1018A000A114B10421F0E3E0AE16B10454F0612FAD
:1018B0006F706A3010F4605D01C0695CC4010E9401
:1018C000F6091C2DA114B10421F0F2E0AF16B10409
:1018D0005CF0612F62956F706A3010F4605D01C03A
:1018E000695CC4010E94F609412F4F704A3018F418
:1018F000642F605D02C0642F695CC4010E94F60918
:101900007BC04034510509F477C0222371F0F7FE03
:101910000CC0C4016DE20E94F609F094E094D094EA
:10192000C094C11CD11CE11CF11C29E0622E712C59
:10193000442455249AE0292E312C01E010E00C0FAC
:101940001D1F060D171DC701B6012AE030E040E05B
:1019500050E00E94B629605DF8016083C701B601BE
:101960002AE030E040E050E00E94B629C901DA01E7
:101970006C017D01C114D104E104F10431F441147E
:10198000510419F421014618570808946108710898
:10199000FFEF6F16FFEF7F0681F6A414B5040CF479
:1019A0005201C50101970A9758F40AE010E00A199C
:1019B0001B097E010894E11CF11CE00EF11E19C008
:1019C00000E010E09E012F5F3F4FF901E00FF11F93
:1019D0008081803371F70F5F1F4F09301105A9F720
:1019E000E8CFC401F70161917F010E94F6090F5F02
:1019F0001F4F0A301105ACF3C401029660E070E09D
:101A00000E9400082A960FB6F894DEBF0FBECDBF25
:101A1000CF91DF911F910F91FF90EF90DF90CF90CA
:101A2000BF90AF909F908F907F906F905F904F90FE
:101A30003F902F9008950F931F93182F092F20E0A8
:101A40000E94B10B812F902F1F910F9108950F933A
:101A50001F93182F092F21E00E94B10B812F902F87
:101A60001F910F910895FC0187ED91E09183808390
:101A7000CF010E944E080895FC0187ED91E091830B
:101A80008083CF010E944E0808950F931F938C010D
:101A900087ED91E0F80191838083C8010E944E0890
:101AA000C8010E94DD101F910F9108950F931F939D
:101AB0008C010E94280887ED91E0F80191838083D2
:101AC0001F910F9108950F931F938C010E94280876
:101AD00087ED91E0F801918380831F910F91089524
:101AE000FC018FED91E0918380830895FC018FEDDF
:101AF00091E0918380830895FC018FED91E09183C3
:101B000080830895FC018FED91E091838083089597
:101B1000FC01A081B1811C962D913C911D97F9018A
:101B2000099508958FEF9FEF0895FC01A081B18181
:101B300050962D913C915197F901099508950E9475
:101B4000950D08958FEF9FEF0895DC01ED91FC91C5
:101B5000008CF18DE02D70E009950895DC01ED9188
:101B6000FC910688F789E02D09950895DC01ED9137
:101B7000FC910684F785E02D0995089580E090E0BA
:101B8000089560E070E080E090E0089560E070E02B
:101B900080E090E0089580E090E0089580E090E09B
:101BA000089580E090E008958FEF9FEF0895FC0185
:101BB000A081B18150962D913C915197F9010995E1
:101BC0000895CB010895CF92DF92EF92FF920F9389
:101BD0001F93CF93DF936C017B018A01C0E0D0E0BB
:101BE0000BC0F701EC0FFD1FC60160810E94A50D1F
:101BF0008F5F9F4F29F02196C017D10794F3E8011A
:101C0000CE01DF91CF911F910F91FF90EF90DF9068
:101C1000CF900895CB010895FC018FED91E0918361
:101C20008083CF010E94DD100895089508950F93D9
:101C30001F93FC0171836083538342833783268320
:101C40001187008775876487848595859387828748
:101C5000158214821F910F9108950F931F93FC0119
:101C60007183608353834283378326831187008780
:101C7000758764878485958593878287158214820A
:101C80001F910F9108950F931F93FC01718360833F
:101C90005383428337832683118700877587648740
:101CA0008485958593878287158214821F910F9171
:101CB00008950F931F93FC018B019A017183608338
:101CC00053834283CA01880F991F63E070E00E942A
:101CD000A22977836683C90163E070E00E94A2298C
:101CE00071876087158704878485958593878287A8
:101CF000158214821F910F910895FC0180819181BA
:101D00009587848784859585938782871582148239
:101D10000895DC011A96ED91FC911B9761931B9637
:101D2000FC93EE931A971A968D919C911B974D9167
:101D30005C911197841B950B12962D913C911397F2
:101D40008217930720F01B965C934E931A97149674
:101D50008D919C911597019615969C938E9314974F
:101D60000895DC0114968D919C911597892B11F49F
:101D70006FE326C01C96ED91FC911D9761911D9615
:101D8000FC93EE931C971C968D919C911D974D9101
:101D90005C911197841B950B12962D913C91139792
:101DA0008217930720F01D965C934E931C97149610
:101DB0008D919C911597019715969C938E931497EE
:101DC000862F0895AF92BF92CF92DF92EF92FF924B
:101DD0000F931F93CF93DF93EC015B018C859D855F
:101DE000E880F980E81AF90A8A819B81E80EF91ED9
:101DF0006C817D816A016417750708F46B01EC142E
:101E0000FD04D8F02C853D85C501B901A6010E94CD
:101E1000DE298C859D858C0D9D1D9D878C878C85ED
:101E20009D8548815981841B950B2A813B818217AE
:101E3000930708F15D874C871EC02C853D85C50141
:101E4000B901A7010E94DE29888199819D878C872D
:101E50004C855D8586010E191F0995012E0D3F1DCC
:101E6000C901BA01A8010E94DE298C859D85800FD9
:101E7000911F9D878C878C819D818C199D099D83E5
:101E80008C83C601DF91CF911F910F91FF90EF904E
:101E9000DF90CF90BF90AF900895AF92BF92CF9256
:101EA000DF92EF92FF920F931F93CF93DF937C010A
:101EB0005B01FC012281338184819581B901681B1A
:101EC000790B6417750710F06A0106C0F701848169
:101ED00095816901C81AD90AC114D10409F450C006
:101EE000F70182859385C081D181C81BD90BC20FB0
:101EF000D31FCC15DD05E8F022853385C901B50176
:101F0000A6010E94DE29F701828593858C0D9D1D17
:101F1000938782878285938540815181841B950BAD
:101F2000228133818217930710F053874287F7018C
:101F300021C0F70122853385C901B501AE010E9498
:101F4000DE29F701808191819387828722853385FD
:101F500086010C1B1D0BA5014C0F5D1FC901BA01A9
:101F6000A8010E94DE29F70182859385800F911FC9
:101F700093878287848195818C0D9D1D95838483B1
:101F8000C601DF91CF911F910F91FF90EF90DF90ED
:101F9000CF90BF90AF900895FC017183608353830D
:101FA00042830895FC0171836083538342830895C3
:101FB00008950895FC01808191819583848308951B
:101FC000CF93DF93EC01AC81BD818C91803211F015
:101FD000893021F41196BD83AC83F5CF882369F055
:101FE000EC81FD818081882351F0803261F089305D
:101FF00051F03196FD83EC83F3CFA0E0B0E0CD014A
:10200000DF91CF9108951192FD83EC83F8CFFB010E
:10201000DA0180E017C0282F2295207F892F805376
:102020008A3070F0892F8156863010F4865F08C0A0
:10203000892F8154863010F08FEF0895892F8753B0
:10204000822B31969081992331F78C9380E008950B
:10205000EF92FF920F931F93FB01DA0120E030E033
:1020600040E050E02DC079018A0184E0EE0CFF1CB5
:10207000001F111F8A95D1F7892F80538A3020F4D1
:10208000892F90E0C09712C0892F8156863028F49E
:10209000892F90E08755904009C0892F8154863060
:1020A00010F08FEF16C0892F90E0C7979C0144274E
:1020B00037FD4095542F2E293F29402B512B319627
:1020C0009081992381F62D933D934D935C931397C3
:1020D00080E01F910F91FF90EF900895AF92BF9213
:1020E000CF92DF92EF92FF920F931F93CF93DF93E4
:1020F0006C015B017A01FC0100811181C7010E9422
:10210000D109C5010E94F408EC0197FD45C08D304E
:102110009105D1F18A309105B9F1F6018081918163
:10212000C830D10591F480179107E8F4C70168E041
:102130000E94F609C70160E20E94F609C70168E043
:102140000E94F6090150104014C09801281B390B59
:10215000F6018281938102972817390720F4F8014C
:10216000C1938F0106C0C70167E00E94F609C7E06E
:10217000D0E0CE0180978F35910508F0BFCFC70121
:102180006C2F0E94F609BACFF8011082F601808107
:102190009181E801C81BD90BCE01DF91CF911F912E
:1021A0000F91FF90EF90DF90CF90BF90AF90089588
:1021B00084B714BE8093850B08950895089584B75D
:1021C00014BE8093850B0E9402230E94B7110895CC
:1021D0000E943D14FC018DEF91E09183808308956E
:1021E000FC018DEF91E0918380830895FC018DEFD8
:1021F00091E0918380830895FC018DEF91E09183BC
:10220000808308958DED9FEF089580E0089580917B
:10221000860B8F5F8093860B08958091860B81508B
:102220008093860B08959F92AF92BF92CF92DF92D8
:10223000EF92FF920F931F93CF93DF938C015B017B
:10224000942EE0908B0BF0908C0B85E090E0D70102
:1022500019969C938E931897D801ED91FC91048068
:10226000F581E02DC8010995EC01BFEF8D3D9B077D
:1022700009F05FC0D801ED91FC910284F385E02D57
:10228000C8010995D801ED91FC910680F781E02DF8
:10229000C8010995EC01CC24BFEF8D3D9B0751F49B
:1022A000CC24C394992031F4C701B5010E94E114F4
:1022B000D82E01C0DD24D801ED91FC910484F58570
:1022C000E02DC8010995BFEFCC3DDB0719F40E9452
:1022D0001813C2CFCC2069F1992019F0CCEFDFEFB1
:1022E00028C0DD2019F4CBEDDFEF23C0D801ED913C
:1022F000FC910084F185E02DC8010995882339F00F
:10230000F70115828FEF9FEF978386830AC00E94A3
:102310002F15D70118968D919C91199783309105AF
:1023200019F4C5EEDFEF05C0029709F095CFCEEFA7
:10233000DFEFF70180859185D80113969C938E93EA
:102340001297CE01DF91CF911F910F91FF90EF90E7
:10235000DF90CF90BF90AF909F900895FC018DEFDC
:1023600091E091838083CF010E94DD100895109247
:102370008D0B81E080938E0B10928F0B0895A895A2
:1023800080918E0B882369F420918B0B30918C0BFC
:102390008091890B90918A0B2817390711F090E0F2
:1023A00006C08091AA0B90E0823008F091E0892F5E
:1023B0000895FC0180918F0B90E0E817F9071CF05D
:1023C00020E030E006C0EE0FFF1FE057F44F208101
:1023D0003181C90108951092AC0B1092AB0B109291
:1023E000AE0B1092AD0B1092B00B1092AF0B10927F
:1023F000B20B1092B10B1092AA0B08951092AC0B75
:102400001092AB0B1092AE0B1092AD0B1092B00B62
:102410001092AF0B1092B20B1092B10B1092AA0B4C
:1024200008950F931F93CF93DF93BC0120E030E01A
:102430000DC0F901EE0FFF1FE555F44F808191812A
:102440008617970709F453C02F5F3F4F8091AA0B5F
:1024500090E0281739076CF345C0FE01EE0FFF1F0F
:10246000E555F44F0190F081E02D8285821738F018
:1024700021968091AA0B90E0C817D90774F3809138
:10248000AA0B90E0C817D9070CF58091AA0BA82FCA
:10249000B0E040E050E08D0113C0CD010197FC0198
:1024A000EE0FFF1FE555F44F20813181AA0FBB1FAE
:1024B000A555B44F11963C932E934F5F5F4FDC01AF
:1024C000C801841B950BC817D9073CF3CC0FDD1F3F
:1024D000C555D44F798368838091AA0B8F5F809311
:1024E000AA0B05C0FB012285C0E0D0E0C2CFDF917E
:1024F000CF911F910F9108951F939C018FB7F8946E
:102500008F9380918F0B843010F01FEF18C01091C3
:102510008F0B80918F0BE82FF0E0EE0FFF1FE0573D
:10252000F44F318320838F5F80938F0B1F3F39F0EF
:1025300080918D0B882319F0C9010E9411128F918F
:102540008FBF812F1F9108959C018091890B9091DD
:102550008A0B2817390791F1A0E0B0E00BC0FD010C
:10256000EE0FFF1FE555F44F80819181821793078D
:10257000C9F011968091AA0B90E0A817B9077CF3D7
:102580000895CD010196FC01EE0FFF1FE555F44FB4
:1025900020813181AA0FBB1FA555B44F11963C93E2
:1025A0002E93DC018091AA0B90E00197A817B90740
:1025B00044F38091AA0B81508093AA0B08951F9336
:1025C000CF93DF93A8958091860B882329F51FB7B9
:1025D000F894C0918B0BD0918C0BCE010E94A41269
:1025E0008C81882331F48D81882319F4CE010E94D7
:1025F00011128091AB0B9091AC0B90938C0B80934C
:102600008B0B80918B0B90918C0B02969093880B87
:102610008093870B1FBF08C0E0918B0BF0918C0B50
:1026200081E090E091878087DF91CF911F9108959D
:102630000F920FB6F8940F921F9211242F923F928F
:102640004F925F926F927F928F929F92AF92BF92C2
:10265000CF92DF92EF92FF920F931F932F933F93AE
:102660004F935F936F937F938F939F93AF93BF939A
:10267000CF93DF93EF93FF93A091870BB091880BDB
:102680000DB60D920EB60D920E94DF12A091870B2F
:10269000B091880BCD91CDBFDD91DEBFFF91EF9161
:1026A000DF91CF91BF91AF919F918F917F916F916A
:1026B0005F914F913F912F911F910F91FF90EF905C
:1026C000DF90CF90BF90AF909F908F907F906F9052
:1026D0005F904F903F902F901F900F900FBE0F90E4
:1026E00078940895FFCFAC0120E030E00CC0F901F0
:1026F000EE0FFF1FE555F44F8081918184179507F8
:1027000051F02F5F3F4F8091AA0B90E028173907B7
:1027100074F32FEF3FEFC90108958AE99BE00E940F
:10272000421982EA9BE00E94DF1808950E94C906C0
:102730000895AF92BF92CF92DF92EF92FF920F93E4
:102740001F93CF93DF935C016B0120E9E22E2BE016
:10275000F22EC0E0D0E000E010E011C0F70180816F
:102760009181009731F0B501A6010E94EF14C80FC6
:10277000D91F0F5F1F4F82E090E0E80EF91E809195
:102780008F0B90E0081719074CF3CE01DF91CF9122
:102790001F910F91FF90EF90DF90CF90BF90AF907F
:1027A0000895BC0180918B0B90918C0B0E94CA14F0
:1027B000882309F45BC00F920FB6F8940F921F9212
:1027C00011242F923F924F925F926F927F928F923D
:1027D0009F92AF92BF92CF92DF92EF92FF920F93B0
:1027E0001F932F933F934F935F936F937F938F9399
:1027F0009F93AF93BF93CF93DF93EF93FF93A091FA
:10280000870BB091880B0DB60D920EB60D920E94FB
:10281000DF12A091870BB091880BCD91CDBFDD91D8
:10282000DEBFFF91EF91DF91CF91BF91AF919F916B
:102830008F917F916F915F914F913F912F911F9158
:102840000F91FF90EF90DF90CF90BF90AF909F904F
:102850008F907F906F905F904F903F902F901F9040
:102860000F900FBE0F9078940895FFCFE0918B0BDF
:10287000F0918C0B80859185089530E9E32E3BE043
:10288000F32E00E010E016C0F701C081D1818C81E9
:10289000882319F4CE010E9411128A85882321F41D
:1028A000D0938A0BC093890B0F5F1F4F82E090E09B
:1028B000E80EF91E80918F0B90E00817190724F39A
:1028C0008091890B90918A0B892BF1F08091AB0B51
:1028D0009091AC0B90938C0B80938B0B80918B0B16
:1028E00090918C0B02969093880B8093870B0E949B
:1028F0003F190E949E2281E080938D0B8091860B70
:102900001092860B0E946422FFCFFC018FE092E0C0
:10291000918380830895FC018FE092E0918380830E
:102920000895DC01ED91FC910480F581E02D09957D
:1029300028E088E190E00FB6F894A89580936000B5
:102940000FBE20936000F894FFCFFFCFFC01648995
:1029500075890288F389E02D20E030E003C02F5F05
:102960003F4F3196AB01421B530B2617370718F424
:1029700080818A35A1F3CA010895DC011296ED9198
:10298000FC91139723A130E092A180E0282B392BF2
:10299000C9010895FC018091860B882329F081E00C
:1029A00090E09187808706C08FEF6F3F780721F412
:1029B0007187608780E008957783668381E08583EF
:1029C0000895FC018FEF6F3F780721F471876087CE
:1029D00080E008957783668381E085830895FC0114
:1029E0008FEF6F3F780719F420E030E01FC08FB7FA
:1029F000F8948F9385818823A9F08481882391F4AA
:102A0000868197818617970769F415828FEF9FEF6C
:102A10009783868351874087CF010E94111221E05E
:102A200030E002C020E030E08F918FBFC9010895EF
:102A3000FC018FB7F8948F931482CF010E9411127A
:102A40008F918FBF0895FC018FB7F8948F9381E029
:102A50008483CF010E94A4128F918FBF08958FB7F6
:102A600088230CF05DC001C0FFCF0F920FB6F89421
:102A70000F921F9211242F923F924F925F926F926A
:102A80007F928F929F92AF92BF92CF92DF92EF92FE
:102A9000FF920F931F932F933F934F935F936F93E7
:102AA0007F938F939F93AF93BF93CF93DF93EF93D6
:102AB000FF93A091870BB091880B0DB60D920EB6C7
:102AC0000D920E94DF12A091870BB091880BCD91DF
:102AD000CDBFDD91DEBFFF91EF91DF91CF91BF912F
:102AE000AF919F918F917F916F915F914F913F91A6
:102AF0002F911F910F91FF90EF90DF90CF90BF909B
:102B0000AF909F908F907F906F905F904F903F908D
:102B10002F901F900F900FBE0F9078940895A4CF20
:102B200008958F929F92AF92BF92CF92EF92FF92B1
:102B30000F931F93CF93DF93EC015A0149010115C5
:102B40001105A9F1E114F10491F14115510579F153
:102B50006115710561F17D876C875F874E871B8BDF
:102B60000A8BFD8AEC8ACA86398B288B8FEF9FEF00
:102B70009F838E83998788871C821D82CE010E9445
:102B80007C128B87C8016AE570E0A7010E94E729E3
:102B90000894E108F108C8018E0D9F1DB501A4013C
:102BA0002B8500E010E00E941B229B838A83DF912B
:102BB000CF911F910F91FF90EF90CF90BF90AF906A
:102BC0009F908F900895CF92EF92FF920F931F9353
:102BD000FC018FE092E091838083CF010E949115E8
:102BE0001F910F91FF90EF90CF900895CF92EF92A9
:102BF000FF920F931F93FC018FE092E091838083FB
:102C0000CF010E9491151F910F91FF90EF90CF90EF
:102C10000895CF92EF92FF920F931F93FC01DA0178
:102C20007901C02E8FE092E091838083CF0141E94A
:102C300054E19F018D010E9491151F910F91FF900A
:102C4000EF90CF900895CF92EF92FF920F931F9342
:102C5000FC01DA017901C02E8FE092E0918380833C
:102C6000CF0141E954E19F018D010E9491151F910F
:102C70000F91FF90EF90CF900895FC018FE092E0CC
:102C800091838083CF010E94DD100895FC018EE1C5
:102C900092E091838083CF010E94851408950F9361
:102CA0001F938C018EE192E0F80191838083C8012B
:102CB0000E948514C8010E94DD101F910F91089594
:102CC0008FB7F8948F9317988F918FBF83B7817FB9
:102CD00083BF88950E941813F3CFEF92FF920F9352
:102CE0007C01AC014A5E5F4F65E172E02AEA30E0A8
:102CF00000E00E9423168EE192E0F7019183808329
:102D00000F91FF90EF9008958130910541F46F5F2E
:102D10007F4F71F483EB9BE00E946D160895892B21
:102D200039F46F5F7F4F21F483EB9BE00E944616DE
:102D3000089580E090E06FEF7FEF0E948416089581
:102D400081E090E06FEF7FEF0E9484160895EF928C
:102D5000FF920F937C01AC014A5E5F4F65E172E028
:102D60002AEA30E000E00E9423168EE192E0F701AB
:102D7000918380830F91FF90EF900895FC01718300
:102D800060835383428315821482178216820895CA
:102D9000FC017183608353834283158214821782FE
:102DA00016820895FC01448155810190F081E02D47
:102DB00020E030E008C0828193816817790741F0F4
:102DC0002F5F3F4F369624173507ACF32FEF3FEFB9
:102DD000C90108958F929F92AF92BF92CF92DF92D6
:102DE000EF92FF920F931F93CF93DF937C018B01A0
:102DF0006A0159016115710509F457C0EC01AC81F4
:102E0000BD818A819B81A817B90709F44EC009903A
:102E1000D881C02DFE011A161B06CCF560E070E0CB
:102E2000808191810817190738F480819181801B76
:102E3000910B918380830AC080819181081B190BBB
:102E40006F5F7F4F36966A177B0754F3CD01880F6B
:102E5000991F8A0F9B1F880F991F8C0F9D1F9D0123
:102E600013C0AC01AAEF8A2EAFEF9A2E880E991EDE
:102E7000A6E0E40109904E01EA010992AE01A150D9
:102E8000C1F72150304006976217730754F311833E
:102E90000083D382C282B582A482F70184819581A6
:102EA00001969583848381E001C080E0DF91CF911A
:102EB0001F910F91FF90EF90DF90CF90BF90AF9058
:102EC0009F908F900895CF93DF93DC0114964D91DE
:102ED0005C9115971416150654F541305105F1F023
:102EE000CB01880F991F860F971F880F991F2D916F
:102EF0003C911197280F391F415050400AC0E901F9
:102F00002697F90186E0019009928150E1F76F5F01
:102F10007F4F2A5F3F4F641775078CF314968D918E
:102F20009C911597019715969C938E931497DF911A
:102F3000CF9108958F929F92AF92BF92CF92DF92DE
:102F4000EF92FF920F931F93CF93DF936C014B018E
:102F50008FB7F8948F93F60124813581C081D18198
:102F6000EE24FF2400E010E01EC08A819B818816B9
:102F70009906B1F4A880B980C601B8010E94631710
:102F80000894E11CF11CF601248135811216130608
:102F900054F4888199818A0D9B1D9983888303C08D
:102FA0000F5F1F4F269602171307FCF28F918FBFFA
:102FB000C701DF91CF911F910F91FF90EF90DF90AC
:102FC000CF90BF90AF909F908F900895CF92DF9257
:102FD000EF92FF920F931F93CF93DF93EC018B013E
:102FE0007A0169016115710571F0BA010E949A17A1
:102FF0008FB7F8948F93CE01B801A70196010E9474
:10300000EA168F918FBFDF91CF911F910F91FF90A3
:10301000EF90DF90CF900895EF92FF920F931F9360
:10302000CF93DF937C01FC01868197810196978382
:10303000868384819581181619060CF042C00081A0
:103040001181F80180819181019791838083808132
:103050009181892BB1F5F801828193810297D1F496
:10306000C481D581E881F9810480F581E02DCE010C
:103070000995C70160E070E00E9463178885882386
:10308000A9F06E817F81C70142E050E09E010E945D
:10309000EA160CC0F80182819381648175810E94D7
:1030A0009913C70160E070E00E946317F801808106
:1030B0009181892B31F4F7018481958118161906C5
:1030C00054F2DF91CF911F910F91FF90EF900895EF
:1030D000EF92FF920F931F93CF93DF938C017B01AD
:1030E000EA016115710519F425E030E046C08091D0
:1030F000860B882381F0F8012681378101C0A895CD
:10310000F80186819781821B930B8E159F05B8F37A
:1031100020E030E032C04115510521F4C0918B0B05
:10312000D0918C0BC801BE010E949A178FB7F894FA
:103130008F93C801B701AE019E010E94EA16882351
:1031400059F080918B0B90918C0BBE010E94CA1498
:10315000882311F091E001C090E08F918FBF9923F7
:1031600031F080918B0B90918C0B0E942F15E09188
:103170008B0BF0918C0B20853185C901DF91CF91AC
:103180001F910F91FF90EF900895FC018FB7F89475
:103190008F938091870C9091880CA091890CB091AD
:1031A0008A0C80839183A283B3838091850C909154
:1031B000860CFB01918380838F918FBF089563E715
:1031C0007CE043E050E00E94BE161092860C109204
:1031D000850C1092870C1092880C1092890C10921A
:1031E0008A0C089563E77CE043E050E00E94BE163D
:1031F0001092860C1092850C1092870C1092880CFD
:103200001092890C10928A0C08950F931F938C01D1
:103210000E949C22C8010E940C180E949613809163
:10322000850C9091860C01969093860C8093850C6A
:103230008091850C9091860C885E9340E9F4109201
:10324000860C1092850C0E949D2282EA9BE00E94CF
:103250000C188091870C9091880CA091890CB091EA
:103260008A0C0196A11DB11D8093870C9093880C48
:10327000A093890CB0938A0C1F910F9108950E941E
:10328000902208956BE87CE043E050E00E94BE1677
:1032900008956BE87CE043E050E00E94BE1608957C
:1032A000FC0188E292E0918380838FEF9FEF93830C
:1032B0008283158214821782168210867287618734
:1032C0000895FC0188E292E0918380838FEF9FEF65
:1032D00093838283158214821782168210867287E6
:1032E00061870895FC0188E292E0918380830895CC
:1032F000FC0188E292E0918380830895FC011782AB
:10330000168210860895FC0173836283558344837B
:103310000895FC0182819381FFEF8F3F9F0719F48D
:103320002FEF3FEF03C00E94D1139C01C901089504
:10333000FC0182819381FFEF8F3F9F0711F00E9474
:1033400099130895FC0164817581828193810E94A3
:1033500099130895FC017783668340878185928560
:1033600042E050E09F010E94E6170895FC0188E2C8
:1033700092E091838083CF010E94DD100895FC01CB
:1033800080819181946091838083CF010895FC01B5
:10339000808191819B7F91838083CF010895FC017F
:1033A000808191818F71806291838083CF010895A4
:1033B000FC01808191818F71806891838083CF012E
:1033C0000895EF92FF920F931F93CF93DF93EC0139
:1033D0007B018A819B818F7180629B838A83DB0161
:1033E0001B966C91CE0170E00E948D0BCE0160E2C5
:1033F0000E94410AFC01828193818F719B7F8068CA
:10340000946093838283CF01B7010E94810BCE0128
:1034100060E20E94410AF701648575850E94BE0939
:10342000CE016EE272E00E94BE09FC0182819381AE
:103430008F71806293838283D7011A966C91CF013A
:1034400070E00E94A50BCE0165E372E00E94BE0908
:103450008C01C7010E94BD1460E0892B09F061E076
:10346000C8010E944C0ACE016BE372E00E94BE09C3
:10347000FC01828193818F71806893838283D7015D
:1034800052966D917C915397CF010E94810BCE0192
:1034900062E472E00E94BE09FC01828193818F7117
:1034A000806293838283D70154966D917C91559766
:1034B000CF010E94810B64E472E00E94BE098A8100
:1034C0009B818F7180689B838A83F70162817381FE
:1034D000CE010E94810BCE0162E472E00E94BE091F
:1034E0008C01DC0112968D919C9113978F718062F3
:1034F00013969C938E931297C7010E94A614BC0149
:10350000C8010E94810B67E472E00E94BE09F701C6
:103510008481882329F0CE0169E472E00E94BE090B
:10352000D70115968C918823A1F0CE0165E572E054
:103530000E94BE09FC01828193818F718068938310
:103540008283D70116966D917C911797CF010E94C7
:10355000A50B8A819B819B7F9B838A83CE01DF9110
:10356000CF911F910F91FF90EF900895E1EFF0E060
:10357000208130E04081942F80E0282B392BC90135
:103580000895AF92BF92CF92DF92EF92FF920F9386
:103590001F93E1EFF0E0A080BB24CC24DD24208148
:1035A0008081E08030E040E050E0542F432F322F04
:1035B000222790E0A0E0B0E0DC0199278827282BA3
:1035C000392B4A2B5B2B2A293B294C295D29FF24C7
:1035D00000E010E01E2D0027FF24EE242E293F29B5
:1035E000402B512BB901CA011F910F91FF90EF9011
:1035F000DF90CF90BF90AF900895E1EFF0E080832F
:1036000090830895E1EFF0E06083272F382F492F52
:10361000552720839C01442755272083692F77272E
:1036200088279927608308950E94472308950E9460
:10363000472308950F931F938C018FE992E0F801BF
:1036400091838083C8010E947C0DC8010E94DD1017
:103650001F910F910895FC018FE992E0918380837F
:10366000CF010E947C0D0895FC018FE992E09183C7
:103670008083CF010E947C0D08950F931F93CF93F9
:10368000DF93EC018B010E942C1F81E692E099836D
:1036900088831F8A188E1E8B0D8B012B81F481E08D
:1036A00090E09E8F8D8F82E090E098A38F8F83E0D3
:1036B00090E09AA389A3D0939E0CC0939D0CDF91B8
:1036C000CF911F910F9108950F931F93CF93DF9385
:1036D000EC018B010E942C1F81E692E09983888384
:1036E0001F8A188E1E8B0D8B012B81F481E090E0D8
:1036F0009E8F8D8F82E090E098A38F8F83E090E083
:103700009AA389A3D0939E0CC0939D0CDF91CF9177
:103710001F910F9108959C01285F3F4FC9010895A3
:103720009C01245F3F4FC90108959C01265F3F4FD4
:10373000C9010895FC01A081B18196962D913C911B
:103740009797F9010995089581E00895CF93DF9344
:10375000EC011B828A81882319F428EF3FEF09C00E
:10376000E881F98104A0F5A1E02DCE0109959C0125
:103770001A82C901DF91CF910895FC0182818823CB
:1037800011F490E003C0938181E09827892F089578
:1037900060E070E080E090E00895FC01A081B181DC
:1037A000D6962D913C91D797F90109950895CF921E
:1037B000DF92EF92FF920F931F93CF93DF938C01D1
:1037C0006B017A01C0E0D0E0D801ED91FC9100A836
:1037D000F1A9E02DC8010995882389F0CE15DF05F0
:1037E00074F4D801ED91FC91D601AC0FBD1F02A875
:1037F000F3A9E02DC8016C9109952196E5CFCE0182
:10380000DF91CF911F910F91FF90EF90DF90CF90BC
:103810000895DC0112968C911297882319F428EFF1
:103820003FEF09C0ED91FC91119700ACF1ADE02D97
:10383000CD0109959C01C9010895FC01A081B181C8
:103840009A962D913C919B97F90109950895CF92F5
:10385000DF92EF92FF920F931F93CF93DF938C0130
:103860007B016A01C0E0D0E0C8010E941D1C18164F
:10387000190684F4CC15DD056CF4D801ED91FC91AA
:1038800004A4F5A5E02DC8010995F70181937F01F6
:103890002196EACFCE01DF91CF911F910F91FF903A
:1038A000EF90DF90CF9008950E941D1C08950E9414
:1038B000091C089580E00895FC018FE992E091834E
:1038C0008083CF010E947C0D08950F931F938C017C
:1038D0008FE992E0F80191838083C8010E947C0DFA
:1038E000C8010E94DD101F910F910895CF92DF92C1
:1038F000EF92FF920F931F93CF93DF93EC017B0125
:103900006A0189018A81882319F428EF3FEFA5C055
:10391000E881F98102A4F3A5E02DCE0109951816DE
:1039200019060CF48CC0F801118210828FB7F8943C
:103930008F93E881F98100A4F1A5E02DCE010995CE
:10394000882351F4E881F98106A0F7A1E02DCE018A
:103950000995882309F08BC020E091E08F918FBFFB
:10396000992309F046C0222331F080918B0B90916E
:103970008C0B0E942F15E0918B0BF0918C0B8085A6
:10398000918582309105C9F4E881F98102A4F3A5FB
:10399000E02DCE0109951816190664F4E881F98125
:1039A00006A4F7A5E02DCE01B701A6010995F801FF
:1039B000918380832EEF3FEF50C0039709F0B6CF7D
:1039C000E881F98102A4F3A5E02DCE01099518162E
:1039D000190664F4E881F98106A4F7A5E02DCE016B
:1039E000B701A6010995F8019183808325EE3FEF89
:1039F00034C0CE010E949A1BE881F9818823B9F472
:103A000002A4F3A5E02DCE0109951816190664F459
:103A1000E881F98106A4F7A5E02DCE01B701A60142
:103A20000995F801918380832DEF3FEF16C002A422
:103A3000F3A5E02DCE0109951816190664F4E88166
:103A4000F98106A4F7A5E02DCE01B701A6010995DD
:103A5000F8019183808320E030E0C901DF91CF91AC
:103A60001F910F91FF90EF90DF90CF90089580917C
:103A70008B0B90918C0B6A857B850E94CA14282F32
:103A800090E06CCFCF93DF93EC018A81882319F407
:103A900028EF3FEF49C08B81882309F043C08FB7DF
:103AA000F8948F93E881F98100A4F1A5E02DCE016F
:103AB0000995882349F4E881F98106A0F7A1E02D52
:103AC000CE0109958823A1F520E091E08F918FBF69
:103AD0009923B9F4222331F080918B0B90918C0BB8
:103AE0000E942F15E0918B0BF0918C0B80859185B6
:103AF0008230910519F42EEF3FEF16C0039779F647
:103B000011C0CE010E949A1B882319F42DEF3FEFBC
:103B10000BC0E881F98104A4F5A5E02DCE0109953B
:103B20009C0102C025EE3FEFC901DF91CF910895BE
:103B300080918B0B90918C0B6A857B850E94CA14B7
:103B4000282F90E0C3CF0E94421D9C0197FF02C026
:103B50002FEF3FEFC9010895AF92BF92CF92DF924E
:103B6000FF920F931F93CF93DF93EC015B016A01E8
:103B70008A81882319F428EF3FEF53C000E010E05A
:103B80008FB7F8948F93E881F98100A8F1A9E02D0F
:103B9000CE010995882351F4E881F98106A0F7A1A7
:103BA000E02DCE010995882309F046C0FF2491E05D
:103BB0008F918FBF992391F0E881F981B501600F52
:103BC000711FA601401B510B04A8F5A9E02DCE01E1
:103BD0000995080F191F0C151D05D1F0FF2031F0B4
:103BE00080918B0B90918C0B0E942F15E0918B0B89
:103BF000F0918C0B808591858230910519F42EEF20
:103C00003FEF0FC0039709F0BBCF25EE3FEF09C090
:103C1000CE010E949A1B882311F0980102C02DEF5B
:103C20003FEFC901DF91CF911F910F91FF90DF907E
:103C3000CF90BF90AF90089580918B0B90918C0B9B
:103C40006C857D850E94CA14F82E90E0B1CF1F9339
:103C5000CF93DF93EC01162F8A81882319F468EF44
:103C60007FEF46C08FB7F8948F93E881F98100A861
:103C7000F1A9E02DCE010995882349F4E881F98165
:103C800006A0F7A1E02DCE0109958823B1F520E02B
:103C900091E08F918FBF9923C9F4222331F0809155
:103CA0008B0B90918C0B0E942F15E0918B0BF09158
:103CB0008C0B808591858230910519F46EEF7FEF32
:103CC00017C0039779F665EE7FEF12C0CE010E9410
:103CD0009A1B882319F46DEF7FEF0AC0E881F98100
:103CE00002A8F3A9E02DCE01612F0995612F70E0A4
:103CF000CB01DF91CF911F91089580918B0B909113
:103D00008C0B6C857D850E94CA14282F90E0C1CF52
:103D10000E94271E9C0197FF02C02FEF3FEFC901B1
:103D200008951F93CF93DF93EC011B828A81882330
:103D300019F029EF3FEF5FC0E881F981048CF58D20
:103D4000E02DCE01099599878887E881F981068C55
:103D5000F78DE02DCE0109959B878A87E881F9814F
:103D600000A0F1A1E02DCE0109959D878C87E88107
:103D7000F98102A0F3A1E02DCE0109959C0197FDE8
:103D80003AC08FB7F8948F93E881F98106A0F7A124
:103D9000E02DCE010995182F882311F090E009C07D
:103DA00080918B0B90918C0B688579850E94CA1449
:103DB000982F8F918FBF1123D1F4992331F08091E7
:103DC0008B0B90918C0B0E942F15E0918B0BF09137
:103DD0008C0B808591858230910519F42EEF3FEF91
:103DE0000AC0039709F0CDCF25EE3FEF04C081E074
:103DF0008A8320E030E0C901DF91CF911F910895BF
:103E00000F931F938C0181E0F80183838085918556
:103E100063E070E00E949913F8018285938563E066
:103E200070E00E9499131F910F9108950F931F93B3
:103E30008C010E94700D8FE992E0F80191838083DC
:103E40008FEF9FEF938782879587848791878087FD
:103E500012821F910F9108950F931F938C010E945E
:103E6000700D8FE992E0F801918380838FEF9FEFCF
:103E700093878287958784879187808712821F9195
:103E80000F910895FC01A081B181A05CBF4F2D91DD
:103E90003C91F901099580E090E0089581E0089552
:103EA00080E090E00895FC018FB7F8948F93228909
:103EB00033898F918FBF80E0232B09F081E0089533
:103EC000FC018FB7F8948F93228933898F918FBF2C
:103ED000C9010895CF93DF93EC018BA58823A9F442
:103EE0008FB7F8948F932A893B898F918FBF8E89E2
:103EF0009F892817390748F4E881F98104ACF5ADAA
:103F0000E02DCE01099581E08BA7DF91CF91089537
:103F10000895FC018FB7F8948F9320A131A18F9160
:103F20008FBF40E0868D978D2817390709F041E053
:103F3000842F0895DC018FB7F8948F9390968D911C
:103F40009C919197892B51F0ED91FC911197EE5B2B
:103F5000FF4F0190F081E02DCD0109958F918FBF2A
:103F600080E090E00895FC0182A508950F931F93CF
:103F70008C018FE992E0F80191838083C8010E944F
:103F80007C0DC8010E94DD101F910F910895FC0166
:103F90008FE992E091838083CF010E947C0D089588
:103FA000FF920F931F938C018FB7F8948F93C801E2
:103FB0000E960E94B10EF82E8F918FBFC8010E94FD
:103FC0006A1F8F2D90E01F910F91FF900895CF935E
:103FD000DF93EC0188A199A1892B59F4E881F9813B
:103FE000EC5BFF4F0190F081E02DCE0109951AA600
:103FF0001BC0CE014C960E94B10E682FE881F9815A
:10400000E85BFF4F0190F081E02DCE01099528A1DA
:1040100039A18CA19DA12817390730F48C859D8585
:1040200060E070E00E949913DF91CF9108950F93A3
:104030001F93CF93DF93EC018FB7F8948F93CE014A
:104040004C960E944D0F182F092F28A139A18AA143
:104050009BA18217930758F4E881F981EE5BFF4F2B
:104060000190F081E02DCE01099581E08AA78F9122
:104070008FBF812F902FDF91CF911F910F910895C6
:104080001F93CF93DF93EC01162F8FB7F8948F9384
:10409000CE014C960E94890E28A139A18AA19BA12C
:1040A0008217930758F4E881F981EE5BFF4F019086
:1040B000F081E02DCE01099581E08AA78F918FBF15
:1040C000812F90E0DF91CF911F910895CF93DF93DF
:1040D000EC01E881F981EA5BFF4F0190F081E02D6E
:1040E0000995682F2A893B89888999892817390772
:1040F00021F0CE010E960E94890E8A859B8560E094
:1041000070E00E949913DF91CF910895EF92FF9292
:104110000F931F938C018FB7F8948F93C8010E965D
:104120000E94E20EF82EE92E8F918FBFC8010E94E7
:104130006A1F8F2D9E2D1F910F91FF90EF90089574
:104140000F931F938C010E960E947D0EC8014C9612
:104150000E947D0ED801ED91FC9106ACF7ADE02DEB
:10416000C801099580E090E01F910F9108956F922A
:104170007F928F929F92AF92BF92CF92DF92EF92F7
:10418000FF920F931F93DF93CF93CDB7DEB73C0120
:104190004C960E94430EC3010E96B701A6019501ED
:1041A00084010E94430E81E0F30183A7CF91DF9148
:1041B0001F910F91FF90EF90DF90CF90BF90AF9045
:1041C0009F908F907F906F9008956F927F928F92C3
:1041D0009F92AF92BF92CF92DF92EF92FF920F9396
:1041E0001F935C014B017A01390168010E942C1F69
:1041F0008DED92E0F501918380839701220F331FAB
:104200002E0D3F1D3695279536952795C5010E969F
:10421000B401A701F694E794F694E79487010E940D
:104220002D0E9601220F331F2C0D3D1D369527951F
:1042300036952795C5014C96B301A601D694C7942F
:10424000D694C79486010E942D0EF50112A681E036
:1042500083A71F910F91FF90EF90DF90CF90BF90B9
:10426000AF909F908F907F906F9008956F927F9204
:104270008F929F92AF92BF92CF92DF92EF92FF9276
:104280000F931F935C014B017A01390168010E9471
:104290002C1F8DED92E0F501918380839701220F11
:1042A000331F2E0D3F1D3695279536952795C50151
:1042B0000E96B401A701F694E794F694E79487016B
:1042C0000E942D0E9601220F331F2C0D3D1D369599
:1042D000279536952795C5014C96B301A601D6942E
:1042E000C794D694C79486010E942D0EF50112A69C
:1042F00081E083A71F910F91FF90EF90DF90CF9007
:10430000BF90AF909F908F907F906F9008952F9265
:104310003F924F925F926F927F928F929F92AF9255
:10432000BF92CF92DF92EF92FF920F931F93DF9392
:10433000CF9300D0CDB7DEB73C012B011A013A83F1
:1043400029830E942C1F8DED92E0F30191838083DD
:10435000C3010E96B201A10129813A810E942D0E5E
:10436000C3014C96B701A601950184010E942D0E50
:10437000F30112A681E083A70F900F90CF91DF91F8
:104380001F910F91FF90EF90DF90CF90BF90AF9073
:104390009F908F907F906F905F904F903F902F9065
:1043A00008952F923F924F925F926F927F928F92D9
:1043B0009F92AF92BF92CF92DF92EF92FF920F93B4
:1043C0001F93DF93CF9300D0CDB7DEB73C012B0115
:1043D0001A013A8329830E942C1F8DED92E0F3018C
:1043E00091838083C3010E96B201A10129813A8194
:1043F0000E942D0EC3014C96B701A60195018401C0
:104400000E942D0EF30112A681E083A70F900F905A
:10441000CF91DF911F910F91FF90EF90DF90CF90A0
:10442000BF90AF909F908F907F906F905F904F90D4
:104430003F902F900895FC01208391E1929322E216
:10444000229383E3829362937293129280E8829321
:10445000129282E0829383E0829384E0829385E0EB
:10446000829386E0829387E0829388E0829389E05A
:10447000829380E18293929382E1829383E182939B
:1044800084E1829385E1829386E1829387E182933E
:1044900088E1829389E1829380E2829381E2829330
:1044A000229383E282934293529386E2829387E23D
:1044B000829388E2829389E2829380E3829381E30C
:1044C00082933197CF010895A091870BB091880B0B
:1044D000CD91CDBFDD91DEBFFF91EF91DF91CF9107
:1044E000BF91AF919F918F917F916F915F914F910C
:1044F0003F912F911F910F91FF90EF90DF90CF9000
:10450000BF90AF909F908F907F906F905F904F90F3
:104510003F902F901F900F900FBE0F900895FFCFE8
:104520008CE787BD82E084BD83E885BDEEE6F0E0E0
:1045300080818260808308950895089508950F9280
:104540000FB6F8940F921F9211242F923F924F9220
:104550005F926F927F928F929F92AF92BF92CF9213
:10456000DF92EF92FF920F931F932F933F934F93FE
:104570005F936F937F938F939F93AF93BF93CF93EB
:10458000DF93EF93FF93179AA091870BB091880B5D
:104590000DB60D920EB60D928AE99BE00E940519A8
:1045A0000E94BF11882311F00E94DF12A091870B97
:1045B000B091880BCD91CDBFDD91DEBFFF91EF9122
:1045C000DF91CF91BF91AF919F918F917F916F912B
:1045D0005F914F913F912F911F910F91FF90EF901D
:1045E000DF90CF90BF90AF909F908F907F906F9013
:1045F0005F904F903F902F901F900F900FBE0F90A5
:104600001895FFCF0895FC01808191818F7180689A
:1046100091838083CF010895EF92FF920F931F93B0
:10462000CF93DF93EC017B018A819B8192FF0FC0C6
:10463000CE0160E30E94F6098A819B8195FF03C049
:10464000CE0168E502C0CE0168E70E94F6096F2D31
:10465000661F6627661F605DCE010E94F6090A810B
:104660001B81C8018F719B7F80689B838A83EE0CBE
:10467000FF1CCE01B7010E94A50B1B830A83CE014C
:10468000DF91CF911F910F91FF90EF9008950895C2
:1046900008959091EB0091609093EB008093EC0073
:1046A0008091ED008270862B8093ED008091ED006B
:1046B00082608093ED008091EE00881F8827881F1C
:1046C0000895EF920F93982F8E2D9093E9006295A5
:1046D000660F660F607C642B880F000F000F229519
:1046E000207F202B862B622F0E9449230F91EF9071
:1046F0000895EF920F938091D8008F7B8093D8001C
:104700008091D90081FF1BC01092E9008091EB00DD
:1047100080FD15C080E060E040E023E000E0EE2492
:10472000E3940E946123282F30E02115310529F000
:104730008091F00088608093F000822F01C080E0BB
:104740000F91EF9008958EE089BD09B400FEFDCF72
:104750008091D8008F7D8093D8008091E2008160A5
:104760008093E2008091E20088608093E2000E94E2
:1047700079238091E0008E7F8093E0001092AA0C54
:10478000089582B194E0892782B98091DA0080FF90
:104790002FC08091D80080FF2BC08EEF8093DA006D
:1047A0008091D90080FF19C081E08093AA0C80918C
:1047B0009F0C9091A00C82609093A00C80939F0C12
:1047C0008091E20088608093E2000E94A3238091A0
:1047D000E0008E7F8093E0000BC01092AA0C8091C5
:1047E0009F0C9091A00C84609093A00C80939F0CE0
:1047F0008091E10082FF07C08091E20082FF03C048
:104800008BEF8093E1008091E10080FF1DC08091DB
:10481000E20080FF19C08EEF8093E1008091E200FA
:1048200080618093E2008FEE8093E1008091D80058
:1048300080628093D80080919F0C9091A00C806240
:104840009093A00C80939F0C8091E10084FF18C08E
:104850008091E2008091D8008F7D8093D8008FEE08
:104860008093E1008091E2008F7E8093E20080914E
:104870009F0C9091A00C80649093A00C80939F0C4F
:104880008091E10085FF1AC08091E20085FF16C08B
:104890008091E2008F7E8093E2008FED8093E100B3
:1048A0008091E2008F7D8093E20080919F0C909137
:1048B000A00C80689093A00C80939F0C8091E100E5
:1048C00083FF12C08091E20083FF0EC087EF8093C8
:1048D000E1000E94792380919F0C9091A00C91603F
:1048E0009093A00C80939F0C82B194E0892782B9A9
:1048F00008951F920F920FB60F920BB60F921124CC
:104900002F933F934F935F936F937F938F939F93D7
:10491000AF93BF93EF93FF938FB7F8948F93179A4A
:104920008F918FBF0E94C123FF91EF91BF91AF91F3
:104930009F918F917F916F915F914F913F912F91B7
:104940000F900BBE0F900FBE0F901F901895809187
:10495000E800877F8093E8008091AB0C8093F100A2
:104960008091E8008E7F8093E8008091E8008F7747
:104970008093E8008091E80082FFFCCF8091E800FE
:104980008B7F8093E8008091E8008F778093E80028
:1049900008959091F1008091E3009F778078982BA3
:1049A0009093E3008091E800877F8093E8008091F6
:1049B000E8008E7F8093E8008091E80080FFFCCFC4
:1049C0008091E30080688093E30008958091A50CB6
:1049D0008823D9F18130C9F1823009F04BC0809130
:1049E000F1009091F1008823D9F5E091F100EF7783
:1049F000E093E9008091EB0080FF27C0EE23B1F047
:104A00008091EB0080618093EB0081E090E00E2EBE
:104A100002C0880F991F0A94E2F78093EA0010926F
:104A2000EA008091EB0088608093EB001092E9002F
:104A3000F0E0EA55F34F10828091E800877F809381
:104A4000E8008091E8008E7F08C08091EB008062D2
:104A50008093EB008091E800877F8093E8000895C1
:104A60008091EB0080628093EB008091E800877F6B
:104A70008093E80008958091A50C813039F182304F
:104A8000D1F58091F1009091F100882351F5E091EA
:104A9000F100EF77D9F0E093E9008091EB0080FF1F
:104AA00015C08091EB0080628093EB001092E900CA
:104AB000F0E0EA55F34F81E080838091E800877F42
:104AC0008093E8008091E8008E7F08C08091EB0021
:104AD00080628093EB008091E800877F8093E800FC
:104AE00008958091EB0080628093EB008091E80054
:104AF000877F8093E80008958091F1008091F10014
:104B0000E091F1008091A50C813821F0823851F0BC
:104B10008038B1F48091E800877F8093E80010929C
:104B2000F10017C08091E800877F8093E800F0E0F3
:104B3000EF77F070EA55F34F80818093F10009C060
:104B40008091EB0080628093EB008091E800877F8A
:104B500013C01092F1008091E8008E7F8093E800EE
:104B60008091E80082FFFCCF8091E8008B7F8093EA
:104B7000E8008091E8008F778093E8000895EBEEDD
:104B8000F0E0808180628083E8EEF0E08081877FC2
:104B9000808308958091E800877F8093E80080916A
:104BA000E8008E7F8093E8008091E80080FFFCCFD2
:104BB00008951092A60C1092A70C1092A80C1092B7
:104BC000A90C1092AA0C1092AB0C08958093A10C22
:104BD0007093A30C6093A20C08950E9485290895F8
:104BE0001092A40C6091F1008091F100813019F0D5
:104BF000823089F406C082E18093A10C88E990E0BC
:104C000005C083E48093A10C8AEA90E09093A30C02
:104C10008093A20C0DC00E94ED25882349F4809159
:104C2000EB0080628093EB008091E800877F53C0A7
:104C30000E94B61A0E94B61AAC018091E800877FE4
:104C40008093E8008091A10C282F30E024173507CD
:104C500088F42F733070232B51F481E08093A40CDF
:104C60002091A20C3091A30C4091A10C1FC0109276
:104C7000A40CF6CF4093A10CF3CF8091E80080FF05
:104C8000FCCFF90190E00AC0542F5150903449F004
:104C90009F5F84918093F1003196452F9F014423BB
:104CA00099F78091E8008E7F8093E800442341F1DA
:104CB0008091E80082FFE1CF2093A20C3093A30CF7
:104CC0004093A10C23C08091E8008B7F8093E80083
:104CD0008091E8008F778093E80008958091A40C7C
:104CE000882349F08091E80080FFFCCF8091E800A4
:104CF0008E7F8093E8008091E80082FFFCCFE3CFB5
:104D00002093A20C3093A30C1092A10C8091E80088
:104D10008E7F8093E8008091E80082FFDFCFD3CFC1
:104D20000E947F2808959091F100923080F4809144
:104D3000E800877F8093E8009093AB0C8091E800B7
:104D40008E7F8093E800892F0E947F2808958091AC
:104D5000EB0080628093EB008091E800877F809376
:104D6000E80008950E946E2908959091F1009093B3
:104D7000A50C6091F1006630C1F0673050F46130ED
:104D800041F1613080F1633049F1653009F044C090
:104D900016C06930C9F06A3018F46830E9F50AC005
:104DA0006A3041F16B30C1F532C09038A9F50E94EC
:104DB000F0250895903881F50E94A724089599233D
:104DC00059F50E94C9240895992331F50E9493262C
:104DD0000895933008F50E94E62408959330E0F496
:104DE0000E943B250895892F80588330A8F40E94A3
:104DF0007C250895913881F48091EB008062809346
:104E0000EB008091E800877F8093E800089591305F
:104E100019F40E94CA250895892F0E94B22688237A
:104E200051F48091EB0080628093EB008091E80068
:104E3000877F8093E800089582B194E0892782B942
:104E40008091F40080FF0CC01092E9008091E8008E
:104E500083FF06C08091F00083FF02C00E94B52648
:104E60000E94E72882B194E0892782B908951F92B1
:104E70000F920FB60F920BB60F9211242F933F9300
:104E80004F935F936F937F938F939F93AF93BF9352
:104E9000EF93FF938FB7F8948F93179A8F918FBFEB
:104EA0000E941C27FF91EF91BF91AF919F918F912D
:104EB0007F916F915F914F913F912F910F900BBE1A
:104EC0000F900FBE0F901F901895FC018FB7F894AC
:104ED0008F938F918FBF8091AC0C882341F5809187
:104EE000D70081608093D7008091D7008F7B80931B
:104EF000D7008091D70080688093D7008091D80038
:104F00008F768093D8008091D80080698093D800F4
:104F10008091D8008F7B8093D8008091D8008160E9
:104F20008093D80081E08093AC0C0A9A1298128E7C
:104F3000118E148E138E108E80E090E008959C01E7
:104F4000285E3F4FC9010895FC0187890895FC013F
:104F5000108E80E090E0089581E008959C01275E26
:104F60003F4FC9010895FC018789882319F46DEF2B
:104F70007FEF22C08FB7F8948F9302C09093E9001F
:104F80008091E800958D85FFF9CF9093E9006093BB
:104F9000F100818D928D0196928F818F8091E80032
:104FA00085FD07C08091E8008F778093E800128E1E
:104FB000118E8F918FBF70E0CB010895DC01579661
:104FC0008C915797882319F42DEF3FEF3FC041157F
:104FD000510519F420E030E039C08FB7F8948F9371
:104FE00005C05D968C915D978093E9008091E80003
:104FF00085FFF7CF24C05D968C915D978093E90083
:10500000FB01E20FF31F80818093F1002F5F3F4F80
:1050100059968D919C915A9701965A969C938E938E
:1050200059978091E80085FD0CC08091E8008F774A
:105030008093E8005A961C921E92599705C020E072
:1050400030E024173507BCF28F918FBFC901089556
:10505000FC018789882319F42DEF3FEF15C08FB726
:10506000F8948F93818D928D892B51F0858D80934B
:10507000E9008091E8008F778093E800128E118E0E
:105080008F918FBF20E030E0C9010895FC018FB7F8
:10509000F8948F93878D8093E9002091F2003091EE
:1050A000F300C901238F348F2F912FBF08950E94E1
:1050B000462820E0892B09F021E0822F08959C01E9
:1050C000255E3F4FC9010895FC018FB7F8948F9377
:1050D000878D8093E9002091F1008091F2009091FA
:1050E000F300948F838F892B29F48091E8008F77C8
:1050F0008093E8008F918FBF822F90E00895EF9208
:105100000F9383E063E041E022E000E0EE240E94A0
:10511000612381E062E041E022E00E94612382E0BD
:1051200062E040E022E001E00E94612392E090937F
:10513000E900E0EFF0E0808184608083EAEEF0E057
:1051400088E0808310829083108284E080831082C4
:105150000F91EF9008950F931F930E94B61A8C0140
:105160000E94B61A980121703070422F009729F4DE
:10517000E0919D0CF0919E0C278B442351F0129AE4
:10518000892BA1F4E0919D0CF0919E0C8085918576
:1051900009C01298892B51F4E0919D0CF0919E0C5E
:1051A0008285938560E070E00E9499138091E80009
:1051B000877F8093E8008091E8008E7F8093E800ED
:1051C0008091E80080FFFCCF1F910F91089580919E
:1051D000F40082FF1AC082E08093E9008091E80029
:1051E00082FF13C08091F00082FF0FC08091E80021
:1051F0008B7F8093E800E0919D0CF0919E0C82855E
:10520000938560E070E00E9499130895CF93DF9337
:10521000EC010E94B61A0E94B61A8091E800877FBE
:105220008093E8008091E80082FFFCCF0E94C11AC1
:105230006E877F87888B998B8091F1008A8B809114
:10524000F1008B8B8091F1008C8B8091E8008B7F3B
:105250008093E8008091E8008F778093E800809148
:10526000E8008E7F8093E8008091E80080FFFCCF0B
:10527000DF91CF9108950F931F938C018091E800E7
:10528000877F8093E800F80166857785808991891A
:105290000E94021BF80182898093F1008389809328
:1052A000F10084898093F1008091E8008E7F8093E3
:1052B000E8008091E80080FFFCCF8091E80082FF49
:1052C000FCCF8091E8008B7F8093E8008091E8001C
:1052D0008F778093E8001F910F91089580919D0C26
:1052E00090919E0C613231F0623259F0603229F0B7
:1052F00080E008950E943B2902C00E94062981E0B7
:1053000008950E94AB2881E008958330B1F46130A4
:1053100049F0613018F0623081F408C084E06DEE2D
:1053200070E007C084E361EF70E003C088E265E2EB
:1053300071E00E94E62581E0089580E008950E94D2
:10534000271C0895AA1BBB1B51E107C0AA1FBB1F46
:10535000A617B70710F0A61BB70B881F991F5A9501
:10536000A9F780959095BC01CD010895A1E21A2E70
:10537000AA1BBB1BFD010DC0AA1FBB1FEE1FFF1FF9
:10538000A217B307E407F50720F0A21BB30BE40B49
:10539000F50B661F771F881F991F1A9469F7609590
:1053A0007095809590959B01AC01BD01CF0108954A
:1053B000EE0FFF1F0590F491E02D0994FB01DC0135
:1053C00002C001900D9241505040D8F70895DC0181
:1053D00001C06D9341505040E0F7089511E0C4E5DD
:1053E000D1E004C0FE010E94DA292296C835D10717
:0653F000C9F7F894FFCF9D
:1053F6000000000017020602BE0DC10DC60D571CA7
:10540600541CD10DA31DD70DE10DE30D881EC81B3D
:105416008B1B951B901BA020421FA41B531F601FB4
:10542600D01F8620891F40201720B31F9A1F4E1FAA
:105436001F01F9000C011D011E0117011A010000D0
:105446000000CB02DE026303737400436D643F0009
:105456003E20003A20000000000077048004F30498
:1054660075736200696E70757400626C696E6B00AC
:10547600415649202F205553422D4932432076323A
:105486002E342E313734352C20417072203137209E
:10549600323031322032333A30323A343100000081
:1054A6000000D006D9060907000000005408770856
:1054B6000000000031094309747275650066616C6D
:1054C60073650000000000330D450D0000000082EA
:1054D6000D0C0EBE0DC10DC60DCB0DCE0DD10DD4CE
:1054E6000DD70DE10DE30D0A0E00000000FC10AE15
:1054F600110211DE10051107110D11000000008BBD
:10550600143D16A51449444C4500000000004616FB
:105516004F166016000000007819B619A2192C2043
:105526007072693D002C2050433D002C2073746B33
:105536003D005B005D20005D002C20737573706577
:105546006E646564002C20776169743D000000007C
:10555600002B1B1A1BBE0DC10DC60D571C541CD1AA
:105566000DA31DD70DE10DE30D881EC81B9F275FF8
:1055760028AE276527A727A4275728462864289FEB
:1055860029AC27B327DE275A1C2828000000005C18
:105596001C651CBE0DC10DC60D571C541CD10DA398
:1055A6001DD70DE10DE30D881EC81B8B1B951B90A7
:1055B6001BDE10DE10A41BDE10DE10DE10271CDE44
:1055C60010DE10D71B5A1CDE1000000000C71FB6E5
:1055D6001FBE0DC10DC60D571C541CD10DA31DD7E2
:1055E6000DE10DE30D881EC81B8B1B951B901BA0A0
:1055F60020421FA41B531F601FD01F8620891F40F7
:10560600201720B31F9A1F4E1F881FDE10501FDE63
:0856160010DE10DE10DE1000B2
:00000001FF
